:100000000C9458000C9480000C9480000C94800098
:100010000C9480000C9480000C9480000C94800060
:100020000C9480000C9480000C9480000C94800050
:100030000C9480000C9480000C9480000C94800040
:100040000C941B060C9480000C948B060C94650693
:100050000C9480000C9480000C9480000C94800020
:100060000C94BD060C9480000000000025002800C0
:100070002B00040404040404040402020202020229
:10008000030303030303010204081020408001025C
:1000900004081020010204081020000000080002DB
:1000A0000100000304070000000000000000DC075E
:1000B00011241FBECFEFD8E0DEBFCDBF22E0AEE3FC
:1000C000B1E001C01D92AE3AB207E1F711E0A0E045
:1000D000B1E0EAE9F6E102C005900D92AE33B10756
:1000E000D9F710E0C8E5D0E004C02197FE010E94D6
:1000F0003F09C735D107C9F70E9415080C944B0B6F
:100100000C94000090E0FC01E656FF4F2491FC01A6
:10011000EA57FF4F3491FC01EE58FF4FE491EE2374
:10012000C9F0222339F0233001F1A8F4213019F16C
:10013000223029F1F0E0EE0FFF1FE859FF4FA591A3
:10014000B4918FB7F894EC91611126C030953E239D
:100150003C938FBF08952730A9F02830C9F0243090
:1001600049F7809180008F7D03C0809180008F7758
:1001700080938000DFCF84B58F7784BDDBCF84B5DB
:100180008F7DFBCF8091B0008F778093B000D2CF6E
:100190008091B0008F7DF9CF3E2BDACF3FB7F89436
:1001A0008091FD019091FE01A091FF01B0910002AC
:1001B00026B5A89B05C02F3F19F00196A11DB11DC2
:1001C0003FBFBA2FA92F982F8827BC01CD01620FFE
:1001D000711D811D911D42E0660F771F881F991FB9
:1001E0004A95D1F70895AF92BF92CF92DF92EF92E6
:1001F000FF920F931F93CF93DF936C017B018B01D1
:10020000040F151FEB015E01AE18BF08C017D10720
:1002100059F06991D601ED91FC910190F081E02DAA
:10022000C6010995892B79F7C501DF91CF911F91FF
:100230000F91FF90EF90DF90CF90BF90AF90089517
:10024000FC01538D448D252F30E0842F90E0821BDC
:10025000930B541710F0CF96089501970895FC0161
:10026000918D828D981761F0A28DAE0FBF2FB11DB9
:100270005D968C91928D9F5F9F73928F90E0089511
:100280008FEF9FEF0895FC01918D828D981731F0CB
:10029000828DE80FF11D858D90E008958FEF9FEF1F
:1002A0000895FC01918D228D892F90E0805C9F4FF5
:1002B000821B91098F739927089581E092E00E9433
:1002C000510121E0892B09F420E0822F089580E07C
:1002D00090E0892B29F00E945D0181110C940000AF
:1002E0000895FC01A48DA80FB92FB11DA35ABF4FCB
:1002F0002C91848D90E001968F739927848FA68925
:10030000B7892C93A089B1898C91837080648C9378
:10031000938D848D981306C00288F389E02D808127
:100320008F7D80830895EF92FF920F931F93CF9359
:10033000DF93EC0181E0888F9B8D8C8D98131AC020
:10034000E889F989808185FF15C09FB7F894EE8907
:10035000FF896083E889F989808183708064808364
:100360009FBF81E090E0DF91CF911F910F91FF90AF
:10037000EF900895F62E0B8D10E00F5F1F4F0F7357
:100380001127E02E8C8D8E110CC00FB607FCFACF12
:10039000E889F989808185FFF5CFCE010E9471013E
:1003A000F1CFEB8DEC0FFD2FF11DE35AFF4FF082E3
:1003B0009FB7F8940B8FEA89FB8980818062CFCF49
:1003C000CF93DF93EC01888D8823B9F0AA89BB898C
:1003D000E889F9898C9185FD03C0808186FD0DC077
:1003E0000FB607FCF7CF8C9185FFF2CF808185FF98
:1003F000EDCFCE010E947101E9CFDF91CF91089539
:100400002091AC01260F3327331F21323105ECF444
:100410002091D201FC0190E080E0243069F082E07C
:100420000895A091AC012191AC0146575E4FA40FF5
:10043000B52FB11D2C930196861798F38091AC01CE
:10044000680F6093AC0180E0089581E008951092F8
:10045000D20181E08093D4011092D30161E082E166
:100460000E94820061E083E10E948200E9EBF0E0FB
:1004700080818E7F808380818D7F808388E48093DC
:10048000B80085E48093BC000895CF93DF9391E09A
:10049000909389018823B9F0C091B800D091BA0037
:1004A0008091BC008A7B8093BC0060E082E10E9466
:1004B000820060E083E10E9482000E942702D093C4
:1004C000BA00C093B800DF91CF91089508950895C0
:1004D0000895E091810180918001E81730F4F0E007
:1004E000E05AFE4F808190E008958FEF9FEF0895CE
:1004F00090918101809180012FEF3FEF981748F490
:10050000E92FF0E0E05AFE4F208130E09F5F9093AA
:100510008101C90108958091800190918101891B19
:10052000990B0895CF92DF92EF92FF920F931F9352
:10053000CF93DF937C01CB018A0120915F012223BD
:1005400089F0EB016B01C40ED51ECC15DD0569F0F9
:100550006991D701ED91FC910190F081E02DC701E7
:100560000995F3CF642F0E940002C801DF91CF915B
:100570001F910F91FF90EF90DF90CF900895CF9350
:10058000DF931F92CDB7DEB7698320915F012223ED
:10059000F9F020918201203258F021E030E0FC0196
:1005A0003383228390E080E00F90DF91CF91089514
:1005B00080918301E82FF0E0E15CFE4F9981908308
:1005C0008F5F809383018093820181E090E0ECCF84
:1005D00061E0CE0101960E940002F7CF90E080E03A
:1005E0000895FC0180819181009711F00C94E1093C
:1005F00008950F931F93CF93DF93EC018881998126
:10060000009759F02A813B812617370730F081E0A7
:10061000DF91CF911F910F9108958B016F5F7F4FF5
:100620000E946A0A009759F0998388831B830A8382
:100630002C813D81232B59F7FC011082E8CF80E00B
:10064000E7CFEF92FF920F931F93CF93DF93EC01CD
:100650007B018A01BA010E94F90228813981811146
:1006600014C02115310519F0C9010E94E109198250
:1006700018821D821C821B821A82CE01DF91CF91CB
:100680001F910F91FF90EF9008951D830C83B70188
:10069000C9010E94440BF1CF85ED8093BC0080918D
:1006A000850190918601A0918701B09188010796FC
:1006B000A11DB11D23E0B695A795979587952A951D
:1006C000D1F72091BC0024FD03C01092D2010895FF
:1006D0004091850150918601609187017091880158
:1006E000452B462B472B69F30097A105B10541F037
:1006F0002AE22A95F1F700C00197A109B109E1CFDB
:10070000809184010C9445022F923F924F925F9208
:100710006F927F928F929F92AF92BF92CF92DF9211
:10072000EF92FF920F931F93CF93DF93CDB7DEB776
:100730006A970FB6F894DEBF0FBECDBF8C017A8FDB
:10074000698F1092810110928001109283011092A2
:1007500082010E94270286E692E09093AB0180938B
:10076000AA0187E692E09093AF018093AE011C8AC4
:100770001B8A1E8A1D8A188E1F8A50E040E06DE396
:1007800071E0CE0143960E94210387E5E82EF12C0B
:100790009924939488248A94170127E1221A310816
:1007A00050E040E06DE371E0CE0143960E942103EA
:1007B000670186E1C81AD108EC14FD040CF4E0C10D
:1007C00090925F0190E590933E0110928301109208
:1007D00082016D2D8EE992E00E94BF026C2D8EE9A0
:1007E00092E00E94BF02B0908201E0E2EB1508F4B3
:1007F0008EC00E94CE002B013C018091D20181115C
:1008000061C0F2E0F093D2019092D4018092D101C4
:100810001092F601B092F501EFE3F1E0A5EDB1E041
:10082000B812E5C01092F7018091F701806A8093B9
:10083000F7018091D301813009F0DDC01092D3011E
:100840000E94CE002B013C018091F7018093BB00F8
:100850008091850190918601A0918701B0918801D6
:10086000892B8A2B8B2B99F00E94CE002091850139
:100870003091860140918701509188016419750972
:10088000860997092617370748075907E0F180912D
:10089000BC0083FDD9CF25EC2093BC000E94CE0084
:1008A0002B013C018091D201823009F4A8C08091D3
:1008B000D1018F3F61F18091D101803241F180916E
:1008C000D10125C08091850190918601A091870179
:1008D000B0918801892B8A2B8B2B09F48ECF0E9433
:1008E000CE00209185013091860140918701509181
:1008F000880164197509860997092617370748077B
:10090000590708F07ACF809184010E944502109225
:1009100083011092820110925F010E94CE002B0190
:100920003C018091D20181118CC09092D2019092B1
:10093000D4018092D1011092F6011092F5019092AB
:10094000F7018091F701806A8093F7018091D301CC
:10095000813009F0E6C01092D3010E94CE002B0135
:100960003C018091F7018093BB00809185019091BB
:100970008601A0918701B0918801892B8A2B8B2B4E
:10098000A1F00E94CE002091850130918601409116
:1009900087015091880164197509860997092617FE
:1009A00037074807590708F46DC08091BC0083FDE4
:1009B000D8CF95EC9093BC000E94CE002B013C0157
:1009C0008091D201813009F4B0C08091F60181118B
:1009D000CEC08091F601E5EDF1E0A0E6B1E090E057
:1009E000981709F454C021912D939F5FF9CF9191ED
:1009F0009D938F5F15CF85EE8093BC004FCF809184
:100A0000850190918601A0918701B0918801892B81
:100A10008A2B8B2B09F446CF0E94CE0020918501B2
:100A200030918601409187015091880164197509C0
:100A300086099709261737074807590708F032CF64
:100A400062CF8091850190918601A0918701B0913C
:100A50008801892B8A2B8B2B09F463CF0E94CE004F
:100A60002091850130918601409187015091880144
:100A70006419750986099709261737074807590722
:100A800008F04FCF809184010E94450280E01092CF
:100A90008101809380018EE992E00E947802B82E55
:100AA000F0E2F81708F068C0082E000C990B0E94BD
:100AB0002A0B892BE1F08F89988DB9821A825C010B
:100AC0002FEFA21AB20AB501CE0143960E94F90295
:100AD000882369F02B893C898F89988DBE016F5FCF
:100AE0007F4F820F931F0E94440BB88EAF8A2F89CD
:100AF000388DE98DFA8D8481958128173907E1F5C4
:100B00008B899C8960817181009709F44EC06115C1
:100B1000710579F5232B09F455C0FC01808190E023
:100B20004FC0E5EEE093BC0047CF809185019091E6
:100B30008601A0918701B0918801892B8A2B8B2B8C
:100B400009F43ECF0E94CE002091850130918601AC
:100B500040918701509188016419750986099709A8
:100B6000261737074807590708F02ACF8BCF81E0AF
:100B700032CF0E943B0B24C09FEFC91AD90A1CCE6A
:100B8000E8E1EE0EF11CF7EDEF16F3E1FF0609F0D8
:100B900003CEF80111821082138212821582148210
:100BA00049E050E06AE271E025C06115710551F03D
:100BB000232B41F0FB01808190E091958195910973
:100BC000892BD1F6F80111821082138212821582CC
:100BD00014824AE0CE0101967C01BC01C1010E9451
:100BE000D008F70101900020E9F73197AF014E19C5
:100BF0005F09B701C8010E942103CE0143960E94FC
:100C0000F102C8016A960FB6F894DEBF0FBECDBFE1
:100C1000DF91CF911F910F91FF90EF90DF90CF90D8
:100C2000BF90AF909F908F907F906F905F904F900C
:100C30003F902F9008951F920F920FB60F9211249C
:100C40002F933F938F939F93AF93BF938091F9011D
:100C50009091FA01A091FB01B091FC013091F80153
:100C600023E0230F2D3758F50196A11DB11D2093C8
:100C7000F8018093F9019093FA01A093FB01B093DE
:100C8000FC018091FD019091FE01A091FF01B091C6
:100C900000020196A11DB11D8093FD019093FE01FC
:100CA000A093FF01B0930002BF91AF919F918F91EC
:100CB0003F912F910F900FBE0F901F90189526E82F
:100CC000230F0296A11DB11DD2CF1F920F920FB616
:100CD0000F9211242F933F934F935F936F937F93C2
:100CE0008F939F93AF93BF93EF93FF9381E092E035
:100CF0000E947101FF91EF91BF91AF919F918F91F0
:100D00007F916F915F914F913F912F910F900FBE07
:100D10000F901F9018951F920F920FB60F921124EB
:100D20002F938F939F93EF93FF93E0911102F09194
:100D300012028081E0911702F091180282FD1BC01F
:100D4000908180911A028F5F8F7320911B0282170E
:100D500041F0E0911A02F0E0EF5FFD4F958F809334
:100D60001A02FF91EF919F918F912F910F900FBEDB
:100D70000F901F9018958081F4CF1F920F920FB69D
:100D80000F9211242F933F934F935F936F937F9311
:100D90008F939F93AF93BF93EF93FF938091B9008D
:100DA000887F803609F44AC0F0F5883209F4A7C07C
:100DB00018F5803109F49BC0B8F4882309F4F9C010
:100DC000883009F494C0FF91EF91BF91AF919F914A
:100DD0008F917F916F915F914F913F912F910F90E4
:100DE0000FBE0F901F901895883109F488C080328B
:100DF00051F78093D10114C0803409F49DC040F4B0
:100E00008033B9F38833F9F68093D10185ECB0C013
:100E1000803509F485C0883509F496C0883499F680
:100E20000E944C03D0CF883909F48CC038F588373C
:100E300029F050F4883611F0803729F683E080934A
:100E4000D2011092D00157C0883809F47BC0803994
:100E500019F0803809F0B7CF8091D001803208F0C6
:100E600071C0E091D00181E08E0F8093D00180911C
:100E7000BB00F0E0E055FE4F80833DC0803B39F081
:100E8000E0F4803A09F479C0883A09F09CCF84E014
:100E90008093D2011092AD011092AC01E091AA01B1
:100EA000F091AB0109958091AC0181110FC081E0F7
:100EB0008093AC0110928A0109C0803C09F4A6CF4E
:100EC000883C09F4A3CF883B09F07DCFE091AD01C8
:100ED00081E08E0F8093AD01F0E0E657FE4F8081F8
:100EE0008093BB009091AD018091AC0129C08091AD
:100EF000F7018093BB0085EC8093BC0064CF909198
:100F0000F6018091F501981758F5E091F60181E01E
:100F10008E0F8093F601F0E0EB52FE4F8081E9CF17
:100F2000E091F60181E08E0F8093F6018091BB0085
:100F3000F0E0EB52FE4F80839091F6018091F50135
:100F40009817C8F285E8D8CFE091F60181E08E0FBE
:100F50008093F6018091BB00F0E0EB52FE4F80835E
:100F60008091D40181115CCF81E08093D30184EA28
:100F70008093BC001092D20126CF85EC8093BC00F8
:100F80001092D2018091D001803230F4E091D001F2
:100F9000F0E0E055FE4F10826091D00170E0E091EA
:100FA000AE01F091AF0180EB91E009951092D00174
:100FB0000ACF1092D10134CFE1E0F2E01382128225
:100FC00088EE93E0A0E0B0E084839583A683B783A6
:100FD0002AE031E03183208325EC30E03587248717
:100FE00024EC30E03787268720EC30E0318B208BF3
:100FF00021EC30E0338B228B22EC30E0358B248BDC
:1010000026EC30E0378B268B118E128E138E148EC9
:10101000EEE9F2E01382128284839583A683B7837C
:101020008CE191E0918380830895CF93DF93CDB7D6
:10103000DEB72C970FB6F894DEBF0FBECDBF789405
:1010400084B5826084BD84B5816084BD85B58260CD
:1010500085BD85B5816085BD80916E00816080937E
:101060006E001092810080918100826080938100E7
:1010700080918100816080938100809180008160F7
:10108000809380008091B10084608093B100809152
:10109000B00081608093B00080917A00846080937A
:1010A0007A0080917A00826080937A0080917A0041
:1010B000816080937A0080917A00806880937A00C2
:1010C0001092C100E0911102F091120282E080833F
:1010D000E0910D02F0910E021082E0910F02F0916A
:1010E00010028FEC808310921902E0911502F091AA
:1010F000160286E08083E0911302F0911402808151
:1011000080618083E0911302F091140280818860F5
:101110008083E0911302F0911402808180688083C3
:10112000E0911302F091140280818F7D80831886F4
:101130001F821A8619861C861B8646E050E064E3EF
:1011400071E0CE0107960E942103BE01695F7F4FC7
:10115000CE0101960E9484034D815E8169817A816E
:1011600081E092E00E94F30042E050E06BE371E026
:1011700081E092E00E94F300CE0101960E94F1020C
:10118000CE0107960E94F10200E010E00115110562
:10119000E9F30E945D018823C9F30E940000F6CFA5
:1011A000BB274A3031F4992322F4BDE29095819512
:1011B0009F4F0C94DC08BB27FB015527AA27880FFB
:1011C000991FAA1FA41710F0A41B83955051B9F7BB
:1011D000A05DAA3308F0A95DA193009779F7B1113A
:1011E000B1931192CB010C94F508DC01FC01672F3F
:1011F00071917723E1F7329704C07C916D937083EE
:101200006291AE17BF07C8F30895992788270895FC
:101210002F923F924F925F926F927F928F929F9206
:10122000AF92BF92CF92DF92EF92FF920F931F93F4
:10123000CF93DF93CDB7DEB7CA1BDB0B0FB6F894A5
:10124000DEBF0FBECDBF09942A88398848885F84E5
:101250006E847D848C849B84AA84B984C884DF8056
:10126000EE80FD800C811B81AA81B981CE0FD11D3A
:101270000FB6F894DEBF0FBECDBFED010895EE0F9F
:10128000FF1F0590F491E02D09940F931F93CF93C6
:10129000DF938230910510F482E090E0E091AC029F
:1012A000F091AD0230E020E0B0E0A0E0309799F49A
:1012B0002115310509F44AC0281B390B24303105AA
:1012C000D8F58A819B816115710589F1FB019383B2
:1012D0008283FE0111C04081518102811381481730
:1012E0005907E0F04817590799F4109761F01296E2
:1012F0000C93129713961C933296CF01DF91CF91E6
:101300001F910F9108950093AC021093AD02F4CF9A
:101310002115310551F04217530738F0A901DB01BF
:101320009A01BD01DF01F801C1CFEF01F9CF909320
:10133000AD028093AC02CDCFFE01E20FF31F81938B
:1013400091932250310939832883D7CF2091AA0263
:101350003091AB02232B41F4209102013091030123
:101360003093AB022093AA02209100013091010139
:101370002115310541F42DB73EB74091040150913C
:101380000501241B350BE091AA02F091AB02E21794
:10139000F307A0F42E1B3F0B2817390778F0AC0198
:1013A0004E5F5F4F2417350748F04E0F5F1F509375
:1013B000AB024093AA02819391939FCFF0E0E0E0CB
:1013C0009CCFCF93DF930097E9F0FC013297138213
:1013D0001282A091AC02B091AD02ED0130E020E0AC
:1013E0001097A1F420813181820F931F2091AA02CE
:1013F0003091AB022817390709F061C0F093AB02B6
:10140000E093AA02DF91CF910895EA01CE17DF079A
:10141000E8F54A815B819E0141155105B1F7E9016B
:10142000FB83EA8349915991C40FD51FEC17FD073F
:1014300061F4808191810296840F951FE90199835F
:101440008883828193819B838A83F0E0E0E0129617
:101450008D919C9113970097B9F52D913C9111971F
:10146000CD010296820F931F2091AA023091AB0208
:101470002817390739F6309751F51092AD021092BE
:10148000AC02B093AB02A093AA02BCCFD383C283B9
:1014900040815181840F951FC817D90761F44E5FB1
:1014A0005F4F88819981480F591F518340838A81FA
:1014B0009B81938382832115310509F0B0CFF0938E
:1014C000AD02E093AC029ECFFD01DC01C0CF1382E0
:1014D0001282D7CFB0E0A0E0E0E7FAE00C940A096E
:1014E0008C01009751F4CB010E9445098C01C80181
:1014F000CDB7DEB7E0E10C942609FC01E60FF71F3B
:101500009C0122503109E217F30708F49DC0D9016C
:10151000CD91DC911197C617D70798F0C530D1054A
:1015200030F3CE0104978617970708F3C61BD70B35
:101530002297C193D1936D937C93CF010E94E109CF
:10154000D6CF5B01AC1ABD0A4C018C0E9D1EA0913A
:10155000AC02B091AD02512C412CF12CE12C109732
:1015600031F58091AA029091AB028815990509F096
:101570005CC04616570608F058C080910001909153
:101580000101009741F48DB79EB74091040150913D
:101590000501841B950BE817F90708F055C0F09377
:1015A000AB02E093AA02F90171836083A0CF8D9111
:1015B0009C91119712966C90129713967C901397AA
:1015C000A815B90559F56C0142E0C40ED11CCA1426
:1015D000DB0420F1AC014A195B09DA011296159778
:1015E00080F06282738251834083D9016D937C9332
:1015F000E114F10471F0D7011396FC93EE93129766
:1016000076CF22968C0F9D1FF90191838083F30181
:10161000EFCFF093AD02E093AC0269CF48165906C4
:1016200008F42C017D01D3019ACFCB010E9445091A
:101630007C01009749F0AE01B8010E94320BC8014D
:101640000E94E109870153CF10E000E050CF85FDF3
:101650000C940509806291110C94050981568A51F8
:10166000D8F70895FB01DC0102C001900D924150B2
:101670005040D8F70895FB01DC018D91019080194D
:101680000110D9F3990B0895FB01DC0101900D9233
:0A1690000020E1F70895F894FFCF61
:10169A000000AE028000000000009301F300200168
:1016AA00E00151012F01430100000000BF02920234
:1016BA00EE0268028B02780269026E6F7420666F0E
:0E16CA00756E6400676974687562000D0A0031
:00000001FF
