:100000000C9458000C9480000C9480000C94800098
:100010000C9480000C9480000C9480000C94800060
:100020000C9480000C9480000C9480000C94800050
:100030000C9480000C9480000C9480000C94800040
:100040000C946C070C9480000C94DC070C94B6079D
:100050000C9480000C9480000C9480000C94800020
:100060000C940E080C94800000000000250028006D
:100070002B00040404040404040402020202020229
:10008000030303030303010204081020408001025C
:1000900004081020010204081020000000080002DB
:1000A00001000003040700000000000000002D090B
:1000B00011241FBECFEFD8E0DEBFCDBF25E0ACE7F7
:1000C000B1E001C01D92A934B207E1F711E0A0E050
:1000D000B1E0EEE8FEE102C005900D92AC37B10749
:1000E000D9F710E0C8E5D0E004C02197FE010E94D6
:1000F000390DC735D107C9F70E9466090C94450F21
:100100000C9400000895089590E0FC01E656FF4F1E
:100110002491FC01EA57FF4F3491FC01EE58FF4F48
:10012000E491EE23C9F0222339F0233001F1A8F441
:10013000213019F1223029F1F0E0EE0FFF1FE859CC
:10014000FF4FA591B4918FB7F894EC91611126C03F
:1001500030953E233C938FBF08952730A9F0283077
:10016000C9F0243049F7809180008F7D03C08091D1
:1001700080008F7780938000DFCF84B58F7784BD38
:10018000DBCF84B58F7DFBCF8091B0008F778093DC
:10019000B000D2CF8091B0008F7DF9CF3E2BDACF67
:1001A0003FB7F89480913E0490913F04A0914004A1
:1001B000B091410426B5A89B05C02F3F19F00196C8
:1001C000A11DB11D3FBFBA2FA92F982F8827BC01B1
:1001D000CD01620F711D811D911D42E0660F771FD9
:1001E000881F991F4A95D1F708958F929F92AF92D9
:1001F000BF92CF92DF92EF92FF924B015C010E947F
:10020000D0006B017C010E94D0006C197D098E0921
:100210009F09683E734081059105A8F321E0821A89
:100220009108A108B10888EEC80E83E0D81EE11C31
:10023000F11C81149104A104B10429F7FF90EF90FF
:10024000DF90CF90BF90AF909F908F900895AF9226
:10025000BF92CF92DF92EF92FF920F931F93CF93B3
:10026000DF936C017B018B01040F151FEB015E0115
:10027000AE18BF08C017D10759F06991D601ED91AA
:10028000FC910190F081E02DC6010995892B79F749
:10029000C501DF91CF911F910F91FF90EF90DF90FB
:1002A000CF90BF90AF900895FC01538D448D252FC2
:1002B00030E0842F90E0821B930B541710F0CF9600
:1002C000089501970895FC01918D828D981761F032
:1002D000A28DAE0FBF2FB11D5D968C91928D9F5F49
:1002E0009F73928F90E008958FEF9FEF08952FB73F
:1002F000F8948091420490914304A0914404B091F9
:1003000045042FBF8093A4049093A504A093A60452
:10031000B093A7048CE994E00E94630197FF26C084
:100320002FB7F8948091420490914304A091440423
:10033000B09145042FBF4091A4045091A504609151
:10034000A6047091A704841B950BA60BB70B4091D4
:10035000A0045091A1046091A2047091A304841799
:100360009507A607B707B0F28FEF9FEF0895FC013E
:10037000918D828D981731F0828DE80FF11D858D5A
:1003800090E008958FEF9FEF0895FC01918D228DED
:10039000892F90E0805C9F4F821B91098F73992772
:1003A00008958CE994E00E94C50121E0892B09F4AD
:1003B00020E0822F089580E090E0892B29F00E94B0
:1003C000D10181110C9400000895FC01A48DA80FA7
:1003D000B92FB11DA35ABF4F2C91848D90E0019687
:1003E0008F739927848FA689B7892C93A089B189A7
:1003F0008C91837080648C93938D848D981306C048
:100400000288F389E02D80818F7D80830895EF92AB
:10041000FF920F931F93CF93DF93EC0181E0888FBE
:100420009B8D8C8D98131AC0E889F989808185FF8E
:1004300015C09FB7F894EE89FF896083E889F98930
:1004400080818370806480839FBF81E090E0DF9132
:10045000CF911F910F91FF90EF900895F62E0B8D85
:1004600010E00F5F1F4F0F731127E02E8C8D8E1140
:100470000CC00FB607FCFACFE889F989808185FFA7
:10048000F5CFCE010E94E501F1CFEB8DEC0FFD2FF2
:10049000F11DE35AFF4FF0829FB7F8940B8FEA8962
:1004A000FB8980818062CFCFCF93DF93EC01888D71
:1004B0008823B9F0AA89BB89E889F9898C9185FDDF
:1004C00003C0808186FD0DC00FB607FCF7CF8C916D
:1004D00085FFF2CF808185FFEDCFCE010E94E5013F
:1004E000E9CFDF91CF9108952091BD01260F3327E9
:1004F000331F21323105ECF420917204FC0190E0AD
:1005000080E0243069F082E00895A091BD0121913E
:10051000AC0143565E4FA40FB52FB11D2C9301962D
:10052000861798F38091BD01680F6093BD0180E04C
:10053000089581E008951092720481E0809371041F
:1005400010924C0461E082E10E94840061E083E14A
:100550000E948400E9EBF0E080818E7F80838081BF
:100560008D7F808388E48093B80085E48093BC000D
:10057000089510924B0410924A041092790410923C
:100580009B040E949B0282E890E090934904809330
:10059000480483E890E090934704809346040895CC
:1005A000CF93DF9391E090939C018823B9F0C091A1
:1005B000B800D091BA008091BC008A7B8093BC00C7
:1005C00060E082E10E94840060E083E10E94840098
:1005D0000E949B02D093BA00C093B800DF91CF91E4
:1005E00008958F929F92AF92BF92CF92DF92EF9237
:1005F000FF920F931F93CF93DF93D0919B04D1323F
:1006000008F0D7C0182FC0919A040E94D0006B0147
:100610007C018091720481116BC082E0809372042E
:10062000109371048FEF8093700410926F04D09335
:100630006E04AAE7B4E0EEE4F4E080E0D81391C0E1
:1006400010924D0480914D04CC0FC82BC0934D04E3
:1006500080914C04813009F088C010924C040E94B3
:10066000D0006B017C0180914D048093BB00809190
:10067000740490917504A0917604B0917704892B4D
:100680008A2B8B2BA1F00E94D00000917404109152
:10069000750420917604309177046C197D098E09D8
:1006A0009F09061717072807390708F442C08091E9
:1006B000BC0083FDD8CF85EC8093BC000E94D000A5
:1006C0006B017C0180917204823009F450C08091EA
:1006D00070048F3F09F46FC080917004803209F478
:1006E0006CC080917004803309F469C084E026C036
:1006F0008091740490917504A0917604B091770470
:10070000892B8A2B8B2B09F484CF0E94D0008090F8
:10071000740490907504A0907604B09077046C19DE
:100720007D098E099F0986169706A806B90608F066
:1007300070CF809173040E94D00285E010927904FA
:1007400010929B0410927804DF91CF911F910F912A
:10075000FF90EF90DF90CF90BF90AF909F908F90E1
:1007600008959D9191938F5F69CF85EEA5CF80917C
:10077000740490917504A0917604B0917704892B4C
:100780008A2B8B2B09F49ECF0E94D0000091740419
:100790001091750420917604309177046C197D09CD
:1007A0008E099F09061717072807390708F08ACF0F
:1007B000C0CF81E0C3CF80E0C1CF82E0BFCF83E074
:1007C000BDCF0895E0914B0480914A04E81730F4BE
:1007D000F0E0E458FE4F808190E008958FEF9FEFA6
:1007E000089590914B0480914A042FEF3FEF9817A2
:1007F00048F4E92FF0E0E458FE4F208130E09F5F9D
:1008000090934B04C901089580914A0490914B0440
:10081000891B990B0895CF92DF92EF92FF920F936D
:100820001F93CF93DF937C01CB018A012091780441
:10083000222389F0EB016B01C40ED51ECC15DD051A
:1008400069F06991D701ED91FC910190F081E02D63
:10085000C7010995F3CF642F0E947402C801DF918C
:10086000CF911F910F91FF90EF90DF90CF9008955F
:10087000CF93DF931F92CDB7DEB7698320917804C1
:100880002223F9F020919B04203258F021E030E03F
:10089000FC013383228390E080E00F90DF91CF91C1
:1008A000089580917904E82FF0E0E658FB4F998194
:1008B00090838F5F8093790480939B0481E090E024
:1008C000ECCF61E0CE0101960E947402F7CF682F51
:1008D00089E395E00C9438041F93CF93DF93EC01E8
:1008E000162F81E08093780480E580939A0410921B
:1008F000790410929B048D2F90E00E946704CE0132
:1009000099270E946704612F89E395E00E943804CB
:1009100081E00E94F10265E070E080E090E0DF910C
:10092000CF911F910C94F50090E080E0089542E093
:1009300050E06AE271E08CE994E00C942701CF93D7
:10094000DF93FC0144815581608171818CE994E0E1
:100950000E942701EC010E9497048C0F9D1FDF91DC
:10096000CF910895CF93DF93FC0101900020E9F728
:100970003197AF01481B590BBC018CE994E00E94F0
:100980002701EC010E9497048C0F9D1FDF91CF91EE
:100990000895CF92DF92EF92FF920F931F93CF9320
:1009A000DF93EC0181E08093780480E580939A04E2
:1009B0001092790410929B048D2F90E00E9467049E
:1009C000CE0199270E94670481E00E94F1020E94F3
:1009D000D0006B017C0180917204811163C081E0C1
:1009E00080937204809371049FEF9093700410922F
:1009F0006F0410926E0480934D0480914D04806AC0
:100A000080934D0480914C04813009F082C0109293
:100A10004C040E94D0006B017C0180914D048093B6
:100A2000BB008091740490917504A0917604B091FC
:100A30007704892B8A2B8B2BA1F00E94D000009188
:100A400074041091750420917604309177046C1928
:100A50007D098E099F09061717072807390708F42B
:100A600042C08091BC0083FDD8CF85EC8093BC0050
:100A70000E94D0006B017C0180917204813009F4E6
:100A80004AC080916F04811168C080916F04AEE408
:100A9000B4E0ECE7F1E090E0981751F12D9121934B
:100AA0009F5FFACF8091740490917504A0917604B1
:100AB000B0917704892B8A2B8B2B09F48CCF0E9461
:100AC000D000009174041091750420917604309147
:100AD00077046C197D098E099F09061717072807E7
:100AE000390708F078CF809173040E94D00280E02B
:100AF00010924B0480934A0489E395E00E94F1032D
:100B0000DF91CF911F910F91FF90EF90DF90CF90E9
:100B1000089585EEABCF8091740490917504A091F7
:100B20007604B0917704892B8A2B8B2B09F4A4CF00
:100B30000E94D000009174041091750420917604F5
:100B4000309177046C197D098E099F0906171707E4
:100B50002807390708F090CFC6CF81E098CF0F93D0
:100B60001F93CF93DF93EC0188819981009759F00F
:100B70002A813B812617370730F081E0DF91CF9142
:100B80001F910F9108958B016F5F7F4F0E94640E3C
:100B9000009759F0998388831B830A832C813D81B8
:100BA000232B59F7FC011082E8CF80E0E7CFEF92CA
:100BB000FF920F931F93CF93DF9300D0CDB7DEB793
:100BC0008C0169831A82FC01E480F580FFEFEF1A43
:100BD000FF0AB7010E94AF05882381F0F801208148
:100BE000318184819581BE016F5F7F4F820F931F9A
:100BF0000E943E0FF801F582E48281E00F900F9091
:100C0000DF91CF911F910F91FF90EF900895CF93B7
:100C1000DF93EC0188819981009711F00E94DB0D30
:100C2000198218821D821C821B821A82DF91CF9149
:100C30000895EF92FF920F931F93CF93DF93EC01F0
:100C40007B018A01BA010E94AF0581110BC0CE0160
:100C50000E940706CE01DF91CF911F910F91FF9067
:100C6000EF9008951D830C83B701888199810E94BC
:100C70003E0FF0CFFC011182108213821282158286
:100C8000148250E040E06CE271E00C941906EF929F
:100C9000FF920F931F93CF93DF938C01EB010E9480
:100CA000B902C8010E943A06D695DC2FCC27D79509
:100CB000C795CE018F509C4E0E94C904CE50DC4E89
:100CC0007E01E80EF11CCE15DF055CF4CE010E941A
:100CD000C904813220F0682FC8010E94D7052196EF
:100CE000F2CFC801DF91CF911F910F91FF90EF904C
:100CF0000895CF93DF93EC01FB018617970749F026
:100D0000608171816115710541F0448155810E94B6
:100D10001906CE01DF91CF9108950E940706F9CF01
:100D2000FC011182108213821282158214820C94AB
:100D30007906FC0180819181009711F00C94DB0D04
:100D4000089585ED8093BC008091740490917504A2
:100D5000A0917604B09177040796A11DB11D23E000
:100D6000B695A795979587952A95D1F72091BC00C0
:100D700024FD03C0109272040895409174045091B0
:100D800075046091760470917704452B462B472BB0
:100D900069F30097A105B10541F02AE22A95F1F720
:100DA00000C00197A109B109E1CF809173040C94AF
:100DB000D0029F92AF92BF92CF92DF92EF92FF92BA
:100DC0000F931F93CF93DF9300D000D000D0CDB707
:100DD000DEB75C010E94B902CE0101960E943A067C
:100DE00007E510E0680187E1C81AD10850E040E04B
:100DF0006CE271E0CE0101960E9419067801E6E1ED
:100E0000EE1AF1080E151F058CF1C7010E94C904E6
:100E1000982EF0E2F81730F5082E000C990B0E947E
:100E2000240F892B29F0692DCE0101960E94D70548
:100E30002D813E81F501848195812817390791F430
:100E400089819A81608171810097D1F06115710566
:100E500031F4232B11F1FC01808190E01CC00E9431
:100E6000350F19C0FFEFEF1AFF0ACCCF085E1F4FF6
:100E7000073D83E1180709F0B5CF0FEF1FEF15C04D
:100E80006115710551F0232B41F0FB01808190E049
:100E9000919581959109892B29F7C6018054910973
:100EA00068E170E00E94110D8B01CE0101960E9455
:100EB0009906C80126960FB6F894DEBF0FBECDBFC7
:100EC000DF91CF911F910F91FF90EF90DF90CF9026
:100ED000BF90AF909F9008951F920F920FB60F9200
:100EE00011242F933F938F939F93AF93BF93809140
:100EF000420490914304A0914404B0914504309180
:100F00003D0423E0230F2D3758F50196A11DB11D97
:100F100020933D048093420490934304A09344049F
:100F2000B093450480913E0490913F04A091400409
:100F3000B09141040196A11DB11D80933E04909390
:100F40003F04A0934004B0934104BF91AF919F919F
:100F50008F913F912F910F900FBE0F901F9018957A
:100F600026E8230F0296A11DB11DD2CF1F920F922A
:100F70000FB60F9211242F933F934F935F936F936C
:100F80007F938F939F93AF93BF93EF93FF938CE9DE
:100F900094E00E94E501FF91EF91BF91AF919F9185
:100FA0008F917F916F915F914F913F912F910F9012
:100FB0000FBE0F901F9018951F920F920FB60F92B1
:100FC00011242F938F939F93EF93FF93E091AC04A1
:100FD000F091AD048081E091B204F091B30482FD00
:100FE0001BC090818091B5048F5F8F732091B604F0
:100FF000821741F0E091B504F0E0E456FB4F958F85
:101000008093B504FF91EF919F918F912F910F9055
:101010000FBE0F901F9018958081F4CF1F920F92F2
:101020000FB60F9211242F933F934F935F936F93BB
:101030007F938F939F93AF93BF93EF93FF93809191
:10104000B900887F803609F44AC0F0F5883209F487
:10105000A7C018F5803109F49BC0B8F4882309F4BF
:10106000F9C0883009F494C0FF91EF91BF91AF911E
:101070009F918F917F916F915F914F913F912F91B0
:101080000F900FBE0F901F901895883109F488C0FB
:10109000803251F78093700414C0803409F49DC0ED
:1010A00040F48033B9F38833F9F68093700485EC0B
:1010B000B0C0803509F485C0883509F496C08834FD
:1010C00099F60E94A106D0CF883909F48CC038F572
:1010D000883729F050F4883611F0803729F683E0FC
:1010E000809372041092DF0157C0883809F47BC0E6
:1010F000803919F0803809F0B7CF8091DF01803254
:1011000008F071C0E091DF0181E08E0F8093DF0174
:101110008091BB00F0E0E154FE4F80833DC0803BF6
:1011200039F0E0F4803A09F479C0883A09F09CCFAC
:1011300084E0809372041092BE011092BD01E09190
:101140004804F091490409958091BD0181110FC0B7
:1011500081E08093BD0110929D0109C0803C09F49B
:10116000A6CF883C09F4A3CF883B09F07DCFE0915E
:10117000BE0181E08E0F8093BE01F0E0E356FE4F8A
:1011800080818093BB009091BE018091BD0129C0F8
:1011900080914D048093BB0085EC8093BC0064CFAC
:1011A00090916F0480916E04981758F5E0916F0448
:1011B00081E08E0F80936F04F0E0E25BFB4F808153
:1011C000E9CFE0916F0481E08E0F80936F048091EE
:1011D000BB00F0E0E25BFB4F808390916F04809155
:1011E0006E049817C8F285E8D8CFE0916F0481E0CB
:1011F0008E0F80936F048091BB00F0E0E25BFB4FA9
:1012000080838091710481115CCF81E080934C04D4
:1012100084EA8093BC001092720426CF85EC809300
:10122000BC00109272048091DF01803230F4E091B2
:10123000DF01F0E0E154FE4F10826091DF0170E0C9
:10124000E0914604F09147048FEB91E009951092EC
:10125000DF010ACF1092700434CFECE9F4E013827E
:10126000128288EE93E0A0E0B0E084839583A683A9
:10127000B7832AE031E03183208325EC30E03587E5
:10128000248724EC30E03787268720EC30E0318B50
:10129000208B21EC30E0338B228B22EC30E0358B3D
:1012A000248B26EC30E0378B268B118E128E138E1A
:1012B000148EE9E3F5E01382128284839583A6837A
:1012C000B7838CE191E0918380830895CF93DF937E
:1012D000CDB7DEB7E0970FB6F894DEBF0FBECDBF37
:1012E000789484B5826084BD84B5816084BD85B501
:1012F000826085BD85B5816085BD80916E0081600D
:1013000080936E00109281008091810082608093B2
:1013100081008091810081608093810080918000B4
:101320008160809380008091B10084608093B100DF
:101330008091B00081608093B00080917A008460D9
:1013400080937A0080917A00826080937A00809105
:101350007A00816080937A0080917A00806880931F
:101360007A001092C100CE0185960E943A06CE0105
:101370004F960E943A06CE0149960E943A06E091A5
:10138000AC04F091AD0482E08083E091A804F09178
:10139000A9041082E091AA04F091AB048FEC808341
:1013A0001092B404E091B004F091B10486E080831F
:1013B000E091AE04F091AF04808180618083E09180
:1013C000AE04F091AF04808188608083E091AE0428
:1013D000F091AF04808180688083E091AE04F09149
:1013E000AF0480818F7D808363E070E0CE01019641
:1013F0000E944706CE0101960E949F04CE010196ED
:101400000E949906CE0149960E949906CE014F96F8
:101410000E949906CE0185960E949906B6E02B2E71
:10142000A0E04A2EA0E05A2EE8E13E2EF4E6BF2EC0
:101430008CE994E00E94C501181619060CF027C229
:10144000CE018B960E943A060E94770197FD09C053
:101450008A30910531F0682FCE018B960E94D70516
:10146000F3CF8BA49CA48114910439F00FA518A983
:1014700074010115110509F050C0CE0101960E94BA
:101480003A06CE0107960E943A06CE010D960E94BA
:101490003A06CE0143960E943A06CE018B960E94F0
:1014A0009F04CE0185960E943A0610E000E0F12CE0
:1014B000E12C8FA598A90817190708F087C08BA5FC
:1014C0009CA5FC01E00FF11F009721F410923C0451
:1014D000ECE3F4E020812C3709F055C02E9CC001CC
:1014E0002F9C900D1124BE016B5D7F4F21E030E0F9
:1014F0002C0F3D1F820F931F0E94790650E040E0A1
:101500006CE271E0CE0185960E9419063FEFE31A66
:10151000F30A0F5F1F4FCDCF760167012FEFC21A7D
:10152000D20AF7018081082E000C990B0E94CE0C84
:10153000892B91F701501109080D191DF8018081BF
:10154000082E000C990B0E94CE0C892B31F00E1541
:101550001F0518F001501109F1CF0F5F1F4FA801AF
:101560004E195F0958AB4FA78E149F0420F4B701A2
:10157000C4010E942C0FEBA5FCA58FA598A9E80F2C
:10158000F91F10827ACF892B11F410923C04D0807D
:10159000BE016B5D7F4FCE0149960E9490066D2D76
:1015A000CE0149960E94D705811104C0CE0149960B
:1015B0000E940706BE01675E7F4FCE0185960E949E
:1015C0007906CE0149960E949906A3CF8D819E810E
:1015D000892B09F444C109811A816DE271E0C801C7
:1015E0000E94350F892B09F05EC10B891C89ED849F
:1015F000FE84CF80D8840E94B90281E090E00E94EE
:10160000C904982E80933B0410923A041092390436
:1016100010923804839DA001112480E8989E9001C7
:101620001124F60101900020E9F7BF01E0E7F3E0A3
:1016300090E080E06C197D094F5B5F4F882E861724
:10164000970708F071C08436910509F066C0B09222
:101650003A0474E6872EF70101900020E9F7AF0104
:1016600068EAC62E62E0D62EF60190E080E04E19C0
:101670005F09B9016F507C4EE82E8417950708F07A
:101680005DC08436910509F052C0B092390454E629
:10169000E52EF80101900020E9F7AF01E0EEF1E05E
:1016A00090E080E0401B510B2F5C3B4EA82E84172E
:1016B000950708F04DC08436910509F042C0B092FC
:1016C000380444E6A42E61E0690D81E090E00E94B8
:1016D0006C040F8118850E94B902692D80917003F6
:1016E000909171030E946C04F12C912C8F2D90E04D
:1016F000F801E80FF91F6081662369F101968815EA
:1017000099054CF5880F991FFC01E059FC4F808129
:1017100091810E946C04F394E9CFDA01A80FB91FFC
:10172000A193B19301968ACF80933A0494CFDB01C1
:10173000A80FB91FA193B19301969ECF809339044E
:10174000A8CFB901680F791F619371930196AECF4D
:1017500080933804B8CF64EF71E080E090E00E949D
:10176000F500BE01635F7F4FCE0149960E9490064F
:101770008B889C888114910409F449C00F89188DC5
:1017800001151105B1F08D8D9E8D080F191FB8013F
:10179000CE0149960E94AF058823C9F1298D3A8D63
:1017A0008D8D9E8DB401820F931F0E943E0F1E8F60
:1017B0000D8FBE01675E7F4FCE014F960E9490064F
:1017C000CE0149960E9499069F8CF8A06FEF6E0D8E
:1017D0008091A8029091A9020E946C04092D1F2DEE
:1017E000480166246394712CF12CF2E0CF0ED11CD9
:1017F0006E147F048CF4F40161914F01F601808135
:1018000091810E946C04FFEF6F1A7F0AEECFCE0128
:1018100049960E940706CDCF6FEF6A0D8091E001D7
:101820009091E1010E946C0492EEE92E91E0F92E74
:10183000DD24D394DA1458F4F80161918F01F70193
:10184000819191917F010E946C04D394F3CF81E345
:1018500091E00E94B204CE014F960E949906CE01FB
:1018600085960E949906CE0143960E949906CE0164
:101870000D960E949906CE0107960E949906CE0108
:1018800001960E949906CE018B960E9499064114FA
:10189000510409F4CDCD0E94D101882309F4C4CDAF
:1018A0000E940000BDCD66E571E0C8010E94350FC1
:1018B000892B11F5BE01695F7F4FCE0149960E94C9
:1018C0009006CE0149960E94D9068C01CE01499618
:1018D0000E9499068BE591E00F3F100709F45BC069
:1018E000B801CE0149960E944706CE0149960E9452
:1018F0009F04CE014996B1CF6CE671E0C8010E9409
:10190000350F892B09F0ABCFBE01695F7F4FCE0148
:1019100049960E949006CE0149960E94D9066C0114
:10192000CE0149960E9499060E94B9027601F6946A
:10193000FE2CEE24F794E79487010F501C4E2FE8FD
:10194000E21A2BEEF20AE016F10639F060E0C80167
:101950000E946C040F5F1F4FF6CF3C9C80013D9CA2
:10196000100D11246FEFC801805C9F4F0E946C0422
:10197000780131E4E30EF11C075A1F4F0E151F05C5
:1019800041F060E0C7010E946C048FEFE81AF80A8A
:10199000F5CF83E791E00E94B20461CF91110C94DE
:1019A000D70C803219F089508550C8F708959927CF
:1019B000882708952F923F924F925F926F927F9265
:1019C0008F929F92AF92BF92CF92DF92EF92FF924F
:1019D0000F931F93CF93DF93CDB7DEB7CA1BDB0BFB
:1019E0000FB6F894DEBF0FBECDBF09942A883988A0
:1019F00048885F846E847D848C849B84AA84B984A7
:101A0000C884DF80EE80FD800C811B81AA81B981B2
:101A1000CE0FD11D0FB6F894DEBF0FBECDBFED01C6
:101A2000089597FB072E16F4009407D077FD09D090
:101A30000E94250D07FC05D03EF4909581959F4F9F
:101A40000895709561957F4F0895AA1BBB1B51E1C6
:101A500007C0AA1FBB1FA617B70710F0A61BB70B1E
:101A6000881F991F5A95A9F780959095BC01CD01C3
:101A70000895EE0FFF1F0590F491E02D09940F9348
:101A80001F93CF93DF938230910510F482E090E0B2
:101A9000E0914705F091480530E020E0B0E0A0E09B
:101AA000309799F42115310509F44AC0281B390BE8
:101AB00024303105D8F58A819B816115710589F142
:101AC000FB0193838283FE0111C040815181028119
:101AD000138148175907E0F04817590799F41097F0
:101AE00061F012960C93129713961C933296CF01C5
:101AF000DF91CF911F910F910895009347051093A7
:101B00004805F4CF2115310551F04217530738F03D
:101B1000A901DB019A01BD01DF01F801C1CFEF018D
:101B2000F9CF9093480580934705CDCFFE01E20F92
:101B3000F31F819391932250310939832883D7CFA2
:101B40002091450530914605232B41F42091020157
:101B50003091030130934605209345052091000103
:101B6000309101012115310541F42DB73EB7409167
:101B7000040150910501241B350BE0914505F091BE
:101B80004605E217F307A0F42E1B3F0B2817390771
:101B900078F0AC014E5F5F4F2417350748F04E0FC9
:101BA0005F1F5093460540934505819391939FCFC6
:101BB000F0E0E0E09CCFCF93DF930097E9F0FC01E9
:101BC000329713821282A0914705B0914805ED012A
:101BD00030E020E01097A1F420813181820F931F23
:101BE00020914505309146052817390709F061C055
:101BF000F0934605E0934505DF91CF910895EA0102
:101C0000CE17DF07E8F54A815B819E01411551053A
:101C1000B1F7E901FB83EA8349915991C40FD51FBC
:101C2000EC17FD0761F4808191810296840F951F66
:101C3000E90199838883828193819B838A83F0E081
:101C4000E0E012968D919C9113970097B9F52D9134
:101C50003C911197CD010296820F931F209145056B
:101C6000309146052817390739F6309751F510920B
:101C7000480510924705B0934605A0934505BCCF93
:101C8000D383C28340815181840F951FC817D90720
:101C900061F44E5F5F4F88819981480F591F5183CE
:101CA00040838A819B81938382832115310509F0CA
:101CB000B0CFF0934805E09347059ECFFD01DC01CE
:101CC000C0CF13821282D7CFB0E0A0E0EAE6FEE0F8
:101CD0000C94DC0C8C01009751F4CB010E943F0D59
:101CE0008C01C801CDB7DEB7E0E10C94F80CFC0123
:101CF000E60FF71F9C0122503109E217F30708F4A1
:101D00009DC0D901CD91DC911197C617D70798F0E6
:101D1000C530D10530F3CE0104978617970708F335
:101D2000C61BD70B2297C193D1936D937C93CF01A0
:101D30000E94DB0DD6CF5B01AC1ABD0A4C018C0EA4
:101D40009D1EA0914705B0914805512C412CF12CC6
:101D5000E12C109731F58091450590914605881545
:101D6000990509F05CC04616570608F058C08091E6
:101D7000000190910101009741F48DB79EB7409109
:101D8000040150910501841B950BE817F90708F031
:101D900055C0F0934605E0934505F90171836083D2
:101DA000A0CF8D919C91119712966C9012971396DB
:101DB0007C901397A815B90559F56C0142E0C40E43
:101DC000D11CCA14DB0420F1AC014A195B09DA0109
:101DD0001296159780F06282738251834083D901F5
:101DE0006D937C93E114F10471F0D7011396FC9389
:101DF000EE93129776CF22968C0F9D1FF901918357
:101E00008083F301EFCFF0934805E093470569CF56
:101E10004816590608F42C017D01D3019ACFCB0155
:101E20000E943F0D7C01009749F0AE01B8010E946D
:101E30002C0FC8010E94DB0D870153CF10E000E09A
:101E400050CF85FD0C94D70C806291110C94D70C67
:101E500081568A51D8F70895FB01DC0102C0019038
:101E60000D9241505040D8F70895FB01DC018D914F
:101E7000019080190110D9F3990B0895FB01DC0141
:0E1E800001900D920020E1F70895F894FFCF35
:101E8E0000004905800000000000070227015401F0
:101E9E005402C5016301B7010000000038040B04B1
:101EAE009404E1030404F103E2030D0A0061646487
:101EBE000044617461207772697474656E20746F6A
:101ECE0020454550524F4D2073756363657373669D
:101EDE00756C6C792E0072656164005265636F7269
:101EEE0064206E6F7420666F756E640064656C6539
:0C1EFE0074650064656C65746564000028
:00000001FF
