:100000000C9458000C9480000C9480000C94800098
:100010000C9480000C9480000C9480000C94800060
:100020000C9480000C9480000C9480000C94800050
:100030000C9480000C9480000C9480000C94800040
:100040000C946A060C9480000C94DA060C94B406A6
:100050000C9480000C9480000C9480000C94800020
:100060000C940C070C948000000000002500280070
:100070002B00040404040404040402020202020229
:10008000030303030303010204081020408001025C
:1000900004081020010204081020000000080002DB
:1000A00001000003040700000000000000002B080E
:1000B00011241FBECFEFD8E0DEBFCDBF22E0A2E506
:1000C000B1E001C01D92A23CB207E1F711E0A0E04F
:1000D000B1E0E8E3F7E102C005900D92A235B10767
:1000E000D9F710E0C8E5D0E004C02197FE010E94D6
:1000F0008E09C735D107C9F70E9464080C949A0B82
:100100000C94000090E0FC01E656FF4F2491FC01A6
:10011000EA57FF4F3491FC01EE58FF4FE491EE2374
:10012000C9F0222339F0233001F1A8F4213019F16C
:10013000223029F1F0E0EE0FFF1FE859FF4FA591A3
:10014000B4918FB7F894EC91611126C030953E239D
:100150003C938FBF08952730A9F02830C9F0243090
:1001600049F7809180008F7D03C0809180008F7758
:1001700080938000DFCF84B58F7784BDDBCF84B5DB
:100180008F7DFBCF8091B0008F778093B000D2CF6E
:100190008091B0008F7DF9CF3E2BDACF3FB7F89436
:1001A0008091110290911202A0911302B091140259
:1001B00026B5A89B05C02F3F19F00196A11DB11DC2
:1001C0003FBFBA2FA92F982F8827BC01CD01620FFE
:1001D000711D811D911D42E0660F771F881F991FB9
:1001E0004A95D1F70895AF92BF92CF92DF92EF92E6
:1001F000FF920F931F93CF93DF936C017B018B01D1
:10020000040F151FEB015E01AE18BF08C017D10720
:1002100059F06991D601ED91FC910190F081E02DAA
:10022000C6010995892B79F7C501DF91CF911F91FF
:100230000F91FF90EF90DF90CF90BF90AF90089517
:10024000FC01538D448D252F30E0842F90E0821BDC
:10025000930B541710F0CF96089501970895FC0161
:10026000918D828D981761F0A28DAE0FBF2FB11DB9
:100270005D968C91928D9F5F9F73928F90E0089511
:100280008FEF9FEF0895FC01918D828D981731F0CB
:10029000828DE80FF11D858D90E008958FEF9FEF1F
:1002A0000895FC01918D228D892F90E0805C9F4FF5
:1002B000821B91098F739927089585E192E00E942E
:1002C000510121E0892B09F420E0822F089580E07C
:1002D00090E0892B29F00E945D0181110C940000AF
:1002E0000895FC01A48DA80FB92FB11DA35ABF4FCB
:1002F0002C91848D90E001968F739927848FA68925
:10030000B7892C93A089B1898C91837080648C9378
:10031000938D848D981306C00288F389E02D808127
:100320008F7D80830895EF92FF920F931F93CF9359
:10033000DF93EC0181E0888F9B8D8C8D98131AC020
:10034000E889F989808185FF15C09FB7F894EE8907
:10035000FF896083E889F989808183708064808364
:100360009FBF81E090E0DF91CF911F910F91FF90AF
:10037000EF900895F62E0B8D10E00F5F1F4F0F7357
:100380001127E02E8C8D8E110CC00FB607FCFACF12
:10039000E889F989808185FFF5CFCE010E9471013E
:1003A000F1CFEB8DEC0FFD2FF11DE35AFF4FF082E3
:1003B0009FB7F8940B8FEA89FB8980818062CFCF49
:1003C000CF93DF93EC01888D8823B9F0AA89BB898C
:1003D000E889F9898C9185FD03C0808186FD0DC077
:1003E0000FB607FCF7CF8C9185FFF2CF808185FF98
:1003F000EDCFCE010E947101E9CFDF91CF91089539
:100400002091C001260F3327331F21323105ECF430
:100410002091E601FC0190E080E0243069F082E068
:100420000895A091C0012191AC0142565E4FA40FE6
:10043000B52FB11D2C930196861798F38091C001BA
:10044000680F6093C00180E0089581E008951092E4
:10045000E60181E08093E8011092E70161E082E12A
:100460000E94820061E083E10E948200E9EBF0E0FB
:1004700080818E7F808380818D7F808388E48093DC
:10048000B80085E48093BC000895CF93DF9391E09A
:1004900090939D018823B9F0C091B800D091BA0023
:1004A0008091BC008A7B8093BC0060E082E10E9466
:1004B000820060E083E10E9482000E942702D093C4
:1004C000BA00C093B800DF91CF91089508950895C0
:1004D0000895E091950180919401E81730F4F0E0DF
:1004E000EC58FE4F808190E008958FEF9FEF0895C4
:1004F00090919501809194012FEF3FEF981748F468
:10050000E92FF0E0EC58FE4F208130E09F5F9093A0
:100510009501C90108958091940190919501891BDD
:10052000990B0895CF92DF92EF92FF920F931F9352
:10053000CF93DF937C01CB018A01209173012223A9
:1005400089F0EB016B01C40ED51ECC15DD0569F0F9
:100550006991D701ED91FC910190F081E02DC701E7
:100560000995F3CF642F0E940002C801DF91CF915B
:100570001F910F91FF90EF90DF90CF900895CF9350
:10058000DF931F92CDB7DEB76983209173012223D9
:10059000F9F020919601203258F021E030E0FC0182
:1005A0003383228390E080E00F90DF91CF91089514
:1005B00080919701E82FF0E0ED5AFE4F99819083EA
:1005C0008F5F809397018093960181E090E0ECCF5C
:1005D00061E0CE0101960E940002F7CF90E080E03A
:1005E0000895FC0180819181009711F00C94300AEC
:1005F00008950F931F93CF93DF93EC018881998126
:10060000009759F02A813B812617370730F081E0A7
:10061000DF91CF911F910F9108958B016F5F7F4FF5
:100620000E94B90A009759F0998388831B830A8333
:100630002C813D81232B59F7FC011082E8CF80E00B
:10064000E7CFEF92FF920F931F93CF93DF93EC01CD
:100650007B018A01BA010E94F90228813981811146
:1006600014C02115310519F0C9010E94300A198200
:1006700018821D821C821B821A82CE01DF91CF91CB
:100680001F910F91FF90EF9008951D830C83B70188
:10069000C9010E94930BF1CFFC01118210821382D9
:1006A000128215821482FB0101900020E9F7319734
:1006B000AF01461B570B0C94210385ED8093BC00C2
:1006C0008091990190919A01A0919B01B0919C0118
:1006D0000796A11DB11D23E0B695A795979587951F
:1006E0002A95D1F72091BC0024FD03C01092E601A9
:1006F00008954091990150919A0160919B017091E8
:100700009C01452B462B472B69F30097A105B105AA
:1007100041F02AE22A95F1F700C00197A109B10939
:10072000E1CF809198010C9445022F923F924F9215
:100730005F926F927F928F929F92AF92BF92CF9271
:10074000DF92EF92FF920F931F93CF93DF93CDB77A
:10075000DEB7A0970FB6F894DEBF0FBECDBF8C01F9
:1007600078A36F8F109295011092940110929701C7
:10077000109296010E94270286E692E09093BF01B4
:100780008093BE0187E692E09093C3018093C201FB
:1007900061E571E0CE0149960E944C0387E5E82EA1
:1007A000F12C9924939488248A94170127E1221A22
:1007B000310850E040E061E571E0CE0149960E94C9
:1007C0002103670186E1C81AD108EC14FD040CF47A
:1007D000EEC19092730190E59093520110929701AF
:1007E000109296016D2D82EB92E00E94BF026C2D5B
:1007F00082EB92E00E94BF02B0909601E0E2EB151E
:1008000008F48EC00E94CE002B013C018091E601CD
:10081000811161C0F2E0F093E6019092E8018092CC
:10082000E50110920A02B0920902E3E5F1E0A9EEB7
:10083000B1E0B812E5C010920B0280910B02806A01
:1008400080930B028091E701813009F0DDC01092A6
:10085000E7010E94CE002B013C0180910B028093A6
:10086000BB008091990190919A01A0919B01B09158
:100870009C01892B8A2B8B2B99F00E94CE00209112
:10088000990130919A0140919B0150919C0164190A
:100890007509860997092617370748075907E0F1B0
:1008A0008091BC0083FDD9CF25EC2093BC000E9431
:1008B000CE002B013C018091E601823009F4A8C0F2
:1008C0008091E5018F3F61F18091E501803241F136
:1008D0008091E50125C08091990190919A01A091A4
:1008E0009B01B0919C01892B8A2B8B2B09F48ECF15
:1008F0000E94CE002091990130919A0140919B0174
:1009000050919C01641975098609970926173707C4
:100910004807590708F07ACF809198010E94450254
:100920001092970110929601109273010E94CE00CE
:100930002B013C018091E60181118CC09092E6016F
:100940009092E8018092E50110920A021092090249
:1009500090920B0280910B02806A80930B0280912F
:10096000E701813009F0E7C01092E7010E94CE0054
:100970002B013C0180910B028093BB008091990177
:1009800090919A01A0919B01B0919C01892B8A2B97
:100990008B2BA1F00E94CE002091990130919A01F9
:1009A00040919B0150919C01641975098609970932
:1009B000261737074807590708F46DC08091BC0017
:1009C00083FDD8CF95EC9093BC000E94CE002B0104
:1009D0003C018091E601813009F4B1C080910A02A6
:1009E0008111CFC080910A02A9EEB1E0E4E7F1E005
:1009F00090E0981709F454C02D9121939F5FF9CF8F
:100A000091919D938F5F15CF85EE8093BC004FCF62
:100A10008091990190919A01A0919B01B0919C01C4
:100A2000892B8A2B8B2B09F446CF0E94CE00209174
:100A3000990130919A0140919B0150919C01641958
:100A4000750986099709261737074807590708F0D7
:100A500032CF62CF8091990190919A01A0919B0130
:100A6000B0919C01892B8A2B8B2B09F463CF0E94B8
:100A7000CE002091990130919A0140919B015091B3
:100A80009C016419750986099709261737074807D5
:100A9000590708F04FCF809198010E94450280E0ED
:100AA000109295018093940182EB92E00E9478026B
:100AB000B82EF0E2F81708F076C0082E000C990B5B
:100AC0000E94790B892BE1F08D8D9E8DB9821A825F
:100AD0005C012FEFA21AB20AB501CE0149960E941D
:100AE000F902882369F0298D3A8D8D8D9E8DBE0186
:100AF0006F5F7F4F820F931F0E94930BBE8EAD8E50
:100B00002D8D3E8DEF8DF8A18481958128173907B1
:100B100009F049C0898D9A8D60817181009709F42F
:100B200055C06115710579F5232B09F45CC0FC01F2
:100B3000808190E056C0E5EEE093BC0046CF809106
:100B4000990190919A01A0919B01B0919C01892BF0
:100B50008A2B8B2B09F43DCF0E94CE002091990166
:100B600030919A0140919B0150919C016419750943
:100B700086099709261737074807590708F029CF2C
:100B80008ACF81E031CF0E948A0B2BC089819A8164
:100B9000009711F00E94300A1A8219821E821D826B
:100BA0001C821B8261C0FFEFCF1ADF0A0ECE28E144
:100BB000E20EF11C87EDE81683E1F80609F0F5CDA9
:100BC0006DE371E0C8010E944C0366C061157105B8
:100BD00051F0232B41F0FB01808190E091958195AC
:100BE0009109892B01F71C8A1B8A1E8A1D8A188E7F
:100BF0001F8A4AE0CE0101967C01BC01C1010E941E
:100C00001F09F70101900020E9F73197AF014E1954
:100C10005F09B701CE0143960E9421036AE271E0A9
:100C2000C7010E944C03AB88BC88A114B10409F42D
:100C3000ADCFCF88D88CC114D104B1F08D819E8105
:100C4000C80ED91EB601C7010E94F902882309F413
:100C50009DCF29813A818D819E81B501820F931F9D
:100C60000E94930BDE82CD82F801118210821382E2
:100C700012821582148269817A816115710529F0C9
:100C80004D815E81C8010E942103C7010E94F102CB
:100C9000CE0143960E94F102CE0149960E94F102D4
:100CA000C801A0960FB6F894DEBF0FBECDBFDF918E
:100CB000CF911F910F91FF90EF90DF90CF90BF9059
:100CC000AF909F908F907F906F905F904F903F90EC
:100CD0002F9008951F920F920FB60F9211242F9309
:100CE0003F938F939F93AF93BF9380910D02909109
:100CF0000E02A0910F02B091100230910C0223E07D
:100D0000230F2D3758F50196A11DB11D20930C021C
:100D100080930D0290930E02A0930F02B0931002E5
:100D20008091110290911202A0911302B0911402CD
:100D30000196A11DB11D8093110290931202A09300
:100D40001302B0931402BF91AF919F918F913F9185
:100D50002F910F900FBE0F901F90189526E8230F2C
:100D60000296A11DB11DD2CF1F920F920FB60F9206
:100D700011242F933F934F935F936F937F938F93A0
:100D80009F93AF93BF93EF93FF9385E192E00E940F
:100D90007101FF91EF91BF91AF919F918F917F91E1
:100DA0006F915F914F913F912F910F900FBE0F90D8
:100DB0001F9018951F920F920FB60F9211242F9328
:100DC0008F939F93EF93FF93E0912502F09126027A
:100DD0008081E0912B02F0912C0282FD1BC090815A
:100DE00080912E028F5F8F7320912F02821741F026
:100DF000E0912E02F0E0EB5EFD4F958F80932E0286
:100E0000FF91EF919F918F912F910F900FBE0F90B7
:100E10001F9018958081F4CF1F920F920FB60F92FA
:100E200011242F933F934F935F936F937F938F93EF
:100E30009F93AF93BF93EF93FF938091B900887F07
:100E4000803609F44AC0F0F5883209F4A7C018F5D5
:100E5000803109F49BC0B8F4882309F4F9C08830C4
:100E600009F494C0FF91EF91BF91AF919F918F9141
:100E70007F916F915F914F913F912F910F900FBE96
:100E80000F901F901895883109F488C0803251F76F
:100E90008093E50114C0803409F49DC040F4803390
:100EA000B9F38833F9F68093E50185ECB0C080355D
:100EB00009F485C0883509F496C0883499F60E94F3
:100EC0005D03D0CF883909F48CC038F5883729F014
:100ED00050F4883611F0803729F683E08093E601DC
:100EE0001092E40157C0883809F47BC0803919F0AA
:100EF000803809F0B7CF8091E401803208F071C0EA
:100F0000E091E40181E08E0F8093E4018091BB00C9
:100F1000F0E0EC53FE4F80833DC0803B39F0E0F4BD
:100F2000803A09F479C0883A09F09CCF84E0809334
:100F3000E6011092C1011092C001E091BE01F09152
:100F4000BF0109958091C00181110FC081E080939C
:100F5000C00110929E0109C0803C09F4A6CF883CD4
:100F600009F4A3CF883B09F07DCFE091C10181E076
:100F70008E0F8093C101F0E0E256FE4F8081809396
:100F8000BB009091C1018091C00129C080910B02EA
:100F90008093BB0085EC8093BC0064CF90910A02E3
:100FA00080910902981758F5E0910A0281E08E0FAE
:100FB00080930A02F0E0E751FE4F8081E9CFE09193
:100FC0000A0281E08E0F80930A028091BB00F0E05C
:100FD000E751FE4F808390910A0280910902981791
:100FE000C8F285E8D8CFE0910A0281E08E0F8093A5
:100FF0000A028091BB00F0E0E751FE4F80838091B0
:10100000E80181115CCF81E08093E70184EA80935D
:10101000BC001092E60126CF85EC8093BC001092B4
:10102000E6018091E401803230F4E091E401F0E0E7
:10103000EC53FE4F10826091E40170E0E091C20138
:10104000F091C30184EC91E009951092E4010ACF7C
:101050001092E50134CFE5E1F2E01382128288EECE
:1010600093E0A0E0B0E084839583A683B7832AE071
:1010700031E03183208325EC30E03587248724EC70
:1010800030E03787268720EC30E0318B208B21EC55
:1010900030E0338B228B22EC30E0358B248B26EC36
:1010A00030E0378B268B118E128E138E148EE2EB6E
:1010B000F2E01382128284839583A683B7838CE146
:1010C00091E0918380830895CF93DF93CDB7DEB70E
:1010D0002C970FB6F894DEBF0FBECDBF789484B5C1
:1010E000826084BD84B5816084BD85B5826085BD24
:1010F00085B5816085BD80916E00816080936E00B2
:1011000010928100809181008260809381008091A3
:101110008100816080938100809180008160809354
:1011200080008091B10084608093B1008091B00014
:1011300081608093B00080917A00846080937A000F
:1011400080917A00826080937A0080917A00816039
:1011500080937A0080917A00806880937A00109260
:10116000C100E0912502F091260282E08083E091A7
:101170002102F09122021082E0912302F0912402D8
:101180008FEC808310922D02E0912902F0912A02C7
:1011900086E08083E0912702F091280280818061BF
:1011A0008083E0912702F09128028081886080830B
:1011B000E0912702F0912802808180688083E0918D
:1011C0002702F091280280818F7D808318861F82FC
:1011D0001A8619861C861B8647E050E067E471E09A
:1011E000CE0107960E942103BE01695F7F4FCE01A9
:1011F00001960E9495034D815E8169817A8185E126
:1012000092E00E94F30042E050E06FE471E085E17B
:1012100092E00E94F300CE0101960E94F102CE01FD
:1012200007960E94F10200E010E001151105E9F3B4
:101230000E945D018823C9F30E940000F6CFBB27FE
:101240004A3031F4992322F4BDE2909581959F4F65
:101250000C942B09BB27FB015527AA27880F991F40
:10126000AA1FA41710F0A41B83955051B9F7A05DD5
:10127000AA3308F0A95DA193009779F7B111B19352
:101280001192CB010C944409DC01FC01672F719190
:101290007723E1F7329704C07C916D93708362915C
:1012A000AE17BF07C8F308959927882708952F928E
:1012B0003F924F925F926F927F928F929F92AF92E6
:1012C000BF92CF92DF92EF92FF920F931F93CF9333
:1012D000DF93CDB7DEB7CA1BDB0B0FB6F894DEBFCA
:1012E0000FBECDBF09942A88398848885F846E84F0
:1012F0007D848C849B84AA84B984C884DF80EE803A
:10130000FD800C811B81AA81B981CE0FD11D0FB642
:10131000F894DEBF0FBECDBFED010895EE0FFF1FA5
:101320000590F491E02D09940F931F93CF93DF93D1
:101330008230910510F482E090E0E091C002F091DB
:10134000C10230E020E0B0E0A0E0309799F4211530
:10135000310509F44AC0281B390B24303105D8F572
:101360008A819B816115710589F1FB0193838283D9
:10137000FE0111C040815181028113814817590734
:10138000E0F04817590799F4109761F012960C9302
:10139000129713961C933296CF01DF91CF911F9134
:1013A0000F9108950093C0021093C102F4CF21154C
:1013B000310551F04217530738F0A901DB019A01BA
:1013C000BD01DF01F801C1CFEF01F9CF9093C10258
:1013D0008093C002CDCFFE01E20FF31F8193919362
:1013E0002250310939832883D7CF2091BE02309112
:1013F000BF02232B41F4209102013091030130936D
:10140000BF022093BE0220910001309101012115FD
:10141000310541F42DB73EB74091040150910501CB
:10142000241B350BE091BE02F091BF02E217F307D7
:10143000A0F42E1B3F0B2817390778F0AC014E5F44
:101440005F4F2417350748F04E0F5F1F5093BF02C0
:101450004093BE02819391939FCFF0E0E0E09CCF58
:10146000CF93DF930097E9F0FC0132971382128249
:10147000A091C002B091C102ED0130E020E01097D0
:10148000A1F420813181820F931F2091BE023091FF
:10149000BF022817390709F061C0F093BF02E0933B
:1014A000BE02DF91CF910895EA01CE17DF07E8F57C
:1014B0004A815B819E0141155105B1F7E901FB832A
:1014C000EA8349915991C40FD51FEC17FD0761F4C8
:1014D000808191810296840F951FE9019983888309
:1014E000828193819B838A83F0E0E0E012968D9164
:1014F0009C9113970097B9F52D913C911197CD01CF
:101500000296820F931F2091BE023091BF022817CE
:10151000390739F6309751F51092C1021092C00286
:10152000B093BF02A093BE02BCCFD383C2834081DD
:101530005181840F951FC817D90761F44E5F5F4F23
:1015400088819981480F591F518340838A819B81EB
:10155000938382832115310509F0B0CFF093C10246
:10156000E093C0029ECFFD01DC01C0CF1382128246
:10157000D7CFB0E0A0E0EFEBFAE00C9459098C0172
:10158000009751F4CB010E9494098C01C801CDB79A
:10159000DEB7E0E10C947509FC01E60FF71F9C0132
:1015A00022503109E217F30708F49DC0D901CD910B
:1015B000DC911197C617D70798F0C530D10530F3E5
:1015C000CE0104978617970708F3C61BD70B2297FF
:1015D000C193D1936D937C93CF010E94300AD6CFF3
:1015E0005B01AC1ABD0A4C018C0E9D1EA091C0027D
:1015F000B091C102512C412CF12CE12C109731F506
:101600008091BE029091BF028815990509F05CC0D7
:101610004616570608F058C08091000190910101CC
:10162000009741F48DB79EB7409104015091050198
:10163000841B950BE817F90708F055C0F093BF021B
:10164000E093BE02F90171836083A0CF8D919C91DC
:10165000119712966C90129713967C901397A81579
:10166000B90559F56C0142E0C40ED11CCA14DB0463
:1016700020F1AC014A195B09DA011296159780F046
:101680006282738251834083D9016D937C93E1140C
:10169000F10471F0D7011396FC93EE93129776CF75
:1016A00022968C0F9D1FF90191838083F301EFCF68
:1016B000F093C102E093C00269CF4816590608F4BE
:1016C0002C017D01D3019ACFCB010E9494097C01AA
:1016D000009749F0AE01B8010E94810BC8010E9439
:1016E000300A870153CF10E000E050CF85FD0C9405
:1016F0005409806291110C94540981568A51D8F78B
:101700000895FB01DC0102C001900D924150504050
:10171000D8F70895FB01DC018D910190801901102B
:10172000D9F3990B0895FB01DC0101900D92002083
:08173000E1F70895F894FFCFE2
:101738000000C2028000000000009301F3002001B5
:10174800E00151012F01430100000000BF02920295
:10175800EE0268028B0278026902466F756E642099
:10176800617420616464726573733A20006E6F74EB
:1017780020666F756E640063686174677074000D2D
:021788000A0055
:00000001FF
