:100000000C9458000C9480000C9480000C94800098
:100010000C9480000C9480000C9480000C94800060
:100020000C9480000C9480000C9480000C94800050
:100030000C9480000C9480000C9480000C94800040
:100040000C94C9040C9480000C9439050C9413058D
:100050000C9480000C9480000C9480000C94800020
:100060000C946B050C948000000000002500280013
:100070002B00040404040404040402020202020229
:10008000030303030303010204081020408001025C
:1000900004081020010204081020000000080002DB
:1000A00001000003040700000000000000008A06B1
:1000B00011241FBECFEFD8E0DEBFCDBF11E0A0E01E
:1000C000B1E0E6E9F2E102C005900D92A037B10778
:1000D000D9F725E0A0E7B1E001C01D92A833B2072F
:1000E000E1F710E0C8E5D0E004C02197FE010E94CE
:1000F0004309C735D107C9F70E94C3060C944909C3
:100100000C94000090E0FC01E656FF4F2491FC01A6
:10011000EA57FF4F3491FC01EE58FF4FE491EE2374
:10012000C9F0222339F0233001F1A8F4213019F16C
:10013000223029F1F0E0EE0FFF1FE859FF4FA591A3
:10014000B4918FB7F894EC91611126C030953E239D
:100150003C938FBF08952730A9F02830C9F0243090
:1001600049F7809180008F7D03C0809180008F7758
:1001700080938000DFCF84B58F7784BDDBCF84B5DB
:100180008F7DFBCF8091B0008F778093B000D2CF6E
:100190008091B0008F7DF9CF3E2BDACF3FB7F89436
:1001A00080913B0490913C04A0913D04B0913E04A9
:1001B00026B5A89B05C02F3F19F00196A11DB11DC2
:1001C0003FBFBA2FA92F982F8827BC01CD01620FFE
:1001D000711D811D911D42E0660F771F881F991FB9
:1001E0004A95D1F708958F929F92AF92BF92CF9286
:1001F000DF92EF92FF924B015C010E94CE006B01F7
:100200007C010E94CE006C197D098E099F09683E11
:10021000734081059105A8F321E0821A9108A10895
:10022000B10888EEC80E83E0D81EE11CF11C8114D1
:100230009104A104B10429F7FF90EF90DF90CF90D3
:10024000BF90AF909F908F90089508950895AF92BA
:10025000BF92CF92DF92EF92FF920F931F93CF93B3
:10026000DF936C017B018B01040F151FEB015E0115
:10027000AE18BF08C017D10759F06991D601ED91AA
:10028000FC910190F081E02DC6010995892B79F749
:10029000C501DF91CF911F910F91FF90EF90DF90FB
:1002A000CF90BF90AF900895FC01538D448D252FC2
:1002B00030E0842F90E0821B930B541710F0CF9600
:1002C000089501970895FC01918D828D981761F032
:1002D000A28DAE0FBF2FB11D5D968C91928D9F5F49
:1002E0009F73928F90E008958FEF9FEF0895FC0128
:1002F000918D828D981731F0828DE80FF11D858DDB
:1003000090E008958FEF9FEF0895FC01918D228D6D
:10031000892F90E0805C9F4F821B91098F739927F2
:1003200008958FE894E00E94850121E0892B09F46B
:1003300020E0822F089580E090E0892B29F00E9430
:10034000910181110C9400000895FC01A48DA80F67
:10035000B92FB11DA35ABF4F2C91848D90E0019607
:100360008F739927848FA689B7892C93A089B18927
:100370008C91837080648C93938D848D981306C0C8
:100380000288F389E02D80818F7D80830895EF922C
:10039000FF920F931F93CF93DF93EC0181E0888F3F
:1003A0009B8D8C8D98131AC0E889F989808185FF0F
:1003B00015C09FB7F894EE89FF896083E889F989B1
:1003C00080818370806480839FBF81E090E0DF91B3
:1003D000CF911F910F91FF90EF900895F62E0B8D06
:1003E00010E00F5F1F4F0F731127E02E8C8D8E11C1
:1003F0000CC00FB607FCFACFE889F989808185FF28
:10040000F5CFCE010E94A501F1CFEB8DEC0FFD2FB2
:10041000F11DE35AFF4FF0829FB7F8940B8FEA89E2
:10042000FB8980818062CFCFCF93DF93EC01888DF1
:100430008823B9F0AA89BB89E889F9898C9185FD5F
:1004400003C0808186FD0DC00FB607FCF7CF8C91ED
:1004500085FFF2CF808185FFEDCFCE010E94A501FF
:10046000E9CFDF91CF91089520919101260F332795
:10047000331F21323105ECF420916504FC0190E03A
:1004800080E0243069F082E00895A09191012191EB
:10049000AC014F585E4FA40FB52FB11D2C930196A0
:1004A000861798F380919101680F6093910180E025
:1004B000089581E008951092650481E080936404BA
:1004C00010923F0461E082E10E94820061E083E1DA
:1004D0000E948200E9EBF0E080818E7F8083808142
:1004E0008D7F808388E48093B80085E48093BC008E
:1004F0000895CF93DF9391E0909370018823B9F032
:10050000C091B800D091BA008091BC008A7B8093E2
:10051000BC0060E082E10E94820060E083E10E9412
:1005200082000E945B02D093BA00C093B800DF91B2
:10053000CF9108958F929F92AF92BF92CF92DF9208
:10054000EF92FF920F931F93CF93DF93D0918E047E
:10055000D13208F0D7C0182FC0918D040E94CE0070
:100560006B017C018091650481116BC082E08093F6
:100570006504109364048FEF809363041092620407
:10058000D0936104ADE6B4E0E1E4F4E080E0D81398
:1005900091C01092400480914004CC0FC82BC093AE
:1005A000400480913F04813009F088C010923F04DC
:1005B0000E94CE006B017C01809140048093BB00BF
:1005C0008091670490916804A0916904B0916A04D5
:1005D000892B8A2B8B2BA1F00E94CE0000916704FF
:1005E000109168042091690430916A046C197D09A6
:1005F0008E099F09061717072807390708F442C014
:100600008091BC0083FDD8CF85EC8093BC000E9414
:10061000CE006B017C0180916504823009F450C0EA
:10062000809163048F3F09F46FC08091630480322E
:1006300009F46CC080916304803309F469C084E0DC
:1006400026C08091670490916804A0916904B091DC
:100650006A04892B8A2B8B2B09F484CF0E94CE004D
:100660008090670490906804A0906904B0906A0438
:100670006C197D098E099F0986169706A806B9068A
:1006800008F070CF809166040E94790285E0109294
:100690006C0410928E0410926B04DF91CF911F9125
:1006A0000F91FF90EF90DF90CF90BF90AF909F9011
:1006B0008F9008959D9191938F5F69CF85EEA5CF1F
:1006C0008091670490916804A0916904B0916A04D4
:1006D000892B8A2B8B2B09F49ECF0E94CE00009190
:1006E0006704109168042091690430916A046C19C0
:1006F0007D098E099F09061717072807390708F093
:100700008ACFC0CF81E0C3CF80E0C1CF82E0BFCF2E
:1007100083E0BDCF0895E091340480913304E8175D
:1007200030F4F0E0EC54FE4F808190E008958FEFBC
:100730009FEF089590913404809133042FEF3FEFA1
:10074000981748F4E92FF0E0EC54FE4F208130E098
:100750009F5F90933404C901089580913304909170
:100760003404891B990B0895CF92DF92EF92FF9288
:100770000F931F93CF93DF937C01CB018A012091CC
:100780006B04222389F0EB016B01C40ED51ECC153E
:10079000DD0569F06991D701ED91FC910190F0813F
:1007A000E02DC7010995F3CF642F0E943402C801E0
:1007B000DF91CF911F910F91FF90EF90DF90CF903D
:1007C0000895CF93DF931F92CDB7DEB76983209151
:1007D0006B042223F9F020918E04203258F021E09E
:1007E00030E0FC013383228390E080E00F90DF91C2
:1007F000CF91089580916C04E82FF0E0E359FB4F0E
:10080000998190838F5F80936C0480938E0481E044
:1008100090E0ECCF61E0CE0101960E943402F7CF68
:10082000682F8CE295E00C94E1031F93CF93DF9344
:10083000EC01162F81E080936B0480E580938D049A
:1008400010926C0410928E048D2F90E00E94100480
:10085000CE0199270E941004612F8CE295E00E943E
:10086000E10381E00E949A0265E070E080E090E0A0
:10087000DF91CF911F910C94F30090E080E00895F8
:10088000FC0101900020E9F73197AF01481B590B9B
:10089000BC018FE894E00C9427018F929F92AF9255
:1008A000BF920F931F93CF93DF93CDB7DEB7A1977E
:1008B0000FB6F894DEBF0FBECDBF19A2423008F4C8
:1008C0004AE08E010F5D1F4F842E912CB12CA12C7C
:1008D000A50194010E942109E62FB901CA01EA305D
:1008E000F4F4E05DD801EE938D01232B242B252B0E
:1008F00079F790E080E0109719F0CD010E94400454
:10090000A1960FB6F894DEBF0FBECDBFDF91CF9199
:100910001F910F91BF90AF909F908F900895E95CC9
:10092000E1CF85ED8093BC008091670490916804CD
:10093000A0916904B0916A040796A11DB11D23E03E
:10094000B695A795979587952A95D1F72091BC00E4
:1009500024FD03C0109265040895409167045091EE
:1009600068046091690470916A04452B462B472BFB
:1009700069F30097A105B10541F02AE22A95F1F744
:1009800000C00197A109B109E1CF809166040C94E0
:1009900079021F920F920FB60F9211242F933F935B
:1009A0008F939F93AF93BF938091370490913804B6
:1009B000A0913904B0913A043091360423E0230F1A
:1009C0002D3758F50196A11DB11D20933604809353
:1009D000370490933804A0933904B0933A0480917B
:1009E0003B0490913C04A0913D04B0913E040196DB
:1009F000A11DB11D80933B0490933C04A0933D0442
:100A0000B0933E04BF91AF919F918F913F912F91F1
:100A10000F900FBE0F901F90189526E8230F029697
:100A2000A11DB11DD2CF1F920F920FB60F921124AC
:100A30002F933F934F935F936F937F938F939F93E6
:100A4000AF93BF93EF93FF938FE894E00E94A501CB
:100A5000FF91EF91BF91AF919F918F917F916F9196
:100A60005F914F913F912F910F900FBE0F901F906C
:100A700018951F920F920FB60F9211242F938F93F8
:100A80009F93EF93FF93E0919F04F091A0048081E6
:100A9000E091A504F091A60482FD1BC09081809195
:100AA000A8048F5F8F732091A904821741F0E09111
:100AB000A804F0E0E157FB4F958F8093A804FF91C5
:100AC000EF919F918F912F910F900FBE0F901F90DC
:100AD00018958081F4CF1F920F920FB60F921124B8
:100AE0002F933F934F935F936F937F938F939F9336
:100AF000AF93BF93EF93FF938091B900887F8036C7
:100B000009F44AC0F0F5883209F4A7C018F580311D
:100B100009F49BC0B8F4882309F4F9C0883009F4BB
:100B200094C0FF91EF91BF91AF919F918F917F9171
:100B30006F915F914F913F912F910F900FBE0F904A
:100B40001F901895883109F488C0803251F780933E
:100B5000630414C0803409F49DC040F48033B9F3B9
:100B60008833F9F68093630485ECB0C0803509F4CE
:100B700085C0883509F496C0883499F60E9491049E
:100B8000D0CF883909F48CC038F5883729F050F473
:100B9000883611F0803729F683E08093650410923F
:100BA000B30157C0883809F47BC0803919F0803808
:100BB00009F0B7CF8091B301803208F071C0E091A5
:100BC000B30181E08E0F8093B3018091BB00F0E010
:100BD000ED56FE4F80833DC0803B39F0E0F4803A13
:100BE00009F479C0883A09F09CCF84E080936504C9
:100BF0001092920110929101E0913104F09132042F
:100C000009958091910181110FC081E0809391013C
:100C10001092710109C0803C09F4A6CF883C09F408
:100C2000A3CF883B09F07DCFE091920181E08E0F48
:100C300080939201F0E0EF58FE4F80818093BB00DB
:100C4000909192018091910129C0809140048093FC
:100C5000BB0085EC8093BC0064CF909162048091CE
:100C60006104981758F5E091620481E08E0F80933B
:100C70006204F0E0EF5BFB4F8081E9CFE09162041A
:100C800081E08E0F809362048091BB00F0E0EF5B07
:100C9000FB4F808390916204809161049817C8F2A1
:100CA00085E8D8CFE091620481E08E0F80936204E2
:100CB0008091BB00F0E0EF5BFB4F80838091640488
:100CC00081115CCF81E080933F0484EA8093BC0073
:100CD0001092650426CF85EC8093BC0010926504C9
:100CE0008091B301803230F4E091B301F0E0ED5631
:100CF000FE4F10826091B30170E0E0912F04F091FB
:100D0000300483E991E009951092B3010ACF109263
:100D1000630434CFEFE8F4E01382128288EE93E0AC
:100D2000A0E0B0E084839583A683B78324E031E01C
:100D30003183208325EC30E03587248724EC30E0B4
:100D40003787268720EC30E0318B208B21EC30E098
:100D5000338B228B22EC30E0358B248B26EC30E079
:100D6000378B268B118E128E138E148EECE2F5E0EB
:100D70001382128284839583A683B78386E191E0F0
:100D8000918380830895789484B5826084BD84B50E
:100D9000816084BD85B5826085BD85B5816085BD76
:100DA00080916E00816080936E001092810080912E
:100DB00081008260809381008091810081608093B6
:100DC0008100809180008160809380008091B100DB
:100DD00084608093B1008091B00081608093B00006
:100DE00080917A00846080937A0080917A0082609A
:100DF00080937A0080917A00816080937A0080915C
:100E00007A00806880937A001092C100E0919F047C
:100E1000F091A00482E08083E0919B04F0919C0417
:100E20001082E0919D04F0919E048FEC80831092DB
:100E3000A704E091A304F091A40486E08083E091EC
:100E4000A104F091A204808180618083E091A104DB
:100E5000F091A204808188608083E091A104F091E8
:100E6000A204808180688083E091A104F091A204B3
:100E700080818F7D8083109234041092330410920D
:100E80006C0410928E040E945B0285E291E09093C4
:100E900032048093310486E291E090933004809391
:100EA0002F0460E081E090E00E94150481E08093CF
:100EB0006B0480E580938D0410926C0410928E0474
:100EC00090E080E00E94100481E090E00E94100415
:100ED00081E00E949A020E94CE006B017C01809109
:100EE0006504811163C081E080936504809364048C
:100EF0009FEF9093630410926204109261048093B8
:100F0000400480914004806A8093400480913F04B3
:100F1000813009F0E8C010923F040E94CE006B01BE
:100F20007C01809140048093BB0080916704909184
:100F30006804A0916904B0916A04892B8A2B8B2BD9
:100F4000A1F00E94CE0000916704109168042091E6
:100F5000690430916A046C197D098E099F0906178E
:100F600017072807390708F442C08091BC0083FDA9
:100F7000D8CF85EC8093BC000E94CE006B017C0131
:100F800080916504813009F4B0C0809162048111C0
:100F9000CEC080916204A1E4B4E0E4EBF1E090E023
:100FA000981751F12D9121939F5FFACF809167049B
:100FB00090916804A0916904B0916A04892B8A2BEE
:100FC0008B2B09F48CCF0E94CE0000916704109106
:100FD00068042091690430916A046C197D098E09B6
:100FE0009F09061717072807390708F078CF80915F
:100FF00066040E94790280E01092340480933304E6
:101000008CE295E00E949A037C0180932E0499273C
:1010100048E1E49E90011124205C3F4F9695982F63
:10102000882797958795AC0140515C4E805D9B4E1B
:1010300064E6C62E63E0D62EF60161E02F5F3F4FD7
:10104000219331936F5F6930C9F728E0209335040D
:10105000CCE9D2E0FE0120E04F5F5F4F2F5F41936C
:1010600051932830C9F720932D04E4EDF1E020E0FE
:1010700001962F5F819391932430D1F720932C0414
:1010800061E06E0D81E090E00E941504A0902D04B7
:10109000B0902C04412C512C32010A2D10E0401646
:1010A00051060CF046C08FE291E00E9440044AE0F5
:1010B000C301B2010E944D048EE391E00E944004FE
:1010C000F601619171916F0190E080E040E10E9432
:1010D0004D0481E491E00E944004FFEF4F1A5F0A43
:1010E0006F0A7F0ADCCF85EE45CF8091670490912F
:1010F0006804A0916904B0916A04892B8A2B8B2B18
:1011000009F43ECF0E94CE0000916704109168045C
:101110002091690430916A046C197D098E099F0938
:10112000061717072807390708F02ACF60CF81E094
:1011300032CF109234041092330410926C04109247
:101140008E040E945B0285E291E0909332048093CA
:10115000310486E291E09093300480932F046E2D49
:1011600080916403909165030E941504F12C8F2DEA
:1011700090E0FC01EC5BFE4F6081662391F00196EC
:10118000209135042817190661F05CF0880F991F2B
:10119000FC01EC59FC4F808191810E941504F3946D
:1011A000E6CF64EF71E080E090E00E94F3006FEF23
:1011B0006A0D80919C0290919D020E94150484E228
:1011C000C82E81E0D82E3601EE24E394F12C22962D
:1011D000E016F1065CF4F30161913F018881998189
:1011E0000E941504FFEFEF1AFF0AF1CF6FEF6B0DAE
:1011F0008091D4019091D5010E94150406ED11E073
:10120000C1E0CB1558F4F60161916F01F8018191AD
:1012100091918F010E941504CF5FF3CF8BE491E091
:101220000E94400481E491E00E944004C0E0D0E0CC
:101230002097F1F30E9491018823D1F30E940000CE
:10124000F7CFA1E21A2EAA1BBB1BFD010DC0AA1FDE
:10125000BB1FEE1FFF1FA217B307E407F50720F01F
:10126000A21BB30BE40BF50B661F771F881F991F9A
:101270001A9469F760957095809590959B01AC01E3
:10128000BD01CF010895EE0FFF1F0590F491E02DF1
:061290000994F894FFCF61
:1012960000000000C7012701540114028501630103
:1012A600770100000000E103B4033D048A03AD03A7
:1012B6009A038B034D6F68616D656445766F004CCC
:1012C6006F67696E204164647265737320003A200B
:1012D600000D0A00676974687562004461746120D4
:1012E6007772697474656E20746F20454550524F4D
:1012F6004D207375636365737366756C6C792E0028
:00000001FF
