:100000000C9458000C9480000C9480000C94800098
:100010000C9480000C9480000C9480000C94800060
:100020000C9480000C9480000C9480000C94800050
:100030000C9480000C9480000C9480000C94800040
:100040000C9488070C9480000C94F8070C94D20749
:100050000C9480000C9480000C9480000C94800020
:100060000C942A080C948000000000002500280051
:100070002B00040404040404040402020202020229
:10008000030303030303010204081020408001025C
:1000900004081020010204081020000000080002DB
:1000A00001000003040700000000000000004909EF
:1000B00011241FBECFEFD8E0DEBFCDBF25E0A4ECFA
:1000C000B1E001C01D92A139B207E1F711E0A0E053
:1000D000B1E0E2ECFFE102C005900D92A43CB10753
:1000E000D9F710E0C8E5D0E004C02197FE010E94D6
:1000F000D30DC735D107C9F70E9482090C94DF0FD1
:100100000C9400000895089590E0FC01E656FF4F1E
:100110002491FC01EA57FF4F3491FC01EE58FF4F48
:10012000E491EE23C9F0222339F0233001F1A8F441
:10013000213019F1223029F1F0E0EE0FFF1FE859CC
:10014000FF4FA591B4918FB7F894EC91611126C03F
:1001500030953E233C938FBF08952730A9F0283077
:10016000C9F0243049F7809180008F7D03C08091D1
:1001700080008F7780938000DFCF84B58F7784BD38
:10018000DBCF84B58F7DFBCF8091B0008F778093DC
:10019000B000D2CF8091B0008F7DF9CF3E2BDACF67
:1001A0003FB7F8948091860490918704A0918804C9
:1001B000B091890426B5A89B05C02F3F19F0019680
:1001C000A11DB11D3FBFBA2FA92F982F8827BC01B1
:1001D000CD01620F711D811D911D42E0660F771FD9
:1001E000881F991F4A95D1F708958F929F92AF92D9
:1001F000BF92CF92DF92EF92FF924B015C010E947F
:10020000D0006B017C010E94D0006C197D098E0921
:100210009F09683E734081059105A8F321E0821A89
:100220009108A108B10888EEC80E83E0D81EE11C31
:10023000F11C81149104A104B10429F7FF90EF90FF
:10024000DF90CF90BF90AF909F908F900895AF9226
:10025000BF92CF92DF92EF92FF920F931F93CF93B3
:10026000DF936C017B018B01040F151FEB015E0115
:10027000AE18BF08C017D10759F06991D601ED91AA
:10028000FC910190F081E02DC6010995892B79F749
:10029000C501DF91CF911F910F91FF90EF90DF90FB
:1002A000CF90BF90AF900895FC01538D448D252FC2
:1002B00030E0842F90E0821B930B541710F0CF9600
:1002C000089501970895FC01918D828D981761F032
:1002D000A28DAE0FBF2FB11D5D968C91928D9F5F49
:1002E0009F73928F90E008958FEF9FEF08952FB73F
:1002F000F89480918A0490918B04A0918C04B09121
:100300008D042FBF8093EC049093ED04A093EE0432
:10031000B093EF0484EE94E00E94630197FF26C03F
:100320002FB7F89480918A0490918B04A0918C044B
:10033000B0918D042FBF4091EC045091ED04609179
:10034000EE047091EF04841B950BA60BB70B409144
:10035000E8045091E9046091EA047091EB04841779
:100360009507A607B707B0F28FEF9FEF0895FC013E
:10037000918D828D981731F0828DE80FF11D858D5A
:1003800090E008958FEF9FEF0895FC01918D228DED
:10039000892F90E0805C9F4F821B91098F73992772
:1003A000089584EE94E00E94C50121E0892B09F4B0
:1003B00020E0822F089580E090E0892B29F00E94B0
:1003C000D10181110C9400000895FC01A48DA80FA7
:1003D000B92FB11DA35ABF4F2C91848D90E0019687
:1003E0008F739927848FA689B7892C93A089B189A7
:1003F0008C91837080648C93938D848D981306C048
:100400000288F389E02D80818F7D80830895EF92AB
:10041000FF920F931F93CF93DF93EC0181E0888FBE
:100420009B8D8C8D98131AC0E889F989808185FF8E
:1004300015C09FB7F894EE89FF896083E889F98930
:1004400080818370806480839FBF81E090E0DF9132
:10045000CF911F910F91FF90EF900895F62E0B8D85
:1004600010E00F5F1F4F0F731127E02E8C8D8E1140
:100470000CC00FB607FCFACFE889F989808185FFA7
:10048000F5CFCE010E94E501F1CFEB8DEC0FFD2FF2
:10049000F11DE35AFF4FF0829FB7F8940B8FEA8962
:1004A000FB8980818062CFCFCF93DF93EC01888D71
:1004B0008823B9F0AA89BB89E889F9898C9185FDDF
:1004C00003C0808186FD0DC00FB607FCF7CF8C916D
:1004D00085FFF2CF808185FFEDCFCE010E94E5013F
:1004E000E9CFDF91CF91089520910502260F3327A0
:1004F000331F21323105ECF42091BA04FC0190E065
:1005000080E0243069F082E00895A09105022191F5
:10051000AC014B515E4FA40FB52FB11D2C9301962A
:10052000861798F380910502680F6093050280E0BA
:10053000089581E008951092BA0481E08093B9048F
:100540001092940461E082E10E94840061E083E102
:100550000E948400E9EBF0E080818E7F80838081BF
:100560008D7F808388E48093B80085E48093BC000D
:10057000089510929304109292041092C104109264
:10058000E3040E949B0282E890E0909391048093A0
:10059000900483E890E090938F0480938E040895F4
:1005A000CF93DF9391E09093E4018823B9F0C09159
:1005B000B800D091BA008091BC008A7B8093BC00C7
:1005C00060E082E10E94840060E083E10E94840098
:1005D0000E949B02D093BA00C093B800DF91CF91E4
:1005E00008958F929F92AF92BF92CF92DF92EF9237
:1005F000FF920F931F93CF93DF93D091E304D132F7
:1006000008F0D7C0182FC091E2040E94D0006B01FF
:100610007C018091BA0481116BC082E08093BA049E
:100620001093B9048FEF8093B8041092B704D0935D
:10063000B604A2ECB4E0E6E9F4E080E0D81391C09F
:100640001092950480919504CC0FC82BC09395040B
:1006500080919404813009F088C0109294040E9423
:10066000D0006B017C01809195048093BB00809148
:10067000BC049091BD04A091BE04B091BF04892B2D
:100680008A2B8B2BA1F00E94D0000091BC0410910A
:10069000BD042091BE043091BF046C197D098E0900
:1006A0009F09061717072807390708F442C08091E9
:1006B000BC0083FDD8CF85EC8093BC000E94D000A5
:1006C0006B017C018091BA04823009F450C08091A2
:1006D000B8048F3F09F46FC08091B804803209F4E8
:1006E0006CC08091B804803309F469C084E026C0EE
:1006F0008091BC049091BD04A091BE04B091BF0450
:10070000892B8A2B8B2B09F484CF0E94D0008090F8
:10071000BC049090BD04A090BE04B090BF046C19BE
:100720007D098E099F0986169706A806B90608F066
:1007300070CF8091BB040E94D00285E01092C1046A
:100740001092E3041092C004DF91CF911F910F919A
:10075000FF90EF90DF90CF90BF90AF909F908F90E1
:1007600008959D9191938F5F69CF85EEA5CF80917C
:10077000BC049091BD04A091BE04B091BF04892B2C
:100780008A2B8B2B09F49ECF0E94D0000091BC04D1
:100790001091BD042091BE043091BF046C197D09F5
:1007A0008E099F09061717072807390708F08ACF0F
:1007B000C0CF81E0C3CF80E0C1CF82E0BFCF83E074
:1007C000BDCF0895E091930480919204E81730F42E
:1007D000F0E0EC53FE4F808190E008958FEF9FEFA3
:1007E000089590919304809192042FEF3FEF981712
:1007F00048F4E92FF0E0EC53FE4F208130E09F5F9A
:1008000090939304C9010895809192049091930468
:10081000891B990B0895CF92DF92EF92FF920F936D
:100820001F93CF93DF937C01CB018A012091C004F9
:10083000222389F0EB016B01C40ED51ECC15DD051A
:1008400069F06991D701ED91FC910190F081E02D63
:10085000C7010995F3CF642F0E947402C801DF918C
:10086000CF911F910F91FF90EF90DF90CF9008955F
:10087000CF93DF931F92CDB7DEB769832091C00479
:100880002223F9F02091E304203258F021E030E0F7
:10089000FC013383228390E080E00F90DF91CF91C1
:1008A00008958091C104E82FF0E0EE53FB4F998149
:1008B00090838F5F8093C1048093E30481E090E094
:1008C000ECCF61E0CE0101960E947402F7CF682F51
:1008D00081E895E00C9438041F93CF93DF93EC01EB
:1008E000162F81E08093C00480E58093E20410928B
:1008F000C1041092E3048D2F90E00E946704CE01A2
:1009000099270E946704612F81E895E00E943804CE
:1009100081E00E94F10265E070E080E090E0DF910C
:10092000CF911F910C94F50090E080E0089542E093
:1009300050E06AE271E084EE94E00C942701CF93DA
:10094000DF93FC0101900020E9F73197AF01481BCC
:10095000590BBC0184EE94E00E942701EC010E9437
:1009600097048C0F9D1FDF91CF910895CF93DF9354
:10097000FC01448155816081718184EE94E00E9484
:100980002701EC010E9497048C0F9D1FDF91CF91EE
:100990000895CF92DF92EF92FF920F931F93CF9320
:1009A000DF93EC0181E08093C00480E58093E20452
:1009B0001092C1041092E3048D2F90E00E9467040E
:1009C000CE0199270E94670481E00E94F1020E94F3
:1009D000D0006B017C018091BA04811163C081E079
:1009E0008093BA048093B9049FEF9093B804109257
:1009F000B7041092B6048093950480919504806AA0
:100A00008093950480919404813009F082C0109203
:100A100094040E94D0006B017C0180919504809326
:100A2000BB008091BC049091BD04A091BE04B09124
:100A3000BF04892B8A2B8B2BA1F00E94D000009140
:100A4000BC041091BD042091BE043091BF046C1908
:100A50007D098E099F09061717072807390708F42B
:100A600042C08091BC0083FDD8CF85EC8093BC0050
:100A70000E94D0006B017C018091BA04813009F49E
:100A80004AC08091B704811168C08091B704A6E97B
:100A9000B4E0E4ECF1E090E0981751F12D9121934E
:100AA0009F5FFACF8091BC049091BD04A091BE04D9
:100AB000B091BF04892B8A2B8B2B09F48CCF0E9419
:100AC000D0000091BC041091BD042091BE0430916F
:100AD000BF046C197D098E099F090617170728079F
:100AE000390708F078CF8091BB040E94D00280E0E3
:100AF000109293048093920481E895E00E94F103A0
:100B0000DF91CF911F910F91FF90EF90DF90CF90E9
:100B1000089585EEABCF8091BC049091BD04A09167
:100B2000BE04B091BF04892B8A2B8B2B09F4A4CF70
:100B30000E94D0000091BC041091BD042091BE041D
:100B40003091BF046C197D098E099F09061717079C
:100B50002807390708F090CFC6CF81E098CFFC0175
:100B600024813581232B39F421E0FB018081882306
:100B700049F020E007C0808191810E94CF0F21E0E1
:100B8000892BB9F7822F08950F931F93CF93DF938B
:100B9000EC0188819981009759F02A813B812617C1
:100BA000370730F081E0DF91CF911F910F910895C9
:100BB0008B016F5F7F4F0E94FE0E009759F0998363
:100BC00088831B830A832C813D81232B59F7FC01E9
:100BD0001082E8CF80E0E7CFEF92FF920F931F9350
:100BE000CF93DF9300D0CDB7DEB78C0169831A8233
:100BF000FC01E480F580FFEFEF1AFF0AB7010E94C5
:100C0000C405882381F0F801208131818481958198
:100C1000BE016F5F7F4F820F931F0E94D80FF801B4
:100C2000F582E48281E00F900F90DF91CF911F91C8
:100C30000F91FF90EF900895CF93DF93EC0188819F
:100C40009981009711F00E94750E198218821D82F9
:100C50001C821B821A82DF91CF910895EF92FF923E
:100C60000F931F93CF93DF93EC01FB01E080F180A2
:100C7000E114F10411F10481158101151105A9F0A8
:100C80008C819D81080F191FB801CE010E94C405F7
:100C9000882399F0288139818C819D81B701820F49
:100CA000931F0E94D80F1D830C83CE01DF91CF913B
:100CB0001F910F91FF90EF900895CE010E941C06A6
:100CC000F4CFEF92FF920F931F93CF93DF93EC013A
:100CD0007B018A01BA010E94C40581110BC0CE01BB
:100CE0000E941C06CE01DF91CF911F910F91FF90C2
:100CF000EF9008951D830C83B701888199810E942C
:100D0000D80FF0CFCF93DF93EC01FB018617970745
:100D100049F0608171816115710541F0448155810F
:100D20000E946106CE01DF91CF9108950E941C06BA
:100D3000F9CFFC0111821082138212821582148273
:100D40000C948206FC011182108213821282158299
:100D50001482FB0101900020E9F73197AF01461B97
:100D6000570B0C946106FC0180819181009711F072
:100D70000C94750E089585ED8093BC008091BC04A1
:100D80009091BD04A091BE04B091BF040796A11D2F
:100D9000B11D23E0B695A795979587952A95D1F72C
:100DA0002091BC0024FD03C01092BA040895409124
:100DB000BC045091BD046091BE047091BF04452BEA
:100DC000462B472B69F30097A105B10541F02AE2B4
:100DD0002A95F1F700C00197A109B109E1CF8091EF
:100DE000BB040C94D0029F92AF92BF92CF92DF923D
:100DF000EF92FF920F931F93CF93DF9300D000D019
:100E000000D0CDB7DEB75C010E94B9026CE271E0A0
:100E1000CE0101960E94A20607E510E0680187E175
:100E2000C81AD10850E040E06CE271E0CE010196B2
:100E30000E9461067801E6E1EE1AF1080E151F0521
:100E40008CF1C7010E94C904982EF0E2F81730F522
:100E5000082E000C990B0E94BE0F892B29F0692DDA
:100E6000CE0101960E94EC052D813E81F501848121
:100E700095812817390791F489819A816081718160
:100E80000097D1F06115710531F4232B11F1FC01AC
:100E9000808190E01CC00E94CF0F19C0FFEFEF1AB5
:100EA000FF0ACCCF085E1F4F073D83E1180709F00A
:100EB000B5CF0FEF1FEF15C06115710551F0232B52
:100EC00041F0FB01808190E0919581959109892BFA
:100ED00029F7C6018054910968E170E00E94AB0DCA
:100EE0008B01CE0101960E94B306C80126960FB66B
:100EF000F894DEBF0FBECDBFDF91CF911F910F9150
:100F0000FF90EF90DF90CF90BF90AF909F900895AB
:100F10001F920F920FB60F9211242F933F938F932E
:100F20009F93AF93BF9380918A0490918B04A0917B
:100F30008C04B0918D043091850423E0230F2D376C
:100F400058F50196A11DB11D2093850480938A0454
:100F500090938B04A0938C04B0938D0480918604AD
:100F600090918704A0918804B09189040196A11DF5
:100F7000B11D8093860490938704A0938804B09356
:100F80008904BF91AF919F918F913F912F910F90C5
:100F90000FBE0F901F90189526E8230F0296A11DF3
:100FA000B11DD2CF1F920F920FB60F9211242F9323
:100FB0003F934F935F936F937F938F939F93AF93E1
:100FC000BF93EF93FF9384EE94E00E94E501FF91BD
:100FD000EF91BF91AF919F918F917F916F915F91B1
:100FE0004F913F912F910F900FBE0F901F9018952A
:100FF0001F920F920FB60F9211242F938F939F93EE
:10100000EF93FF93E091F404F091F5048081E09177
:10101000FA04F091FB0482FD1BC090818091FD04D5
:101020008F5F8F732091FE04821741F0E091FD04E1
:10103000F0E0EC51FB4F958F8093FD04FF91EF9111
:101040009F918F912F910F900FBE0F901F90189529
:101050008081F4CF1F920F920FB60F9211242F931D
:101060003F934F935F936F937F938F939F93AF9330
:10107000BF93EF93FF938091B900887F803609F486
:101080004AC0F0F5883209F4A7C018F5803109F498
:101090009BC0B8F4882309F4F9C0883009F494C0DF
:1010A000FF91EF91BF91AF919F918F917F916F9140
:1010B0005F914F913F912F910F900FBE0F901F9016
:1010C0001895883109F488C0803251F78093B804AC
:1010D00014C0803409F49DC040F48033B9F38833E0
:1010E000F9F68093B80485ECB0C0803509F485C06A
:1010F000883509F496C0883499F60E94BB06D0CF93
:10110000883909F48CC038F5883729F050F48836CE
:1011100011F0803729F683E08093BA0410922702F9
:1011200057C0883809F47BC0803919F0803809F03D
:10113000B7CF80912702803208F071C0E09127027A
:1011400081E08E0F809327028091BB00F0E0E95F81
:10115000FD4F80833DC0803B39F0E0F4803A09F4D4
:1011600079C0883A09F09CCF84E08093BA04109249
:10117000060210920502E0919004F0919104099505
:101180008091050281110FC081E0809305021092C9
:10119000E50109C0803C09F4A6CF883C09F4A3CF3F
:1011A000883B09F07DCFE091060281E08E0F8093AD
:1011B0000602F0E0EB51FE4F80818093BB009091DE
:1011C00006028091050229C0809195048093BB009E
:1011D00085EC8093BC0064CF9091B7048091B604F5
:1011E000981758F5E091B70481E08E0F8093B7040B
:1011F000F0E0EA56FB4F8081E9CFE091B70481E04F
:101200008E0F8093B7048091BB00F0E0EA56FB4F4D
:1012100080839091B7048091B6049817C8F285E84E
:10122000D8CFE091B70481E08E0F8093B70480910E
:10123000BB00F0E0EA56FB4F80838091B904811136
:101240005CCF81E08093940484EA8093BC00109288
:10125000BA0426CF85EC8093BC001092BA0480912A
:101260002702803230F4E0912702F0E0E95FFD4F81
:1012700010826091270270E0E0918E04F0918F045B
:1012800087E092E00995109227020ACF1092B804E5
:1012900034CFE4EEF4E01382128288EE93E0A0E013
:1012A000B0E084839583A683B7832AE031E031835D
:1012B000208325EC30E03587248724EC30E0378725
:1012C000268720EC30E0318B208B21EC30E0338B13
:1012D000228B22EC30E0358B248B26EC30E0378BF0
:1012E000268B118E128E138E148EE1E8F5E0138298
:1012F000128284839583A683B7838CE191E09183E6
:1013000080830895CF93DF93CDB7DEB7ED970FB607
:10131000F894DEBF0FBECDBF789484B5826084BDE3
:1013200084B5816084BD85B5826085BD85B58160E9
:1013300085BD80916E00816080936E001092810067
:101340008091810082608093810080918100816022
:1013500080938100809180008160809380008091E3
:10136000B10084608093B1008091B000816080936F
:10137000B00080917A00846080937A0080917A0036
:10138000826080937A0080917A00816080937A00F5
:1013900080917A00806880937A001092C100E09179
:1013A000F404F091F50482E08083E091F004F09180
:1013B000F1041082E091F204F091F3048FEC808349
:1013C0001092FC04E091F804F091F90486E0808327
:1013D000E091F604F091F704808180618083E091D0
:1013E000F604F091F704808188608083E091F60430
:1013F000F091F704808180688083E091F604F09199
:10140000F70480818F7D8083F0E02F2EF0E03F2E67
:1014100084EE94E00E94C501181619060CF018C25B
:101420006CE271E0CE01C7960E94A2060E9477018D
:1014300097FD09C08A30910531F0682FCE01C7961B
:101440000E94EC05F3CFCFA8D8ACC114D10439F079
:101450000BAD1CAD76010115110509F058C06CE209
:1014600071E0CE0101960E94A2066CE271E0CE010D
:1014700007960E94A2066CE271E0CE010D960E94D2
:10148000A2066CE271E0CE0143960E94A2066CE2D5
:1014900071E0CE01C1960E94A20610E000E0F12C9E
:1014A000E12CE6E0DE2E8BAD9CAD0817190708F0A5
:1014B00087C08FA998ADFC01E00FF11F009721F4C0
:1014C00010928404E4E8F4E020812C3709F055C040
:1014D000DE9CC001DF9C900D1124BE016F5C7F4F2C
:1014E00021E030E02C0F3D1F820F931F0E948206E7
:1014F00050E040E06CE271E0CE01C1960E946106CE
:101500003FEFE31AF30A0F5F1F4FCDCF750157016D
:101510002FEFA21AB20AF7018081082E000C990B56
:101520000E94680D892B91F7015011090C0D1D1DAA
:10153000F8018081082E000C990B0E94680D892B00
:1015400031F00E151F0518F001501109F1CFA80157
:101550004F5F5F4F4E195F095CAF4BAFCE14DF0496
:1015600020F4B701C6010E94C60FEFA9F8AD8BADFC
:101570009CADE80FF91F108272CF892B11F41092E5
:101580008404C080BE016F5C7F4FCE0149960E94EB
:1015900099066C2DCE0149960E94EC05811104C07C
:1015A000CE0149960E941C06BE01675E7F4FCE01A8
:1015B000C1960E948206CE0149960E94B306A3CF2F
:1015C0006DE271E0CE0101960E94AF05882309F417
:1015D0004BC1AB88BC88ED84FE84CF80D8840E9448
:1015E000B90281E090E00E94C904182F809383041F
:1015F00010928204109281041092800488E1189F56
:10160000A001112490E8199F90011124F601019086
:101610000020E9F7BF01E8EBF3E090E080E06C190F
:101620007D094F5B5F4F682E8617970708F076C0DD
:101630008436910509F06BC084E68093820474E6D9
:10164000672EF70101900020E9F7AF0160EF862EC9
:1016500062E0962EF40190E080E04E195F09B90136
:101660006F507C4E082F8417950708F061C08436B0
:10167000910509F056C084E68093810404E6F501E3
:1016800001900020E9F7CF0148E2C42E42E0D42EB9
:10169000F601F12CE12C8A199B092F5C3B4EEDAE33
:1016A000E816F90608F050C044E6E416F10409F023
:1016B00042C084E6809380048DAF61E0610F81E0D9
:1016C00090E00E946C04AF80B8840E94B902612F40
:1016D0008091B8039091B9030E946C0410E0712CC2
:1016E000812F90E0F501E80FF91F6081662379F101
:1016F0000196861597055CF5880F991FFC01E85443
:10170000FC4F808191810E946C041F5FE9CFDA0158
:10171000A80FB91FA193B193019685CF809382043E
:1017200090CFDB01A80FB91FA193B19301969ACF77
:1017300080938104A4CFA9014E0D5F1D4193519365
:101740004FEFE41AF40AABCFE0928004B6CF64EF17
:1017500071E080E090E00E94F500BE01635F7F4F82
:10176000CE0149960E949906BE016D5E7F4FCE0163
:1017700049960E942E06BC01CE0185960E949906CC
:10178000CE0149960E94B3066DA07EA06FEF600F58
:101790008091F0029091F1020E946C042301AA242E
:1017A000A394B12C10E082E0880E911CA016B10623
:1017B00064F4F20161912F01F401808191810E9412
:1017C0006C04FFEFAF1ABF0AEECF6DAD6150809190
:1017D0002802909129020E946C0401501109600EA8
:1017E000711E01E010E022E0C20ED11C0E151F0593
:1017F0005CF4F30161913F01F601808191810E94C7
:101800006C040F5F1F4FEFCF81E391E00E949F04B4
:1018100086E591E00E949F04CE0185960E94B30662
:10182000CE01C1960E94B306CE0143960E94B30634
:10183000CE010D960E94B306CE0107960E94B30614
:10184000CE0101960E94B306CE01C7960E94B30650
:101850002114310409F4DCCD0E94D101882309F45C
:10186000D3CD0E940000D0CD6BE571E0CE01019692
:101870000E94AF05882309F4ADC0BE01695F7F4FA8
:10188000CE0149960E949906CE0149960E94F30620
:101890008C01CE0149960E94B30680E691E00F3F8D
:1018A000100709F4F2C00E94B9026CE271E0CE01A7
:1018B0008B960E94A2066CE271E0CE0185960E9492
:1018C000A2061695102F00271795079578012FE08F
:1018D000E21A2CEEF20AC7010E94C90468013EE038
:1018E000C31A3CEED30A5601A80EB11CCA14DB047D
:1018F00074F4C6010E94C904813228F0682FCE0119
:101900008B960E94EC054FEFC41AD40AEFCFC801A2
:101910008F5C9B4E0E94C9040E5C1B4EE80EF11CAE
:1019200080E4E80EF11CE016F1066CF0C8010E949C
:10193000C904813228F0682FCE0185960E94EC05FB
:101940000F5F1F4FF0CFBE01655D7F4FCE014996FF
:101950000E949906BE016B5D7F4FCE014F960E949B
:101960009906CE0185960E94B306CE018B960E9401
:10197000B30661E771E0CE0185960E94A206BE0122
:10198000675E7F4FCE0185960E942E060E94B604A8
:10199000CE0185960E94B30669E771E0CE01859677
:1019A0000E94A206BE01615E7F4FCE0185960E9415
:1019B0002E060E94B604CE0185960E94B30686E5E7
:1019C00091E00E949F04CE014F960E94B306CE0183
:1019D000499624CF64E871E0CE0101960E94AF05DC
:1019E000882309F459C0BE01695F7F4FCE01499633
:1019F0000E949906CE0149960E94F3067C01CE0111
:101A000049960E94B3060E94B90281E090E00E94CC
:101A1000C9046FEF680F81E090E00E946C046701D9
:101A2000D694DC2CCC24D794C79486010F501C4E3E
:101A30009FE8C91A9BEED90A0C151D0539F060E024
:101A4000C8010E946C040F5F1F4FF6CF88E18E9D86
:101A500080018F9D100D11246FEFC801805C9F4F96
:101A60000E946C047801E1E4EE0EF11C075A1F4F4E
:101A7000E016F10641F060E0C7010E946C04FFEF40
:101A8000EF1AFF0AF5CF8BE891E00E949F0486E5EC
:101A900091E00E949F04C4CE63E971E0CE010196FB
:101AA0000E94AF05882389F00E94B90210E000E08F
:101AB00060E0C8010E946C040F5F1F4F0F3F2CE7CE
:101AC0001207B1F789E991E0E0CF84EB91E0DDCF37
:101AD00091110C94710D803219F089508550C8F71E
:101AE00008959927882708952F923F924F925F92E9
:101AF0006F927F928F929F92AF92BF92CF92DF921E
:101B0000EF92FF920F931F93CF93DF93CDB7DEB782
:101B1000CA1BDB0B0FB6F894DEBF0FBECDBF099416
:101B20002A88398848885F846E847D848C849B846D
:101B3000AA84B984C884DF80EE80FD800C811B817B
:101B4000AA81B981CE0FD11D0FB6F894DEBF0FBEAA
:101B5000CDBFED01089597FB072E16F4009407D032
:101B600077FD09D00E94BF0D07FC05D03EF490958B
:101B700081959F4F0895709561957F4F0895AA1B99
:101B8000BB1B51E107C0AA1FBB1FA617B70710F068
:101B9000A61BB70B881F991F5A95A9F7809590959A
:101BA000BC01CD010895EE0FFF1F0590F491E02DCB
:101BB00009940F931F93CF93DF938230910510F414
:101BC00082E090E0E0918F05F091900530E020E018
:101BD000B0E0A0E0309799F42115310509F44AC02E
:101BE000281B390B24303105D8F58A819B8161157A
:101BF000710589F1FB0193838283FE0111C040814D
:101C000051810281138148175907E0F0481759079D
:101C100099F4109761F012960C93129713961C93F7
:101C20003296CF01DF91CF911F910F9108950093CC
:101C30008F0510939005F4CF2115310551F042170F
:101C4000530738F0A901DB019A01BD01DF01F8015A
:101C5000C1CFEF01F9CF9093900580938F05CDCF41
:101C6000FE01E20FF31F81939193225031093983D2
:101C70002883D7CF20918D0530918E05232B41F4F9
:101C8000209102013091030130938E0520938D0540
:101C900020910001309101012115310541F42DB74A
:101CA0003EB74091040150910501241B350BE09192
:101CB0008D05F0918E05E217F307A0F42E1B3F0B64
:101CC0002817390778F0AC014E5F5F4F24173507AE
:101CD00048F04E0F5F1F50938E0540938D05819302
:101CE00091939FCFF0E0E0E09CCFCF93DF930097FC
:101CF000E9F0FC01329713821282A0918F05B09116
:101D00009005ED0130E020E01097A1F420813181B1
:101D1000820F931F20918D0530918E05281739076A
:101D200009F061C0F0938E05E0938D05DF91CF91AE
:101D30000895EA01CE17DF07E8F54A815B819E012D
:101D400041155105B1F7E901FB83EA8349915991A6
:101D5000C40FD51FEC17FD0761F4808191810296B5
:101D6000840F951FE90199838883828193819B83E6
:101D70008A83F0E0E0E012968D919C911397009792
:101D8000B9F52D913C911197CD010296820F931FC9
:101D900020918D0530918E052817390739F6309737
:101DA00051F51092900510928F05B0938E05A09377
:101DB0008D05BCCFD383C28340815181840F951F91
:101DC000C817D90761F44E5F5F4F88819981480F2A
:101DD000591F518340838A819B819383828321157C
:101DE000310509F0B0CFF0939005E0938F059ECFB9
:101DF000FD01DC01C0CF13821282D7CFB0E0A0E09A
:101E0000E4E0FFE00C94760D8C01009751F4CB01D7
:101E10000E94D90D8C01C801CDB7DEB7E0E10C946A
:101E2000920DFC01E60FF71F9C0122503109E217C9
:101E3000F30708F49DC0D901CD91DC911197C61725
:101E4000D70798F0C530D10530F3CE010497861737
:101E5000970708F3C61BD70B2297C193D1936D93B5
:101E60007C93CF010E94750ED6CF5B01AC1ABD0AE0
:101E70004C018C0E9D1EA0918F05B0919005512CA8
:101E8000412CF12CE12C109731F580918D0590912A
:101E90008E058815990509F05CC04616570608F0AE
:101EA00058C08091000190910101009741F48DB7D5
:101EB0009EB74091040150910501841B950BE817D2
:101EC000F90708F055C0F0938E05E0938D05F901F0
:101ED00071836083A0CF8D919C91119712966C9025
:101EE000129713967C901397A815B90559F56C01B4
:101EF00042E0C40ED11CCA14DB0420F1AC014A1923
:101F00005B09DA011296159780F062827382518321
:101F10004083D9016D937C93E114F10471F0D701F2
:101F20001396FC93EE93129776CF22968C0F9D1FFB
:101F3000F90191838083F301EFCFF0939005E09353
:101F40008F0569CF4816590608F42C017D01D3018D
:101F50009ACFCB010E94D90D7C01009749F0AE01C8
:101F6000B8010E94C60FC8010E94750E870153CFA9
:101F700010E000E050CF85FD0C94710D806291114E
:101F80000C94710D81568A51D8F70895FB01DC013C
:101F900002C001900D9241505040D8F70895FB01C6
:101FA000DC018D91019080190110D9F3990B0895EE
:101FB000FB01DC0101900D920020E1F70895F894F7
:021FC000FFCF51
:101FC2000000910580000000000007022701540173
:101FD2005402C5016301B7010000000038040B047C
:101FE2009404E1030404F103E2030D0A0061646452
:101FF2000044617461207772697474656E20746F35
:1020020020454550524F4D20737563636573736667
:10201200756C6C792E00646F6E6500726561640088
:102022005265636F7264206E6F7420666F756E64A2
:1020320000204C6F67696E3A002050617373776FAE
:1020420072643A0064656C6574650064656C6574FD
:10205200656400726573657400454550524F4D20AA
:102062007265736574207375636365737366756CEB
:102072006C792E00496E76616C696420636F6D6DB8
:04208200616E640027
:00000001FF
