:100000000C9458000C9480000C9480000C94800098
:100010000C9480000C9480000C9480000C94800060
:100020000C9480000C9480000C9480000C94800050
:100030000C9480000C9480000C9480000C94800040
:100040000C9424050C9480000C9494050C946E057B
:100050000C9480000C9480000C9480000C94800020
:100060000C94C6050C9480000000000025002800B8
:100070002B00040404040404040402020202020229
:10008000030303030303010204081020408001025C
:1000900004081020010204081020000000080002DB
:1000A0000100000304070000000000000000E50656
:1000B00011241FBECFEFD8E0DEBFCDBF22E0A2E308
:1000C000B1E001C01D92A23AB207E1F711E0A0E051
:1000D000B1E0EAEEF4E102C005900D92A233B1075F
:1000E000D9F710E0C8E5D0E004C02197FE010E94D6
:1000F0007B08C735D107C9F70E941E070C94730A05
:100100000C94000090E0FC01E656FF4F2491FC01A6
:10011000EA57FF4F3491FC01EE58FF4FE491EE2374
:10012000C9F0222339F0233001F1A8F4213019F16C
:10013000223029F1F0E0EE0FFF1FE859FF4FA591A3
:10014000B4918FB7F894EC91611126C030953E239D
:100150003C938FBF08952730A9F02830C9F0243090
:1001600049F7809180008F7D03C0809180008F7758
:1001700080938000DFCF84B58F7784BDDBCF84B5DB
:100180008F7DFBCF8091B0008F778093B000D2CF6E
:100190008091B0008F7DF9CF3E2BDACF3FB7F89436
:1001A0008091F1019091F201A091F301B091F401DD
:1001B00026B5A89B05C02F3F19F00196A11DB11DC2
:1001C0003FBFBA2FA92F982F8827BC01CD01620FFE
:1001D000711D811D911D42E0660F771F881F991FB9
:1001E0004A95D1F7089508950895AF92BF92CF929E
:1001F000DF92EF92FF920F931F93CF93DF936C01E7
:100200007B018B01040F151FEB015E01AE18BF08C7
:10021000C017D10759F06991D601ED91FC91019079
:10022000F081E02DC6010995892B79F7C501DF9191
:10023000CF911F910F91FF90EF90DF90CF90BF90E3
:10024000AF900895FC01538D448D252F30E0842F0D
:1002500090E0821B930B541710F0CF9608950197EE
:100260000895FC01918D828D981761F0A28DAE0FDB
:10027000BF2FB11D5D968C91928D9F5F9F73928F62
:1002800090E008958FEF9FEF0895FC01918D828D8E
:10029000981731F0828DE80FF11D858D90E008955B
:1002A0008FEF9FEF0895FC01918D228D892F90E0B3
:1002B000805C9F4F821B91098F739927089585EF6A
:1002C00091E00E94530121E0892B09F420E0822F64
:1002D000089580E090E0892B29F00E945F01811150
:1002E0000C9400000895FC01A48DA80FB92FB11D36
:1002F000A35ABF4F2C91848D90E001968F7399275C
:10030000848FA689B7892C93A089B1898C91837039
:1003100080648C93938D848D981306C00288F38932
:10032000E02D80818F7D80830895EF92FF920F935F
:100330001F93CF93DF93EC0181E0888F9B8D8C8D91
:1003400098131AC0E889F989808185FF15C09FB785
:10035000F894EE89FF896083E889F9898081837048
:10036000806480839FBF81E090E0DF91CF911F91F7
:100370000F91FF90EF900895F62E0B8D10E00F5F18
:100380001F4F0F731127E02E8C8D8E110CC00FB6EE
:1003900007FCFACFE889F989808185FFF5CFCE0186
:1003A0000E947301F1CFEB8DEC0FFD2FF11DE35A8D
:1003B000FF4FF0829FB7F8940B8FEA89FB89808109
:1003C0008062CFCFCF93DF93EC01888D8823B9F083
:1003D000AA89BB89E889F9898C9185FD03C0808150
:1003E00086FD0DC00FB607FCF7CF8C9185FFF2CFCD
:1003F000808185FFEDCFCE010E947301E9CFDF91AF
:10040000CF91089520919A01260F3327331F21326F
:100410003105ECF42091BE01FC0190E080E0243035
:1004200069F082E00895A0919A012191AC014658AB
:100430005E4FA40FB52FB11D2C930196861798F32C
:1004400080919A01680F60939A0180E0089581E09D
:1004500008951092BE0181E08093C0011092BF0107
:1004600061E082E10E94820061E083E10E948200FB
:10047000E9EBF0E080818E7F808380818D7F8083B7
:1004800088E48093B80085E48093BC000895CF93FE
:10049000DF9391E0909379018823B9F0C091B8007F
:1004A000D091BA008091BC008A7B8093BC0060E050
:1004B00082E10E94820060E083E10E9482000E944B
:1004C0002902D093BA00C093B800DF91CF9108956C
:1004D0000895E091EB018091EA01E81730F4F0E033
:1004E000EC5AFE4F808190E008958FEF9FEF0895C2
:1004F0009091EB018091EA012FEF3FEF981748F4BC
:10050000E92FF0E0EC5AFE4F208130E09F5F90939E
:10051000EB01C90108958091EA019091EB01891BDB
:10052000990B0895CF92DF92EF92FF920F931F9352
:10053000CF93DF937C01CB018A01209153012223C9
:1005400089F0EB016B01C40ED51ECC15DD0569F0F9
:100550006991D701ED91FC910190F081E02DC701E7
:100560000995F3CF642F0E940202C801DF91CF9159
:100570001F910F91FF90EF90DF90CF900895CF9350
:10058000DF931F92CDB7DEB76983209153012223F9
:10059000F9F02091E801203258F021E030E0FC0130
:1005A0003383228390E080E00F90DF91CF91089514
:1005B0008091E901E82FF0E0ED5CFE4F9981908396
:1005C0008F5F8093E9018093E80181E090E0ECCFB8
:1005D00061E0CE0101960E940202F7CF90E080E038
:1005E0000895CF92DF92EF92FF920F931F93CF93D4
:1005F000C82F81E08093530180E5809332011092EF
:10060000E9011092E801692F82E992E00E94BF029D
:100610006C2F82E992E00E94BF02C091E801C132D2
:1006200008F091C00E94CE006B017C018091BE0158
:10063000811164C082E08093BE0181E08093C0019B
:100640008FEF8093BD011092E201C093E101A3E31B
:10065000B1E0E1ECF1E080E0C813E7C01092E30103
:100660008091E301806A8093E3018091BF01813032
:1006700009F0DFC01092BF010E94CE006B017C0127
:100680008091E3018093BB00809175019091760188
:10069000A0917701B0917801892B8A2B8B2B99F04F
:1006A0000E94CE0000917501109176012091770192
:1006B000309178016C197D098E099F09061717077B
:1006C00028073907E0F18091BC0083FDD9CF85EC84
:1006D0008093BC000E94CE006B017C018091BE0122
:1006E000823009F4A8C08091BD018F3F61F18091F3
:1006F000BD01803241F18091BD0125C0809175011D
:1007000090917601A0917701B0917801892B8A2B85
:100710008B2B09F48BCF0E94CE00009175011091B4
:10072000760120917701309178016C197D098E094D
:100730009F09061717072807390708F077CF809118
:1007400074010E9447021092E9011092E801109290
:1007500053010E94CE006B017C018091BE0181118A
:100760008CC081E08093BE018093C0019FEF909385
:10077000BD011092E2011092E1018093E3018091AA
:10078000E301806A8093E3018091BF01813009F029
:10079000AAC01092BF010E94CE006B017C01809123
:1007A000E3018093BB008091750190917601A09147
:1007B0007701B0917801892B8A2B8B2BA1F00E94B5
:1007C000CE00009175011091760120917701309152
:1007D00078016C197D098E099F09061717072807EC
:1007E000390708F46BC08091BC0083FDD8CF85EC3D
:1007F0008093BC000E94CE006B017C018091BE0101
:10080000813009F472C08091E201811190C0809121
:10081000E201A1ECB1E0E4E5F1E090E0981709F421
:1008200052C02D9121939F5FF9CF9D9191938F5F3E
:1008300013CF85EE4DCF8091750190917601A091F7
:100840007701B0917801892B8A2B8B2B09F446CF45
:100850000E94CE00009175011091760120917701E0
:10086000309178016C197D098E099F0906171707C9
:100870002807390708F032CF62CF80917501909137
:100880007601A0917701B0917801892B8A2B8B2B6F
:1008900009F463CF0E94CE0000917501109176019A
:1008A00020917701309178016C197D098E099F099B
:1008B000061717072807390708F04FCF80917401F2
:1008C0000E94470280E01092EB018093EA0182E9E6
:1008D00092E00E947802CF911F910F91FF90EF90CC
:1008E000DF90CF90089585EE83CF80917501909130
:1008F0007601A0917701B0917801892B8A2B8B2BFF
:1009000009F47CCF0E94CE00009175011091760110
:1009100020917701309178016C197D098E099F092A
:10092000061717072807390708F068CFC7CF81E0F7
:1009300070CF0F931F93CF93DF93EC018881998140
:10094000009759F02A813B812617370730F081E064
:10095000DF91CF911F910F9108958B016F5F7F4FB2
:100960000E94A609009759F0998388831B830A8304
:100970002C813D81232B59F7FC011082E8CF80E0C8
:10098000E7CFEF92FF920F931F93CF93DF93EC018A
:100990007B018A01BA010E94990428813981811161
:1009A00014C02115310519F0C9010E941D091982D1
:1009B00018821D821C821B821A82CE01DF91CF9188
:1009C0001F910F91FF90EF9008951D830C83B70145
:1009D000C9010E946C0AF1CF85ED8093BC00809123
:1009E000750190917601A0917701B09178010796F9
:1009F000A11DB11D23E0B695A795979587952A95DA
:100A0000D1F72091BC0024FD03C01092BE010895CF
:100A10004091750150917601609177017091780154
:100A2000452B462B472B69F30097A105B10541F0F3
:100A30002AE22A95F1F700C00197A109B109E1CF97
:100A4000809174010C9447021F920F920FB60F927F
:100A500011242F933F938F939F93AF93BF938091D4
:100A6000ED019091EE01A091EF01B091F001309174
:100A7000EC0123E0230F2D3758F50196A11DB11D80
:100A80002093EC018093ED019093EE01A093EF0190
:100A9000B093F0018091F1019091F201A091F301E6
:100AA000B091F4010196A11DB11D8093F1019093C5
:100AB000F201A093F301B093F401BF91AF919F9124
:100AC0008F913F912F910F900FBE0F901F9018950F
:100AD00026E8230F0296A11DB11DD2CF1F920F92BF
:100AE0000FB60F9211242F933F934F935F936F9301
:100AF0007F938F939F93AF93BF93EF93FF9385EF74
:100B000091E00E947301FF91EF91BF91AF919F918E
:100B10008F917F916F915F914F913F912F910F90A6
:100B20000FBE0F901F9018951F920F920FB60F9245
:100B300011242F938F939F93EF93FF93E0910502DE
:100B4000F09106028081E0910B02F0910C0282FD8F
:100B50001BC0908180910E028F5F8F7320910F02D6
:100B6000821741F0E0910E02F0E0EB50FE4F958FBE
:100B700080930E02FF91EF919F918F912F910F9093
:100B80000FBE0F901F9018958081F4CF1F920F9287
:100B90000FB60F9211242F933F934F935F936F9350
:100BA0007F938F939F93AF93BF93EF93FF93809126
:100BB000B900887F803609F44AC0F0F5883209F41C
:100BC000A7C018F5803109F49BC0B8F4882309F454
:100BD000F9C0883009F494C0FF91EF91BF91AF91B3
:100BE0009F918F917F916F915F914F913F912F9145
:100BF0000F900FBE0F901F901895883109F488C090
:100C0000803251F78093BD0114C0803409F49DC037
:100C100040F48033B9F38833F9F68093BD0185EC55
:100C2000B0C0803509F485C0883509F496C0883491
:100C300099F60E94EC04D0CF883909F48CC038F5BD
:100C4000883729F050F4883611F0803729F683E090
:100C50008093BE011092BC0157C0883809F47BC054
:100C6000803919F0803809F0B7CF8091BC0180320B
:100C700008F071C0E091BC0181E08E0F8093BC014F
:100C80008091BB00F0E0E456FE4F80833DC0803B86
:100C900039F0E0F4803A09F479C0883A09F09CCF41
:100CA00084E08093BE0110929B0110929A01E09122
:100CB000E601F091E701099580919A0181110FC039
:100CC00081E080939A0110927A0109C0803C09F476
:100CD000A6CF883C09F4A3CF883B09F07DCFE091F3
:100CE0009B0181E08E0F80939B01F0E0E658FE4F60
:100CF00080818093BB0090919B0180919A0129C0D3
:100D00008091E3018093BB0085EC8093BC0064CFAD
:100D10009091E2018091E101981758F5E091E2018C
:100D200081E08E0F8093E201F0E0EF53FE4F80816F
:100D3000E9CFE091E20181E08E0F8093E2018091A2
:100D4000BB00F0E0EF53FE4F80839091E201809171
:100D5000E1019817C8F285E8D8CFE091E20181E07F
:100D60008E0F8093E2018091BB00F0E0EF53FE4FC5
:100D700080838091C00181115CCF81E08093BF01AD
:100D800084EA8093BC001092BE0126CF85EC80934C
:100D9000BC001092BE018091BC01803230F4E09121
:100DA000BC01F0E0E456FE4F10826091BC0170E09F
:100DB000E091E401F091E5018CE991E00995109250
:100DC000BC010ACF1092BD0134CFE5EFF1E01382F0
:100DD000128288EE93E0A0E0B0E084839583A6833E
:100DE000B7832AE031E03183208325EC30E035877A
:100DF000248724EC30E03787268720EC30E0318BE5
:100E0000208B21EC30E0338B228B22EC30E0358BD1
:100E1000248B26EC30E0378B268B118E128E138EAE
:100E2000148EE2E9F2E01382128284839583A68312
:100E3000B7838CE191E0918380830895CF93DF9312
:100E4000CDB7DEB72E970FB6F894DEBF0FBECDBF7D
:100E5000789484B5826084BD84B5816084BD85B595
:100E6000826085BD85B5816085BD80916E008160A1
:100E700080936E0010928100809181008260809347
:100E80008100809181008160809381008091800049
:100E90008160809380008091B10084608093B10074
:100EA0008091B00081608093B00080917A0084606E
:100EB00080937A0080917A00826080937A0080919A
:100EC0007A00816080937A0080917A0080688093B4
:100ED0007A001092C100E0910502F091060282E0D2
:100EE0008083E0910102F09102021082E0910302FE
:100EF000F09104028FEC808310920D02E0910902C0
:100F0000F0910A0286E08083E0910702F0910802E6
:100F1000808180618083E0910702F09108028081E6
:100F200088608083E0910702F091080280818068E8
:100F30008083E0910702F091080280818F7D808399
:100F40001092EB011092EA011092E9011092E8016F
:100F50000E94290283EF90E09093E7018093E601DD
:100F600084EF90E09093E5018093E40118861F825E
:100F70001A8619861C861B8650E040E060E371E00B
:100F8000CE0107960E94C1041A8219821C821B821C
:100F90001E821D8243E050E06AE271E0CE010196BC
:100FA0000E94C10401EF13E150E040E060E371E012
:100FB000CE0107960E94C10450E040E060E371E07A
:100FC000CE0101960E94C104C8010E94F10278017D
:100FD0009FEFE91AF90A5801A80EB11CAE14BF041C
:100FE00024F1C7010E94F1028132D8F08D871E865C
:100FF000CB84DC848FEFC81AD80AB601CE010796DD
:101000000E949904882369F02F8138858B859C85FF
:10101000BE01635F7F4F820F931F0E946C0ADC86C4
:10102000CB869FEFE91AF90AD9CF00581F4F013735
:101030008DE7180709F0B8CF89819A81009711F0E0
:101040000E941D094B855C856F81788585EF91E055
:101050000E94F50042E050E06EE271E085EF91E021
:101060000E94F5008F819885009711F00E941D095C
:1010700000E010E001151105E9F30E945F018823EB
:10108000C9F30E940000F6CF2F923F924F925F92D9
:101090006F927F928F929F92AF92BF92CF92DF9288
:1010A000EF92FF920F931F93CF93DF93CDB7DEB7ED
:1010B000CA1BDB0B0FB6F894DEBF0FBECDBF099481
:1010C0002A88398848885F846E847D848C849B84D8
:1010D000AA84B984C884DF80EE80FD800C811B81E6
:1010E000AA81B981CE0FD11D0FB6F894DEBF0FBE15
:1010F000CDBFED010895EE0FFF1F0590F491E02D97
:1011000009940F931F93CF93DF938230910510F4CE
:1011100082E090E0E091A002F091A10230E020E0B6
:10112000B0E0A0E0309799F42115310509F44AC0E8
:10113000281B390B24303105D8F58A819B81611534
:10114000710589F1FB0193838283FE0111C0408107
:1011500051810281138148175907E0F04817590758
:1011600099F4109761F012960C93129713961C93B2
:101170003296CF01DF91CF911F910F910895009387
:10118000A0021093A102F4CF2115310551F04217AE
:10119000530738F0A901DB019A01BD01DF01F80115
:1011A000C1CFEF01F9CF9093A1028093A002CDCFE0
:1011B000FE01E20FF31F819391932250310939838D
:1011C0002883D7CF20919E0230919F02232B41F498
:1011D000209102013091030130939F0220939E02DF
:1011E00020910001309101012115310541F42DB705
:1011F0003EB74091040150910501241B350BE0914D
:101200009E02F0919F02E217F307A0F42E1B3F0B02
:101210002817390778F0AC014E5F5F4F2417350768
:1012200048F04E0F5F1F50939F0240939E028193A0
:1012300091939FCFF0E0E0E09CCFCF93DF930097B6
:10124000E9F0FC01329713821282A091A002B091C2
:10125000A102ED0130E020E01097A1F4208131815E
:10126000820F931F20919E0230919F022817390709
:1012700009F061C0F0939F02E0939E02DF91CF914D
:101280000895EA01CE17DF07E8F54A815B819E01E8
:1012900041155105B1F7E901FB83EA834991599161
:1012A000C40FD51FEC17FD0761F480819181029670
:1012B000840F951FE90199838883828193819B83A1
:1012C0008A83F0E0E0E012968D919C91139700974D
:1012D000B9F52D913C911197CD010296820F931F84
:1012E00020919E0230919F022817390739F63097D6
:1012F00051F51092A1021092A002B0939F02A09308
:101300009E02BCCFD383C28340815181840F951F3D
:10131000C817D90761F44E5F5F4F88819981480FE4
:10132000591F518340838A819B8193838283211536
:10133000310509F0B0CFF093A102E093A0029ECF57
:10134000FD01DC01C0CF13821282D7CFB0E0A0E054
:10135000ECEAF9E00C9446088C01009751F4CB01BB
:101360000E9481088C01C801CDB7DEB7E0E10C9482
:101370006208FC01E60FF71F9C0122503109E217B9
:10138000F30708F49DC0D901CD91DC911197C617E0
:10139000D70798F0C530D10530F3CE0104978617F2
:1013A000970708F3C61BD70B2297C193D1936D9370
:1013B0007C93CF010E941D09D6CF5B01AC1ABD0AF8
:1013C0004C018C0E9D1EA091A002B091A102512C47
:1013D000412CF12CE12C109731F580919E029091D7
:1013E0009F028815990509F05CC04616570608F05B
:1013F00058C08091000190910101009741F48DB790
:101400009EB74091040150910501841B950BE8178C
:10141000F90708F055C0F0939F02E0939E02F9018E
:1014200071836083A0CF8D919C91119712966C90DF
:10143000129713967C901397A815B90559F56C016E
:1014400042E0C40ED11CCA14DB0420F1AC014A19DD
:101450005B09DA011296159780F0628273825183DC
:101460004083D9016D937C93E114F10471F0D701AD
:101470001396FC93EE93129776CF22968C0F9D1FB6
:10148000F90191838083F301EFCFF093A102E09300
:10149000A00269CF4816590608F42C017D01D3013A
:1014A0009ACFCB010E9481087C01009749F0AE01E0
:1014B000B8010E94630AC8010E941D09870153CF29
:1014C00010E000E050CFFB01DC0102C001900D9262
:1014D00041505040D8F70895FB01DC0101900D9276
:0A14E0000020E1F70895F894FFCF13
:1014EA000000A2028000000000009501F500220120
:1014FA00E20153013101450100000000BF029202DE
:10150A00EE0268028B027802690265766F000D0AA4
:02151A000000CF
:00000001FF
