:100000000C9458000C9480000C9480000C94800098
:100010000C9480000C9480000C9480000C94800060
:100020000C9480000C9480000C9480000C94800050
:100030000C9480000C9480000C9480000C94800040
:100040000C946A050C9480000C94DA050C94B405A9
:100050000C9480000C9480000C9480000C94800020
:100060000C940C060C948000000000002500280071
:100070002B00040404040404040402020202020229
:10008000030303030303010204081020408001025C
:1000900004081020010204081020000000080002DB
:1000A00001000003040700000000000000002B070F
:1000B00011241FBECFEFD8E0DEBFCDBF22E0A0E409
:1000C000B1E001C01D92A03BB207E1F711E0A0E052
:1000D000B1E0E0E7F6E102C005900D92A034B1076F
:1000E000D9F710E0C8E5D0E004C02197FE010E94D6
:1000F0003E09C735D107C9F70E9464070C94360B37
:100100000C94000090E0FC01E656FF4F2491FC01A6
:10011000EA57FF4F3491FC01EE58FF4FE491EE2374
:10012000C9F0222339F0233001F1A8F4213019F16C
:10013000223029F1F0E0EE0FFF1FE859FF4FA591A3
:10014000B4918FB7F894EC91611126C030953E239D
:100150003C938FBF08952730A9F02830C9F0243090
:1001600049F7809180008F7D03C0809180008F7758
:1001700080938000DFCF84B58F7784BDDBCF84B5DB
:100180008F7DFBCF8091B0008F778093B000D2CF6E
:100190008091B0008F7DF9CF3E2BDACF3FB7F89436
:1001A0008091FB019091FC01A091FD01B091FE01B5
:1001B00026B5A89B05C02F3F19F00196A11DB11DC2
:1001C0003FBFBA2FA92F982F8827BC01CD01620FFE
:1001D000711D811D911D42E0660F771F881F991FB9
:1001E0004A95D1F7089508950895AF92BF92CF929E
:1001F000DF92EF92FF920F931F93CF93DF936C01E7
:100200007B018B01040F151FEB015E01AE18BF08C7
:10021000C017D10759F06991D601ED91FC91019079
:10022000F081E02DC6010995892B79F7C501DF9191
:10023000CF911F910F91FF90EF90DF90CF90BF90E3
:10024000AF900895FC01538D448D252F30E0842F0D
:1002500090E0821B930B541710F0CF9608950197EE
:100260000895FC01918D828D981761F0A28DAE0FDB
:10027000BF2FB11D5D968C91928D9F5F9F73928F62
:1002800090E008958FEF9FEF08952FB7F894809135
:10029000FF0190910002A0910102B09102022FBFD4
:1002A00080930B0290930C02A0930D02B0930E0268
:1002B00083E092E00E94310197FF26C02FB7F894A7
:1002C0008091FF0190910002A0910102B091020281
:1002D0002FBF40910B0250910C0260910D02709162
:1002E0000E02841B950BA60BB70B40910702509191
:1002F00008026091090270910A0284179507A60707
:10030000B707B0F28FEF9FEF0895FC01918D828DBA
:10031000981731F0828DE80FF11D858D90E00895DA
:100320008FEF9FEF0895FC01918D228D892F90E032
:10033000805C9F4F821B91098F739927089583E0FA
:1003400092E00E94930121E0892B09F420E0822FA2
:10035000089580E090E0892B29F00E949F0181118F
:100360000C9400000895FC01A48DA80FB92FB11DB5
:10037000A35ABF4F2C91848D90E001968F739927DB
:10038000848FA689B7892C93A089B1898C918370B9
:1003900080648C93938D848D981306C00288F389B2
:1003A000E02D80818F7D80830895EF92FF920F93DF
:1003B0001F93CF93DF93EC0181E0888F9B8D8C8D11
:1003C00098131AC0E889F989808185FF15C09FB705
:1003D000F894EE89FF896083E889F98980818370C8
:1003E000806480839FBF81E090E0DF91CF911F9177
:1003F0000F91FF90EF900895F62E0B8D10E00F5F98
:100400001F4F0F731127E02E8C8D8E110CC00FB66D
:1004100007FCFACFE889F989808185FFF5CFCE0105
:100420000E94B301F1CFEB8DEC0FFD2FF11DE35ACC
:10043000FF4FF0829FB7F8940B8FEA89FB89808188
:100440008062CFCFCF93DF93EC01888D8823B9F002
:10045000AA89BB89E889F9898C9185FD03C08081CF
:1004600086FD0DC00FB607FCF7CF8C9185FFF2CF4C
:10047000808185FFEDCFCE010E94B301E9CFDF91EE
:10048000CF9108952091A801260F3327331F2132E1
:100490003105ECF42091CC01FC0190E080E02430A7
:1004A00069F082E00895A091A8012191AC0148571C
:1004B0005E4FA40FB52FB11D2C930196861798F3AC
:1004C0008091A801680F6093A80180E0089581E001
:1004D00008951092CC0181E08093CE011092CD015D
:1004E00061E082E10E94820061E083E10E9482007B
:1004F000E9EBF0E080818E7F808380818D7F808337
:1005000088E48093B80085E48093BC000895CF937D
:10051000DF9391E0909387018823B9F0C091B800F0
:10052000D091BA008091BC008A7B8093BC0060E0CF
:1005300082E10E94820060E083E10E9482000E94CA
:100540006902D093BA00C093B800DF91CF910895AB
:100550000895E091F9018091F801E81730F4F0E096
:10056000EE59FE4F808190E008958FEF9FEF089540
:100570009091F9018091F8012FEF3FEF981748F41F
:10058000E92FF0E0EE59FE4F208130E09F5F90931D
:10059000F901C90108958091F8019091F901891B31
:1005A000990B0895CF92DF92EF92FF920F931F93D2
:1005B000CF93DF937C01CB018A012091610122233B
:1005C00089F0EB016B01C40ED51ECC15DD0569F079
:1005D0006991D701ED91FC910190F081E02DC70167
:1005E0000995F3CF642F0E944202C801DF91CF9199
:1005F0001F910F91FF90EF90DF90CF900895CF93D0
:10060000DF931F92CDB7DEB769832091610122236A
:10061000F9F02091F601203258F021E030E0FC01A1
:100620003383228390E080E00F90DF91CF91089593
:100630008091F701E82FF0E0EF5BFE4F9981908306
:100640008F5F8093F7018093F60181E090E0ECCF1B
:1006500061E0CE0101960E944202F7CF90E080E077
:100660000895FC0180819181009711F00C94E009BC
:1006700008950F931F93CF93DF93EC0188819981A5
:10068000009759F02A813B812617370730F081E027
:10069000DF91CF911F910F9108958B016F5F7F4F75
:1006A0000E94690A009759F0998388831B830A8303
:1006B0002C813D81232B59F7FC011082E8CF80E08B
:1006C000E7CFCF93DF93EC01198218821B821A8245
:1006D0001D821C8270E060E00E943903288139810C
:1006E00081110FC02115310519F0C9010E94E009DF
:1006F000198218821D821C821B821A82DF91CF917F
:1007000008951D821C826CE271E0C901DF91CF91D6
:100710000C942F0B85ED8093BC0080918301909108
:100720008401A0918501B09186010796A11DB11D9C
:1007300023E0B695A795979587952A95D1F72091AF
:10074000BC0024FD03C01092CC01089540918301A8
:10075000509184016091850170918601452B462B53
:10076000472B69F30097A105B10541F02AE22A95CC
:10077000F1F700C00197A109B109E1CF8091820191
:100780000C948702CF92DF92EF92FF920F931F9308
:10079000CF93C82F81E08093610180E58093400171
:1007A0001092F7011092F601692F80EA92E00E9400
:1007B000FF026C2F80EA92E00E94FF02C091F601D6
:1007C000C13208F091C00E94CE006B017C01809183
:1007D000CC01811164C082E08093CC0181E08093E0
:1007E000CE018FEF8093CB011092F001C093EF0107
:1007F000A1E4B1E0EFECF1E080E0C813E7C01092B3
:10080000F1018091F101806A8093F1018091CD0125
:10081000813009F0DFC01092CD010E94CE006B0143
:100820007C018091F1018093BB00809183019091C4
:100830008401A0918501B0918601892B8A2B8B2B95
:1008400099F00E94CE0000918301109184012091C3
:100850008501309186016C197D098E099F09061763
:10086000170728073907E0F18091BC0083FDD9CF35
:1008700085EC8093BC000E94CE006B017C018091CE
:10088000CC01823009F4A8C08091CB018F3F61F187
:100890008091CB01803241F18091CB0125C08091C4
:1008A000830190918401A0918501B0918601892BEB
:1008B0008A2B8B2B09F48BCF0E94CE0000918301F1
:1008C0001091840120918501309186016C197D0978
:1008D0008E099F09061717072807390708F077CFF1
:1008E000809182010E9487021092F7011092F60116
:1008F000109261010E94CE006B017C018091CC01BD
:1009000081118CC081E08093CC018093CE019FEF58
:100910009093CB011092F0011092EF018093F101BE
:100920008091F101806A8093F1018091CD01813045
:1009300009F0AAC01092CD010E94CE006B017C018B
:100940008091F1018093BB0080918301909184019B
:10095000A0918501B0918601892B8A2B8B2BA1F068
:100960000E94CE00009183011091840120918501A5
:10097000309186016C197D098E099F0906171707AA
:100980002807390708F46BC08091BC0083FDD8CFDD
:1009900085EC8093BC000E94CE006B017C018091AD
:1009A000CC01813009F472C08091F001811190C0B6
:1009B0008091F001AFECB1E0E2E6F1E090E0981751
:1009C00009F452C02D9121939F5FF9CF9D9191938E
:1009D0008F5F13CF85EE4DCF80918301909184017D
:1009E000A0918501B0918601892B8A2B8B2B09F46C
:1009F00046CF0E94CE000091830110918401209186
:100A00008501309186016C197D098E099F090617B1
:100A100017072807390708F032CF62CF809183018A
:100A200090918401A0918501B0918601892B8A2B38
:100A30008B2B09F463CF0E94CE00009183011091AB
:100A4000840120918501309186016C197D098E0900
:100A50009F09061717072807390708F04FCF80911D
:100A600082010E94870280E01092F9018093F801D0
:100A700080EA92E00E94B802CF911F910F91FF90FF
:100A8000EF90DF90CF90089585EE83CF8091830122
:100A900090918401A0918501B0918601892B8A2BC8
:100AA0008B2B09F47CCF0E94CE0000918301109122
:100AB000840120918501309186016C197D098E0990
:100AC0009F09061717072807390708F068CFC7CF0F
:100AD00081E070CF1F920F920FB60F9211242F93C7
:100AE0003F938F939F93AF93BF938091FF0190911A
:100AF0000002A0910102B09102023091FA0123E0BC
:100B0000230F2D3758F50196A11DB11D2093FA0131
:100B10008093FF0190930002A0930102B093020220
:100B20008091FB019091FC01A091FD01B091FE012B
:100B30000196A11DB11D8093FB019093FC01A09330
:100B4000FD01B093FE01BF91AF919F918F913F91B5
:100B50002F910F900FBE0F901F90189526E8230F2E
:100B60000296A11DB11DD2CF1F920F920FB60F9208
:100B700011242F933F934F935F936F937F938F93A2
:100B80009F93AF93BF93EF93FF9383E092E00E9414
:100B9000B301FF91EF91BF91AF919F918F917F91A1
:100BA0006F915F914F913F912F910F900FBE0F90DA
:100BB0001F9018951F920F920FB60F9211242F932A
:100BC0008F939F93EF93FF93E0911302F0911402A0
:100BD0008081E0911902F0911A0282FD1BC0908180
:100BE00080911C028F5F8F7320911D02821741F04C
:100BF000E0911C02F0E0ED5FFD4F958F80931C02A9
:100C0000FF91EF919F918F912F910F900FBE0F90B9
:100C10001F9018958081F4CF1F920F920FB60F92FC
:100C200011242F933F934F935F936F937F938F93F1
:100C30009F93AF93BF93EF93FF938091B900887F09
:100C4000803609F44AC0F0F5883209F4A7C018F5D7
:100C5000803109F49BC0B8F4882309F4F9C08830C6
:100C600009F494C0FF91EF91BF91AF919F918F9143
:100C70007F916F915F914F913F912F910F900FBE98
:100C80000F901F901895883109F488C0803251F771
:100C90008093CB0114C0803409F49DC040F48033AC
:100CA000B9F38833F9F68093CB0185ECB0C0803579
:100CB00009F485C0883509F496C0883499F60E94F5
:100CC0008A03D0CF883909F48CC038F5883729F0E9
:100CD00050F4883611F0803729F683E08093CC01F8
:100CE0001092CA0157C0883809F47BC0803919F0C6
:100CF000803809F0B7CF8091CA01803208F071C006
:100D0000E091CA0181E08E0F8093CA018091BB00FF
:100D1000F0E0E655FE4F80833DC0803B39F0E0F4C3
:100D2000803A09F479C0883A09F09CCF84E0809336
:100D3000CC011092A9011092A801E091F401F09168
:100D4000F50109958091A80181110FC081E0809380
:100D5000A8011092880109C0803C09F4A6CF883C04
:100D600009F4A3CF883B09F07DCFE091A90181E090
:100D70008E0F8093A901F0E0E857FE4F80818093A9
:100D8000BB009091A9018091A80129C08091F10137
:100D90008093BB0085EC8093BC0064CF9091F00100
:100DA0008091EF01981758F5E091F00181E08E0FE6
:100DB0008093F001F0E0E153FE4F8081E9CFE091B4
:100DC000F00181E08E0F8093F0018091BB00F0E094
:100DD000E153FE4F80839091F0018091EF019817CD
:100DE000C8F285E8D8CFE091F00181E08E0F8093C2
:100DF000F0018091BB00F0E0E153FE4F80838091D1
:100E0000CE0181115CCF81E08093CD0184EA809393
:100E1000BC001092CC0126CF85EC8093BC001092D0
:100E2000CC018091CA01803230F4E091CA01F0E037
:100E3000E655FE4F10826091CA0170E0E091F20128
:100E4000F091F3018AEA91E009951092CA010ACF64
:100E50001092CB0134CFE3E0F2E01382128288EEED
:100E600093E0A0E0B0E084839583A683B7832AE073
:100E700031E03183208325EC30E03587248724EC72
:100E800030E03787268720EC30E0318B208B21EC57
:100E900030E0338B228B22EC30E0358B248B26EC38
:100EA00030E0378B268B118E128E138E148EE0EA73
:100EB000F2E01382128284839583A683B7838CE148
:100EC00091E0918380830895CF93DF93CDB7DEB710
:100ED0006A970FB6F894DEBF0FBECDBF789484B585
:100EE000826084BD84B5816084BD85B5826085BD26
:100EF00085B5816085BD80916E00816080936E00B4
:100F000010928100809181008260809381008091A5
:100F10008100816080938100809180008160809356
:100F200080008091B10084608093B1008091B00016
:100F300081608093B00080917A00846080937A0011
:100F400080917A00826080937A0080917A0081603B
:100F500080937A0080917A00806880937A00109262
:100F6000C100CE0143960E946103CE010D960E94FE
:100F70006103CE0107960E946103E0911302F09194
:100F8000140282E08083E0910F02F091100210823F
:100F9000E0911102F09112028FEC808310921B02FB
:100FA000E0911702F091180286E08083E09115022B
:100FB000F0911602808180618083E0911502F091AA
:100FC0001602808188608083E0911502F0911602FC
:100FD000808180688083E0911502F0911602808103
:100FE0008F7D80831092F9011092F8011092F70121
:100FF0001092F6010E94690283EF90E09093F50150
:101000008093F40184EF90E09093F3018093F201D8
:10101000CE0101960E94610381EF94E10E94C20318
:1010200092EFC92E94E1D92E082F10E00E501B4EDE
:10103000C016D10624F5C6010E94C2038132D8F041
:10104000898F1A8EED80FE808FEFE81AF80AB701BB
:10105000CE0101960E943903882369F029813A81E3
:101060008D819E81BE01675E7F4F820F931F0E941C
:101070002F0BFE82ED82EFEFCE1ADE0AD9CF4D8123
:101080005E8169817A8183E092E00E94F50042E00E
:1010900050E06AE271E083E092E00E94F500CE0148
:1010A00001960E943103CE0107960E943103CE01C2
:1010B0000D960E943103CE0143960E94310380E0D9
:1010C000A82E80E0B82E83E092E00E9493011816CB
:1010D00019060CF04DC0CE0101960E9461030E94DA
:1010E000450197FD1EC08A309105D9F08F8318867F
:1010F0000D811E810F5F1F4FB801CE0101960E9426
:101100003903882361F329813A818D819E81BE0153
:10111000695F7F4F820F931F0E942F0B1E830D83E9
:10112000DECFC980DA80C114D10431F00D811E8177
:1011300076010115110549F542E150E06DE271E0DB
:1011400083E092E00E94F5004D815E8169817A81A1
:1011500083E092E00E94F50042E050E06AE271E034
:1011600083E092E00E94F500CE0101960E943103D7
:10117000A114B10409F4A7CF0E949F01882309F4A8
:10118000A2CF0E9400009FCF74014701FFEF8F1A8A
:101190009F0AF7018081082E000C990B0E94FB0822
:1011A000892B91F7015011090C0D1D1DF80180814B
:1011B000082E000C990B0E94FB08892B31F00E15AC
:1011C0001F0518F001501109F1CFA8014F5F5F4FC3
:1011D0004E195F095E834D83CE14DF0420F4B701FE
:1011E000C6010E94260BE981FA818D819E81E80F5C
:1011F000F91F1082A1CF91110C940409803219F0CB
:1012000089508550C8F708959927882708952F9207
:101210003F924F925F926F927F928F929F92AF9286
:10122000BF92CF92DF92EF92FF920F931F93CF93D3
:10123000DF93CDB7DEB7CA1BDB0B0FB6F894DEBF6A
:101240000FBECDBF09942A88398848885F846E8490
:101250007D848C849B84AA84B984C884DF80EE80DA
:10126000FD800C811B81AA81B981CE0FD11D0FB6E3
:10127000F894DEBF0FBECDBFED010895EE0FFF1F46
:101280000590F491E02D09940F931F93CF93DF9372
:101290008230910510F482E090E0E091AE02F0918E
:1012A000AF0230E020E0B0E0A0E0309799F42115E3
:1012B000310509F44AC0281B390B24303105D8F513
:1012C0008A819B816115710589F1FB01938382837A
:1012D000FE0111C0408151810281138148175907D5
:1012E000E0F04817590799F4109761F012960C93A3
:1012F000129713961C933296CF01DF91CF911F91D5
:101300000F9108950093AE021093AF02F4CF211510
:10131000310551F04217530738F0A901DB019A015A
:10132000BD01DF01F801C1CFEF01F9CF9093AF020A
:101330008093AE02CDCFFE01E20FF31F8193919314
:101340002250310939832883D7CF2091AC023091C4
:10135000AD02232B41F4209102013091030130931F
:10136000AD022093AC0220910001309101012115C2
:10137000310541F42DB73EB740910401509105016C
:10138000241B350BE091AC02F091AD02E217F3079C
:10139000A0F42E1B3F0B2817390778F0AC014E5FE5
:1013A0005F4F2417350748F04E0F5F1F5093AD0273
:1013B0004093AC02819391939FCFF0E0E0E09CCF0B
:1013C000CF93DF930097E9F0FC01329713821282EA
:1013D000A091AE02B091AF02ED0130E020E0109795
:1013E000A1F420813181820F931F2091AC023091B2
:1013F000AD022817390709F061C0F093AD02E09300
:10140000AC02DF91CF910895EA01CE17DF07E8F52E
:101410004A815B819E0141155105B1F7E901FB83CA
:10142000EA8349915991C40FD51FEC17FD0761F468
:10143000808191810296840F951FE90199838883A9
:10144000828193819B838A83F0E0E0E012968D9104
:101450009C9113970097B9F52D913C911197CD016F
:101460000296820F931F2091AC023091AD02281793
:10147000390739F6309751F51092AF021092AE024B
:10148000B093AD02A093AC02BCCFD383C2834081A2
:101490005181840F951FC817D90761F44E5F5F4FC4
:1014A00088819981480F591F518340838A819B818C
:1014B000938382832115310509F0B0CFF093AF02F9
:1014C000E093AE029ECFFD01DC01C0CF13821282F9
:1014D000D7CFB0E0A0E0EFE6FAE00C9409098C0168
:1014E000009751F4CB010E9444098C01C801CDB78B
:1014F000DEB7E0E10C942509FC01E60FF71F9C0123
:1015000022503109E217F30708F49DC0D901CD91AB
:10151000DC911197C617D70798F0C530D10530F385
:10152000CE0104978617970708F3C61BD70B22979F
:10153000C193D1936D937C93CF010E94E009D6CFE4
:101540005B01AC1ABD0A4C018C0E9D1EA091AE022F
:10155000B091AF02512C412CF12CE12C109731F5B8
:101560008091AC029091AD028815990509F05CC09C
:101570004616570608F058C080910001909101016D
:10158000009741F48DB79EB7409104015091050139
:10159000841B950BE817F90708F055C0F093AD02CE
:1015A000E093AC02F90171836083A0CF8D919C918F
:1015B000119712966C90129713967C901397A8151A
:1015C000B90559F56C0142E0C40ED11CCA14DB0404
:1015D00020F1AC014A195B09DA011296159780F0E7
:1015E0006282738251834083D9016D937C93E114AD
:1015F000F10471F0D7011396FC93EE93129776CF16
:1016000022968C0F9D1FF90191838083F301EFCF08
:10161000F093AF02E093AE0269CF4816590608F482
:101620002C017D01D3019ACFCB010E9444097C019A
:10163000009749F0AE01B8010E94260BC8010E9434
:10164000E009870153CF10E000E050CFFB01DC013F
:1016500002C001900D9241505040D8F70895FB010F
:10166000DC0101900D920020E1F70895F894FFCF7E
:101670000000B002800000000000D501F50022014A
:10168000220293013101850100000000FF02D20215
:101690002E03A802CB02B802A9020D0A005265630C
:1016A00065697665642066726F6D20476F3A200029
:00000001FF
