:100000000C9458000C9480000C9480000C94800098
:100010000C9480000C9480000C9480000C94800060
:100020000C9480000C9480000C9480000C94800050
:100030000C9480000C9480000C9480000C94800040
:100040000C946C070C9480000C94DC070C94B6079D
:100050000C9480000C9480000C9480000C94800020
:100060000C940E080C94800000000000250028006D
:100070002B00040404040404040402020202020229
:10008000030303030303010204081020408001025C
:1000900004081020010204081020000000080002DB
:1000A00001000003040700000000000000002D090B
:1000B00011241FBECFEFD8E0DEBFCDBF25E0AAE6FA
:1000C000B1E001C01D92A733B207E1F711E0A0E053
:1000D000B1E0E4E7FEE102C005900D92AA36B10757
:1000E000D9F710E0C8E5D0E004C02197FE010E94D6
:1000F0002C0DC735D107C9F70E9466090C94380F3B
:100100000C9400000895089590E0FC01E656FF4F1E
:100110002491FC01EA57FF4F3491FC01EE58FF4F48
:10012000E491EE23C9F0222339F0233001F1A8F441
:10013000213019F1223029F1F0E0EE0FFF1FE859CC
:10014000FF4FA591B4918FB7F894EC91611126C03F
:1001500030953E233C938FBF08952730A9F0283077
:10016000C9F0243049F7809180008F7D03C08091D1
:1001700080008F7780938000DFCF84B58F7784BD38
:10018000DBCF84B58F7DFBCF8091B0008F778093DC
:10019000B000D2CF8091B0008F7DF9CF3E2BDACF67
:1001A0003FB7F89480912C0490912D04A0912E04D7
:1001B000B0912F0426B5A89B05C02F3F19F00196DA
:1001C000A11DB11D3FBFBA2FA92F982F8827BC01B1
:1001D000CD01620F711D811D911D42E0660F771FD9
:1001E000881F991F4A95D1F708958F929F92AF92D9
:1001F000BF92CF92DF92EF92FF924B015C010E947F
:10020000D0006B017C010E94D0006C197D098E0921
:100210009F09683E734081059105A8F321E0821A89
:100220009108A108B10888EEC80E83E0D81EE11C31
:10023000F11C81149104A104B10429F7FF90EF90FF
:10024000DF90CF90BF90AF909F908F900895AF9226
:10025000BF92CF92DF92EF92FF920F931F93CF93B3
:10026000DF936C017B018B01040F151FEB015E0115
:10027000AE18BF08C017D10759F06991D601ED91AA
:10028000FC910190F081E02DC6010995892B79F749
:10029000C501DF91CF911F910F91FF90EF90DF90FB
:1002A000CF90BF90AF900895FC01538D448D252FC2
:1002B00030E0842F90E0821B930B541710F0CF9600
:1002C000089501970895FC01918D828D981761F032
:1002D000A28DAE0FBF2FB11D5D968C91928D9F5F49
:1002E0009F73928F90E008958FEF9FEF08952FB73F
:1002F000F8948091300490913104A0913204B0912F
:1003000033042FBF8093920490939304A09394049A
:10031000B09395048AE894E00E94630197FF26C099
:100320002FB7F8948091300490913104A091320459
:10033000B09133042FBF4091920450919304609187
:10034000940470919504841B950BA60BB70B4091F8
:100350008E0450918F0460919004709191048417E1
:100360009507A607B707B0F28FEF9FEF0895FC013E
:10037000918D828D981731F0828DE80FF11D858D5A
:1003800090E008958FEF9FEF0895FC01918D228DED
:10039000892F90E0805C9F4F821B91098F73992772
:1003A00008958AE894E00E94C50121E0892B09F4B0
:1003B00020E0822F089580E090E0892B29F00E94B0
:1003C000D10181110C9400000895FC01A48DA80FA7
:1003D000B92FB11DA35ABF4F2C91848D90E0019687
:1003E0008F739927848FA689B7892C93A089B189A7
:1003F0008C91837080648C93938D848D981306C048
:100400000288F389E02D80818F7D80830895EF92AB
:10041000FF920F931F93CF93DF93EC0181E0888FBE
:100420009B8D8C8D98131AC0E889F989808185FF8E
:1004300015C09FB7F894EE89FF896083E889F98930
:1004400080818370806480839FBF81E090E0DF9132
:10045000CF911F910F91FF90EF900895F62E0B8D85
:1004600010E00F5F1F4F0F731127E02E8C8D8E1140
:100470000CC00FB607FCFACFE889F989808185FFA7
:10048000F5CFCE010E94E501F1CFEB8DEC0FFD2FF2
:10049000F11DE35AFF4FF0829FB7F8940B8FEA8962
:1004A000FB8980818062CFCFCF93DF93EC01888D71
:1004B0008823B9F0AA89BB89E889F9898C9185FDDF
:1004C00003C0808186FD0DC00FB607FCF7CF8C916D
:1004D00085FFF2CF808185FFEDCFCE010E94E5013F
:1004E000E9CFDF91CF9108952091AB01260F3327FB
:1004F000331F21323105ECF420916004FC0190E0BF
:1005000080E0243069F082E00895A091AB01219150
:10051000AC0145575E4FA40FB52FB11D2C9301962A
:10052000861798F38091AB01680F6093AB0180E070
:10053000089581E008951092600481E080935F0443
:1005400010923A0461E082E10E94840061E083E15C
:100550000E948400E9EBF0E080818E7F80838081BF
:100560008D7F808388E48093B80085E48093BC000D
:100570000895109239041092380410926704109272
:1005800089040E949B0282E890E090933704809354
:10059000360483E890E09093350480933404089502
:1005A000CF93DF9391E090938A018823B9F0C091B3
:1005B000B800D091BA008091BC008A7B8093BC00C7
:1005C00060E082E10E94840060E083E10E94840098
:1005D0000E949B02D093BA00C093B800DF91CF91E4
:1005E00008958F929F92AF92BF92CF92DF92EF9237
:1005F000FF920F931F93CF93DF93D0918904D13251
:1006000008F0D7C0182FC09188040E94D0006B0159
:100610007C018091600481116BC082E08093600452
:1006200010935F048FEF80935E0410925D04D0936B
:100630005C04A8E6B4E0ECE3F4E080E0D81391C0F9
:1006400010923B0480913B04CC0FC82BC0933B0419
:1006500080913A04813009F088C010923A040E94D7
:10066000D0006B017C0180913B048093BB008091A2
:10067000620490916304A0916404B0916504892B95
:100680008A2B8B2BA1F00E94D00000916204109164
:10069000630420916404309165046C197D098E090E
:1006A0009F09061717072807390708F442C08091E9
:1006B000BC0083FDD8CF85EC8093BC000E94D000A5
:1006C0006B017C0180916004823009F450C08091FC
:1006D0005E048F3F09F46FC080915E04803209F49C
:1006E0006CC080915E04803309F469C084E026C048
:1006F0008091620490916304A0916404B0916504B8
:10070000892B8A2B8B2B09F484CF0E94D0008090F8
:10071000620490906304A0906404B09065046C1926
:100720007D098E099F0986169706A806B90608F066
:1007300070CF809161040E94D00285E0109267041E
:100740001092890410926604DF91CF911F910F914E
:10075000FF90EF90DF90CF90BF90AF909F908F90E1
:1007600008959D9191938F5F69CF85EEA5CF80917C
:10077000620490916304A0916404B0916504892B94
:100780008A2B8B2B09F49ECF0E94D000009162042B
:100790001091630420916404309165046C197D0903
:1007A0008E099F09061717072807390708F08ACF0F
:1007B000C0CF81E0C3CF80E0C1CF82E0BFCF83E074
:1007C000BDCF0895E091390480913804E81730F4E2
:1007D000F0E0E659FE4F808190E008958FEF9FEFA3
:1007E000089590913904809138042FEF3FEF9817C6
:1007F00048F4E92FF0E0E659FE4F208130E09F5F9A
:1008000090933904C9010895809138049091390476
:10081000891B990B0895CF92DF92EF92FF920F936D
:100820001F93CF93DF937C01CB018A012091660453
:10083000222389F0EB016B01C40ED51ECC15DD051A
:1008400069F06991D701ED91FC910190F081E02D63
:10085000C7010995F3CF642F0E947402C801DF918C
:10086000CF911F910F91FF90EF90DF90CF9008955F
:10087000CF93DF931F92CDB7DEB7698320916604D3
:100880002223F9F020918904203258F021E030E051
:10089000FC013383228390E080E00F90DF91CF91C1
:1008A000089580916704E82FF0E0E859FB4F9981A3
:1008B00090838F5F809367048093890481E090E048
:1008C000ECCF61E0CE0101960E947402F7CF682F51
:1008D00087E295E00C9438041F93CF93DF93EC01EB
:1008E000162F81E08093660480E58093880410923F
:1008F0006704109289048D2F90E00E946704CE0156
:1009000099270E946704612F87E295E00E943804CE
:1009100081E00E94F10265E070E080E090E0DF910C
:10092000CF911F910C94F50090E080E0089542E093
:1009300050E06AE271E08AE894E00C942701CF93DA
:10094000DF93FC0144815581608171818AE894E0E4
:100950000E942701EC010E9497048C0F9D1FDF91DC
:10096000CF910895CF93DF93FC0101900020E9F728
:100970003197AF01481B590BBC018AE894E00E94F3
:100980002701EC010E9497048C0F9D1FDF91CF91EE
:100990000895CF92DF92EF92FF920F931F93CF9320
:1009A000DF93EC0181E08093660480E58093880406
:1009B00010926704109289048D2F90E00E946704C2
:1009C000CE0199270E94670481E00E94F1020E94F3
:1009D000D0006B017C0180916004811163C081E0D3
:1009E0008093600480935F049FEF90935E04109265
:1009F0005D0410925C0480933B0480913B04806A08
:100A000080933B0480913A04813009F082C01092B7
:100A10003A040E94D0006B017C0180913B048093DA
:100A2000BB008091620490916304A0916404B09132
:100A30006504892B8A2B8B2BA1F00E94D00000919A
:100A400062041091630420916404309165046C1970
:100A50007D098E099F09061717072807390708F42B
:100A600042C08091BC0083FDD8CF85EC8093BC0050
:100A70000E94D0006B017C0180916004813009F4F8
:100A80004AC080915D04811168C080915D04ACE32F
:100A9000B4E0EAE6F1E090E0981751F12D9121934E
:100AA0009F5FFACF8091620490916304A0916404E7
:100AB000B0916504892B8A2B8B2B09F48CCF0E9473
:100AC000D00000916204109163042091640430917D
:100AD00065046C197D098E099F09061717072807F9
:100AE000390708F078CF809161040E94D00280E03D
:100AF000109239048093380487E295E00E94F10354
:100B0000DF91CF911F910F91FF90EF90DF90CF90E9
:100B1000089585EEABCF8091620490916304A0911B
:100B20006404B0916504892B8A2B8B2B09F4A4CF24
:100B30000E94D0000091620410916304209164042B
:100B4000309165046C197D098E099F0906171707F6
:100B50002807390708F090CFC6CF81E098CF0F93D0
:100B60001F93CF93DF93EC0188819981009759F00F
:100B70002A813B812617370730F081E0DF91CF9142
:100B80001F910F9108958B016F5F7F4F0E94570E49
:100B9000009759F0998388831B830A832C813D81B8
:100BA000232B59F7FC011082E8CF80E0E7CFEF92CA
:100BB000FF920F931F93CF93DF9300D0CDB7DEB793
:100BC0008C0169831A82FC01E480F580FFEFEF1A43
:100BD000FF0AB7010E94AF05882381F0F801208148
:100BE000318184819581BE016F5F7F4F820F931F9A
:100BF0000E94310FF801F582E48281E00F900F909E
:100C0000DF91CF911F910F91FF90EF900895CF93B7
:100C1000DF93EC0188819981009711F00E94CE0D3D
:100C2000198218821D821C821B821A82DF91CF9149
:100C30000895EF92FF920F931F93CF93DF93EC01F0
:100C40007B018A01BA010E94AF0581110BC0CE0160
:100C50000E940706CE01DF91CF911F910F91FF9067
:100C6000EF9008951D830C83B701888199810E94BC
:100C7000310FF0CFFC011182108213821282158293
:100C8000148250E040E06CE271E00C941906EF929F
:100C9000FF920F931F93CF93DF938C01EB010E9480
:100CA000B902C8010E943A06D695DC2FCC27D79509
:100CB000C795CE018F509C4E0E94C904CE50DC4E89
:100CC0007E01E80EF11CCE15DF055CF4CE010E941A
:100CD000C904813220F0682FC8010E94D7052196EF
:100CE000F2CFC801DF91CF911F910F91FF90EF904C
:100CF0000895CF93DF93EC01FB018617970749F026
:100D0000608171816115710541F0448155810E94B6
:100D10001906CE01DF91CF9108950E940706F9CF01
:100D2000FC011182108213821282158214820C94AB
:100D30007906FC0180819181009711F00C94CE0D11
:100D4000089585ED8093BC008091620490916304C6
:100D5000A0916404B09165040796A11DB11D23E024
:100D6000B695A795979587952A95D1F72091BC00C0
:100D700024FD03C0109260040895409162045091D4
:100D800063046091640470916504452B462B472BE6
:100D900069F30097A105B10541F02AE22A95F1F720
:100DA00000C00197A109B109E1CF809161040C94C1
:100DB000D0029F92AF92BF92CF92DF92EF92FF92BA
:100DC0000F931F93CF93DF9300D000D000D0CDB707
:100DD000DEB75C010E94B902CE0101960E943A067C
:100DE00007E510E0680187E1C81AD10850E040E04B
:100DF0006CE271E0CE0101960E9419067801E6E1ED
:100E0000EE1AF1080E151F058CF1C7010E94C904E6
:100E1000982EF0E2F81730F5082E000C990B0E947E
:100E2000170F892B29F0692DCE0101960E94D70555
:100E30002D813E81F501848195812817390791F430
:100E400089819A81608171810097D1F06115710566
:100E500031F4232B11F1FC01808190E01CC00E9431
:100E6000280F19C0FFEFEF1AFF0ACCCF085E1F4F03
:100E7000073D83E1180709F0B5CF10E000E015C089
:100E80006115710551F0232B41F0FB01808190E049
:100E9000919581959109892B29F7C6018054910973
:100EA00068E170E00E94040D8B01CE0101960E9462
:100EB0009906C80126960FB6F894DEBF0FBECDBFC7
:100EC000DF91CF911F910F91FF90EF90DF90CF9026
:100ED000BF90AF909F9008951F920F920FB60F9200
:100EE00011242F933F938F939F93AF93BF93809140
:100EF000300490913104A0913204B09133043091C8
:100F00002B0423E0230F2D3758F50196A11DB11DA9
:100F100020932B048093300490933104A0933204E7
:100F2000B093330480912C0490912D04A0912E0451
:100F3000B0912F040196A11DB11D80932C049093B4
:100F40002D04A0932E04B0932F04BF91AF919F91D5
:100F50008F913F912F910F900FBE0F901F9018957A
:100F600026E8230F0296A11DB11DD2CF1F920F922A
:100F70000FB60F9211242F933F934F935F936F936C
:100F80007F938F939F93AF93BF93EF93FF938AE8E1
:100F900094E00E94E501FF91EF91BF91AF919F9185
:100FA0008F917F916F915F914F913F912F910F9012
:100FB0000FBE0F901F9018951F920F920FB60F92B1
:100FC00011242F938F939F93EF93FF93E0919A04B3
:100FD000F0919B048081E091A004F091A10482FD36
:100FE0001BC090818091A3048F5F8F732091A40414
:100FF000821741F0E091A304F0E0E657FB4F958F94
:101000008093A304FF91EF919F918F912F910F9067
:101010000FBE0F901F9018958081F4CF1F920F92F2
:101020000FB60F9211242F933F934F935F936F93BB
:101030007F938F939F93AF93BF93EF93FF93809191
:10104000B900887F803609F44AC0F0F5883209F487
:10105000A7C018F5803109F49BC0B8F4882309F4BF
:10106000F9C0883009F494C0FF91EF91BF91AF911E
:101070009F918F917F916F915F914F913F912F91B0
:101080000F900FBE0F901F901895883109F488C0FB
:10109000803251F780935E0414C0803409F49DC0FF
:1010A00040F48033B9F38833F9F680935E0485EC1D
:1010B000B0C0803509F485C0883509F496C08834FD
:1010C00099F60E94A106D0CF883909F48CC038F572
:1010D000883729F050F4883611F0803729F683E0FC
:1010E000809360041092CD0157C0883809F47BC00A
:1010F000803919F0803809F0B7CF8091CD01803266
:1011000008F071C0E091CD0181E08E0F8093CD0198
:101110008091BB00F0E0E355FE4F80833DC0803BF3
:1011200039F0E0F4803A09F479C0883A09F09CCFAC
:1011300084E0809360041092AC011092AB01E091C6
:101140003604F091370409958091AB0181110FC0ED
:1011500081E08093AB0110928B0109C0803C09F4BF
:10116000A6CF883C09F4A3CF883B09F07DCFE0915E
:10117000AC0181E08E0F8093AC01F0E0E557FE4FAB
:1011800080818093BB009091AC018091AB0129C01C
:1011900080913B048093BB0085EC8093BC0064CFBE
:1011A00090915D0480915C04981758F5E0915D047E
:1011B00081E08E0F80935D04F0E0E45CFB4F808162
:1011C000E9CFE0915D0481E08E0F80935D04809112
:1011D000BB00F0E0E45CFB4F808390915D04809164
:1011E0005C049817C8F285E8D8CFE0915D0481E0EF
:1011F0008E0F80935D048091BB00F0E0E45CFB4FB8
:10120000808380915F0481115CCF81E080933A04F8
:1012100084EA8093BC001092600426CF85EC809312
:10122000BC00109260048091CD01803230F4E091D6
:10123000CD01F0E0E355FE4F10826091CD0170E0EA
:10124000E0913404F09135048DEA91E00995109213
:10125000CD010ACF10925E0434CFEAE8F4E01382A5
:10126000128288EE93E0A0E0B0E084839583A683A9
:10127000B7832AE031E03183208325EC30E03587E5
:10128000248724EC30E03787268720EC30E0318B50
:10129000208B21EC30E0338B228B22EC30E0358B3D
:1012A000248B26EC30E0378B268B118E128E138E1A
:1012B000148EE7E2F5E01382128284839583A6837D
:1012C000B7838CE191E0918380830895CF93DF937E
:1012D000CDB7DEB7E0970FB6F894DEBF0FBECDBF37
:1012E000789484B5826084BD84B5816084BD85B501
:1012F000826085BD85B5816085BD80916E0081600D
:1013000080936E00109281008091810082608093B2
:1013100081008091810081608093810080918000B4
:101320008160809380008091B10084608093B100DF
:101330008091B00081608093B00080917A008460D9
:1013400080937A0080917A00826080937A00809105
:101350007A00816080937A0080917A00806880931F
:101360007A001092C100CE0185960E943A06CE0105
:101370004F960E943A06CE0149960E943A06E091A5
:101380009A04F0919B0482E08083E0919604F091AE
:1013900097041082E0919804F09199048FEC808377
:1013A0001092A204E0919E04F0919F0486E0808355
:1013B000E0919C04F0919D04808180618083E091A4
:1013C0009C04F0919D04808188608083E0919C045E
:1013D000F0919D04808180688083E0919C04F0916D
:1013E0009D0480818F7D808363E070E0CE01019653
:1013F0000E944706CE0101960E949F04CE010196ED
:101400000E949906CE0149960E949906CE014F96F8
:101410000E949906CE0185960E949906B6E02B2E71
:10142000A0E04A2EA0E05A2EE8E13E2EF4E6BF2EC0
:101430008AE894E00E94C501181619060CF027C22C
:10144000CE018B960E943A060E94770197FD09C053
:101450008A30910531F0682FCE018B960E94D70516
:10146000F3CF8BA49CA48114910439F00FA518A983
:1014700074010115110509F050C0CE0101960E94BA
:101480003A06CE0107960E943A06CE010D960E94BA
:101490003A06CE0143960E943A06CE018B960E94F0
:1014A0009F04CE0185960E943A0610E000E0F12CE0
:1014B000E12C8FA598A90817190708F087C08BA5FC
:1014C0009CA5FC01E00FF11F009721F410922A0463
:1014D000EAE2F4E020812C3709F055C02E9CC001CF
:1014E0002F9C900D1124BE016B5D7F4F21E030E0F9
:1014F0002C0F3D1F820F931F0E94790650E040E0A1
:101500006CE271E0CE0185960E9419063FEFE31A66
:10151000F30A0F5F1F4FCDCF760167012FEFC21A7D
:10152000D20AF7018081082E000C990B0E94C10C91
:10153000892B91F701501109080D191DF8018081BF
:10154000082E000C990B0E94C10C892B31F00E154E
:101550001F0518F001501109F1CF0F5F1F4FA801AF
:101560004E195F0958AB4FA78E149F0420F4B701A2
:10157000C4010E941F0FEBA5FCA58FA598A9E80F39
:10158000F91F10827ACF892B11F410922A04D0808F
:10159000BE016B5D7F4FCE0149960E9490066D2D76
:1015A000CE0149960E94D705811104C0CE0149960B
:1015B0000E940706BE01675E7F4FCE0185960E949E
:1015C0007906CE0149960E949906A3CF8D819E810E
:1015D000892B09F444C109811A816DE271E0C801C7
:1015E0000E94280F892B09F05EC10B891C89ED84AC
:1015F000FE84CF80D8840E94B90281E090E00E94EE
:10160000C904982E8093290410922804109227046C
:1016100010922604839DA001112480E8989E9001D9
:101620001124F60101900020E9F7BF01EEE5F3E097
:1016300090E080E06C197D094F5B5F4F882E861724
:10164000970708F071C08436910509F066C0B09222
:10165000280474E6872EF70101900020E9F7AF0116
:1016600066E9C62E62E0D62EF60190E080E04E19C3
:101670005F09B9016F507C4EE82E8417950708F07A
:101680005DC08436910509F052C0B092270454E63B
:10169000E52EF80101900020E9F7AF01EEECF1E052
:1016A00090E080E0401B510B2F5C3B4EA82E84172E
:1016B000950708F04DC08436910509F042C0B092FC
:1016C000260444E6A42E61E0690D81E090E00E94CA
:1016D0006C040F8118850E94B902692D80915E0308
:1016E00090915F030E946C04F12C912C8F2D90E05F
:1016F000F801E80FF91F6081662369F101968815EA
:1017000099054CF5880F991FFC01E25AFC4F808126
:1017100091810E946C04F394E9CFDA01A80FB91FFC
:10172000A193B19301968ACF8093280494CFDB01D3
:10173000A80FB91FA193B19301969ECF8093270460
:10174000A8CFB901680F791F619371930196AECF4D
:1017500080932604B8CF64EF71E080E090E00E94AF
:10176000F500BE01635F7F4FCE0149960E9490064F
:101770008B889C888114910409F449C00F89188DC5
:1017800001151105B1F08D8D9E8D080F191FB8013F
:10179000CE0149960E94AF058823C9F1298D3A8D63
:1017A0008D8D9E8DB401820F931F0E94310F1E8F6D
:1017B0000D8FBE01675E7F4FCE014F960E9490064F
:1017C000CE0149960E9499069F8CF8A06FEF6E0D8E
:1017D00080919602909197020E946C04092D1F2D12
:1017E000480166246394712CF12CF2E0CF0ED11CD9
:1017F0006E147F048CF4F40161914F01F601808135
:1018000091810E946C04FFEF6F1A7F0AEECFCE0128
:1018100049960E940706CDCF6FEF6A0D8091CE01E9
:101820009091CF010E946C0490EDE92E91E0F92E89
:10183000DD24D394DA1458F4F80161918F01F70193
:10184000819191917F010E946C04D394F3CF81E345
:1018500091E00E94B204CE014F960E949906CE01FB
:1018600085960E949906CE0143960E949906CE0164
:101870000D960E949906CE0107960E949906CE0108
:1018800001960E949906CE018B960E9499064114FA
:10189000510409F4CDCD0E94D101882309F4C4CDAF
:1018A0000E940000BDCD66E571E0C8010E94280FCE
:1018B000892BE1F4BE01695F7F4FCE0149960E94FA
:1018C0009006CE0149960E94D9068C01CE01499618
:1018D0000E949906B801CE0149960E944706CE01A2
:1018E00049960E949F04CE014996B7CF6BE571E0FF
:1018F000C8010E94280F892B09F0B1CFBE01695F92
:101900007F4FCE0149960E949006CE0149960E94D3
:10191000D9066C01CE0149960E9499060E94B9022F
:101920007601F694FE2CEE24F794E79487010F508D
:101930001C4EFFE8EF1AFBEEFF0AE016F10639F045
:1019400060E0C8010E946C040F5F1F4FF6CF3C9C03
:1019500070013D9CF00C11248701005C1F4F28E5AD
:10196000E20EF11CE016F10639F060E0C8010E94B9
:101970006C040F5F1F4FF6CF82E691E00E94B20425
:101980006ECF91110C94CA0C803219F08950855099
:10199000C8F708959927882708952F923F924F926C
:1019A0005F926F927F928F929F92AF92BF92CF92EF
:1019B000DF92EF92FF920F931F93CF93DF93CDB7F8
:1019C000DEB7CA1BDB0B0FB6F894DEBF0FBECDBF70
:1019D00009942A88398848885F846E847D848C8441
:1019E0009B84AA84B984C884DF80EE80FD800C814A
:1019F0001B81AA81B981CE0FD11D0FB6F894DEBF2D
:101A00000FBECDBFED01089597FB072E16F400948D
:101A100007D077FD09D00E94180D07FC05D03EF4D1
:101A2000909581959F4F0895709561957F4F08958A
:101A3000AA1BBB1B51E107C0AA1FBB1FA617B707F4
:101A400010F0A61BB70B881F991F5A95A9F7809510
:101A50009095BC01CD010895EE0FFF1F0590F49104
:101A6000E02D09940F931F93CF93DF93823091055C
:101A700010F482E090E0E0913505F091360530E019
:101A800020E0B0E0A0E0309799F42115310509F489
:101A90004AC0281B390B24303105D8F58A819B8137
:101AA0006115710589F1FB0193838283FE0111C0E9
:101AB000408151810281138148175907E0F048178E
:101AC000590799F4109761F012960C931297139698
:101AD0001C933296CF01DF91CF911F910F91089502
:101AE0000093350510933605F4CF2115310551F0DB
:101AF0004217530738F0A901DB019A01BD01DF014C
:101B0000F801C1CFEF01F9CF9093360580933505E9
:101B1000CDCFFE01E20FF31F819391932250310943
:101B200039832883D7CF2091330530913405232B77
:101B300041F4209102013091030130933405209348
:101B4000330520910001309101012115310541F447
:101B50002DB73EB74091040150910501241B350B70
:101B6000E0913305F0913405E217F307A0F42E1B42
:101B70003F0B2817390778F0AC014E5F5F4F2417F1
:101B8000350748F04E0F5F1F5093340540933305DF
:101B9000819391939FCFF0E0E0E09CCFCF93DF93D0
:101BA0000097E9F0FC01329713821282A09135056B
:101BB000B0913605ED0130E020E01097A1F42081CE
:101BC0003181820F931F20913305309134052817FE
:101BD000390709F061C0F0933405E0933305DF91D4
:101BE000CF910895EA01CE17DF07E8F54A815B81BE
:101BF0009E0141155105B1F7E901FB83EA83499143
:101C00005991C40FD51FEC17FD0761F480819181B4
:101C10000296840F951FE9019983888382819381BD
:101C20009B838A83F0E0E0E012968D919C9113975C
:101C30000097B9F52D913C911197CD010296820F35
:101C4000931F20913305309134052817390739F651
:101C5000309751F51092360510923505B093340542
:101C6000A0933305BCCFD383C28340815181840FBD
:101C7000951FC817D90761F44E5F5F4F888199811E
:101C8000480F591F518340838A819B8193838283AC
:101C90002115310509F0B0CFF0933605E0933505F5
:101CA0009ECFFD01DC01C0CF13821282D7CFB0E0FE
:101CB000A0E0EDE5FEE00C94CF0C8C01009751F410
:101CC000CB010E94320D8C01C801CDB7DEB7E0E137
:101CD0000C94EB0CFC01E60FF71F9C01225031091C
:101CE000E217F30708F49DC0D901CD91DC9111975B
:101CF000C617D70798F0C530D10530F3CE01049749
:101D00008617970708F3C61BD70B2297C193D19369
:101D10006D937C93CF010E94CE0DD6CF5B01AC1AA0
:101D2000BD0A4C018C0E9D1EA0913505B091360563
:101D3000512C412CF12CE12C109731F58091330579
:101D4000909134058815990509F05CC04616570630
:101D500008F058C08091000190910101009741F472
:101D60008DB79EB74091040150910501841B950BDE
:101D7000E817F90708F055C0F0933405E0933305F0
:101D8000F90171836083A0CF8D919C911197129678
:101D90006C90129713967C901397A815B90559F576
:101DA0006C0142E0C40ED11CCA14DB0420F1AC016A
:101DB0004A195B09DA011296159780F062827382E4
:101DC00051834083D9016D937C93E114F10471F048
:101DD000D7011396FC93EE93129776CF22968C0F31
:101DE0009D1FF90191838083F301EFCFF0933605B6
:101DF000E093350569CF4816590608F42C017D019A
:101E0000D3019ACFCB010E94320D7C01009749F09B
:101E1000AE01B8010E941F0FC8010E94CE0D8701BC
:101E200053CF10E000E050CF85FD0C94CA0C8062C7
:101E300091110C94CA0C81568A51D8F70895FB0170
:101E4000DC0102C001900D9241505040D8F7089536
:101E5000FB01DC018D91019080190110D9F3990BE0
:101E60000895FB01DC0101900D920020E1F7089537
:041E7000F894FFCF14
:101E7400000037058000000000000702270154011C
:101E84005402C5016301B7010000000038040B04CB
:101E94009404E1030404F103E2030D0A00616464A1
:101EA4000044617461207772697474656E20746F84
:101EB40020454550524F4D207375636365737366B7
:101EC400756C6C792E00726561640064656C657470
:0A1ED400650064656C6574656400C8
:00000001FF
