:100000000C9458000C9480000C9480000C94800098
:100010000C9480000C9480000C9480000C94800060
:100020000C9480000C9480000C9480000C94800050
:100030000C9480000C9480000C9480000C94800040
:100040000C946A050C9480000C94DA050C94B405A9
:100050000C9480000C9480000C9480000C94800020
:100060000C940C060C948000000000002500280071
:100070002B00040404040404040402020202020229
:10008000030303030303010204081020408001025C
:1000900004081020010204081020000000080002DB
:1000A00001000003040700000000000000002B070F
:1000B00011241FBECFEFD8E0DEBFCDBF22E0AEE2FD
:1000C000B1E001C01D92AE39B207E1F711E0A0E046
:1000D000B1E0ECE5F6E102C005900D92AE32B10759
:1000E000D9F710E0C8E5D0E004C02197FE010E94D6
:1000F0003409C735D107C9F70E9464070C942C0B4B
:100100000C94000090E0FC01E656FF4F2491FC01A6
:10011000EA57FF4F3491FC01EE58FF4FE491EE2374
:10012000C9F0222339F0233001F1A8F4213019F16C
:10013000223029F1F0E0EE0FFF1FE859FF4FA591A3
:10014000B4918FB7F894EC91611126C030953E239D
:100150003C938FBF08952730A9F02830C9F0243090
:1001600049F7809180008F7D03C0809180008F7758
:1001700080938000DFCF84B58F7784BDDBCF84B5DB
:100180008F7DFBCF8091B0008F778093B000D2CF6E
:100190008091B0008F7DF9CF3E2BDACF3FB7F89436
:1001A0008091E9019091EA01A091EB01B091EC01FD
:1001B00026B5A89B05C02F3F19F00196A11DB11DC2
:1001C0003FBFBA2FA92F982F8827BC01CD01620FFE
:1001D000711D811D911D42E0660F771F881F991FB9
:1001E0004A95D1F7089508950895AF92BF92CF929E
:1001F000DF92EF92FF920F931F93CF93DF936C01E7
:100200007B018B01040F151FEB015E01AE18BF08C7
:10021000C017D10759F06991D601ED91FC91019079
:10022000F081E02DC6010995892B79F7C501DF9191
:10023000CF911F910F91FF90EF90DF90CF90BF90E3
:10024000AF900895FC01538D448D252F30E0842F0D
:1002500090E0821B930B541710F0CF9608950197EE
:100260000895FC01918D828D981761F0A28DAE0FDB
:10027000BF2FB11D5D968C91928D9F5F9F73928F62
:1002800090E008958FEF9FEF08952FB7F894809135
:10029000ED019091EE01A091EF01B091F0012FBF1F
:1002A0008093F9019093FA01A093FB01B093FC01B4
:1002B00081EF91E00E94310197FF26C02FB7F8949B
:1002C0008091ED019091EE01A091EF01B091F001CC
:1002D0002FBF4091F9015091FA016091FB0170919B
:1002E000FC01841B950BA60BB70B4091F5015091B7
:1002F000F6016091F7017091F80184179507A60740
:10030000B707B0F28FEF9FEF0895FC01918D828DBA
:10031000981731F0828DE80FF11D858D90E00895DA
:100320008FEF9FEF0895FC01918D228D892F90E032
:10033000805C9F4F821B91098F739927089581EFED
:1003400091E00E94930121E0892B09F420E0822FA3
:10035000089580E090E0892B29F00E949F0181118F
:100360000C9400000895FC01A48DA80FB92FB11DB5
:10037000A35ABF4F2C91848D90E001968F739927DB
:10038000848FA689B7892C93A089B1898C918370B9
:1003900080648C93938D848D981306C00288F389B2
:1003A000E02D80818F7D80830895EF92FF920F93DF
:1003B0001F93CF93DF93EC0181E0888F9B8D8C8D11
:1003C00098131AC0E889F989808185FF15C09FB705
:1003D000F894EE89FF896083E889F98980818370C8
:1003E000806480839FBF81E090E0DF91CF911F9177
:1003F0000F91FF90EF900895F62E0B8D10E00F5F98
:100400001F4F0F731127E02E8C8D8E110CC00FB66D
:1004100007FCFACFE889F989808185FFF5CFCE0105
:100420000E94B301F1CFEB8DEC0FFD2FF11DE35ACC
:10043000FF4FF0829FB7F8940B8FEA89FB89808188
:100440008062CFCFCF93DF93EC01888D8823B9F002
:10045000AA89BB89E889F9898C9185FD03C08081CF
:1004600086FD0DC00FB607FCF7CF8C9185FFF2CF4C
:10047000808185FFEDCFCE010E94B301E9CFDF91EE
:10048000CF91089520919601260F3327331F2132F3
:100490003105ECF42091BA01FC0190E080E02430B9
:1004A00069F082E00895A09196012191AC014A582B
:1004B0005E4FA40FB52FB11D2C930196861798F3AC
:1004C00080919601680F6093960180E0089581E025
:1004D00008951092BA0181E08093BC011092BB0193
:1004E00061E082E10E94820061E083E10E9482007B
:1004F000E9EBF0E080818E7F808380818D7F808337
:1005000088E48093B80085E48093BC000895CF937D
:10051000DF9391E0909375018823B9F0C091B80002
:10052000D091BA008091BC008A7B8093BC0060E0CF
:1005300082E10E94820060E083E10E9482000E94CA
:100540006902D093BA00C093B800DF91CF910895AB
:100550000895E091E7018091E601E81730F4F0E0BA
:10056000E05BFE4F808190E008958FEF9FEF08954C
:100570009091E7018091E6012FEF3FEF981748F443
:10058000E92FF0E0E05BFE4F208130E09F5F909329
:10059000E701C90108958091E6019091E701891B67
:1005A000990B0895CF92DF92EF92FF920F931F93D2
:1005B000CF93DF937C01CB018A0120914F0122234D
:1005C00089F0EB016B01C40ED51ECC15DD0569F079
:1005D0006991D701ED91FC910190F081E02DC70167
:1005E0000995F3CF642F0E944202C801DF91CF9199
:1005F0001F910F91FF90EF90DF90CF900895CF93D0
:10060000DF931F92CDB7DEB7698320914F0122237C
:10061000F9F02091E401203258F021E030E0FC01B3
:100620003383228390E080E00F90DF91CF91089593
:100630008091E501E82FF0E0E15DFE4F9981908324
:100640008F5F8093E5018093E40181E090E0ECCF3F
:1006500061E0CE0101960E944202F7CF90E080E077
:100660000895FC0180819181009711F00C94D609C6
:1006700008950F931F93CF93DF93EC0188819981A5
:10068000009759F02A813B812617370730F081E027
:10069000DF91CF911F910F9108958B016F5F7F4F75
:1006A0000E945F0A009759F0998388831B830A830D
:1006B0002C813D81232B59F7FC011082E8CF80E08B
:1006C000E7CFCF93DF93EC01198218821B821A8245
:1006D0001D821C8270E060E00E943903288139810C
:1006E00081110FC02115310519F0C9010E94D609E9
:1006F000198218821D821C821B821A82DF91CF917F
:1007000008951D821C826CE271E0C901DF91CF91D6
:100710000C94250B85ED8093BC0080917101909124
:100720007201A0917301B09174010796A11DB11DD2
:1007300023E0B695A795979587952A95D1F72091AF
:10074000BC0024FD03C01092BA01089540917101CC
:10075000509172016091730170917401452B462B89
:10076000472B69F30097A105B10541F02AE22A95CC
:10077000F1F700C00197A109B109E1CF80917001A3
:100780000C948702CF92DF92EF92FF920F931F9308
:10079000CF93C82F81E080934F0180E580932E0195
:1007A0001092E5011092E401692F8EE892E00E9418
:1007B000FF026C2F8EE892E00E94FF02C091E401DC
:1007C000C13208F091C00E94CE006B017C01809183
:1007D000BA01811164C082E08093BA0181E0809304
:1007E000BC018FEF8093B9011092DE01C093DD014F
:1007F000AFE2B1E0EDEBF1E080E0C813E7C01092AA
:10080000DF018091DF01806A8093DF018091BB016D
:10081000813009F0DFC01092BB010E94CE006B0155
:100820007C018091DF018093BB00809171019091E8
:100830007201A0917301B0917401892B8A2B8B2BCB
:1008400099F00E94CE0000917101109172012091E7
:100850007301309174016C197D098E099F09061787
:10086000170728073907E0F18091BC0083FDD9CF35
:1008700085EC8093BC000E94CE006B017C018091CE
:10088000BA01823009F4A8C08091B9018F3F61F1AB
:100890008091B901803241F18091B90125C08091E8
:1008A000710190917201A0917301B0917401892B33
:1008B0008A2B8B2B09F48BCF0E94CE000091710103
:1008C0001091720120917301309174016C197D09AE
:1008D0008E099F09061717072807390708F077CFF1
:1008E000809170010E9487021092E5011092E4014C
:1008F00010924F010E94CE006B017C018091BA01E1
:1009000081118CC081E08093BA018093BC019FEF7C
:100910009093B9011092DE011092DD018093DF0106
:100920008091DF01806A8093DF018091BB0181307B
:1009300009F0AAC01092BB010E94CE006B017C019D
:100940008091DF018093BB008091710190917201D1
:10095000A0917301B0917401892B8A2B8B2BA1F08C
:100960000E94CE00009171011091720120917301DB
:10097000309174016C197D098E099F0906171707BC
:100980002807390708F46BC08091BC0083FDD8CFDD
:1009900085EC8093BC000E94CE006B017C018091AD
:1009A000BA01813009F472C08091DE01811190C0DA
:1009B0008091DE01ADEBB1E0E0E5F1E090E0981769
:1009C00009F452C02D9121939F5FF9CF9D9191938E
:1009D0008F5F13CF85EE4DCF8091710190917201A1
:1009E000A0917301B0917401892B8A2B8B2B09F490
:1009F00046CF0E94CE0000917101109172012091AA
:100A00007301309174016C197D098E099F090617D5
:100A100017072807390708F032CF62CF809171019C
:100A200090917201A0917301B0917401892B8A2B6E
:100A30008B2B09F463CF0E94CE00009171011091BD
:100A4000720120917301309174016C197D098E0936
:100A50009F09061717072807390708F04FCF80911D
:100A600070010E94870280E01092E7018093E60106
:100A70008EE892E00E94B802CF911F910F91FF90F3
:100A8000EF90DF90CF90089585EE83CF8091710134
:100A900090917201A0917301B0917401892B8A2BFE
:100AA0008B2B09F47CCF0E94CE0000917101109134
:100AB000720120917301309174016C197D098E09C6
:100AC0009F09061717072807390708F068CFC7CF0F
:100AD00081E070CF1F920F920FB60F9211242F93C7
:100AE0003F938F939F93AF93BF938091ED0190912C
:100AF000EE01A091EF01B091F0013091E80123E007
:100B0000230F2D3758F50196A11DB11D2093E80143
:100B10008093ED019093EE01A093EF01B093F0016B
:100B20008091E9019091EA01A091EB01B091EC0173
:100B30000196A11DB11D8093E9019093EA01A09354
:100B4000EB01B093EC01BF91AF919F918F913F91D9
:100B50002F910F900FBE0F901F90189526E8230F2E
:100B60000296A11DB11DD2CF1F920F920FB60F9208
:100B700011242F933F934F935F936F937F938F93A2
:100B80009F93AF93BF93EF93FF9381EF91E00E9408
:100B9000B301FF91EF91BF91AF919F918F917F91A1
:100BA0006F915F914F913F912F910F900FBE0F90DA
:100BB0001F9018951F920F920FB60F9211242F932A
:100BC0008F939F93EF93FF93E0910102F0910202C4
:100BD0008081E0910702F091080282FD1BC09081A4
:100BE00080910A028F5F8F7320910B02821741F070
:100BF000E0910A02F0E0EF50FE4F958F80930A02D9
:100C0000FF91EF919F918F912F910F900FBE0F90B9
:100C10001F9018958081F4CF1F920F920FB60F92FC
:100C200011242F933F934F935F936F937F938F93F1
:100C30009F93AF93BF93EF93FF938091B900887F09
:100C4000803609F44AC0F0F5883209F4A7C018F5D7
:100C5000803109F49BC0B8F4882309F4F9C08830C6
:100C600009F494C0FF91EF91BF91AF919F918F9143
:100C70007F916F915F914F913F912F910F900FBE98
:100C80000F901F901895883109F488C0803251F771
:100C90008093B90114C0803409F49DC040F48033BE
:100CA000B9F38833F9F68093B90185ECB0C080358B
:100CB00009F485C0883509F496C0883499F60E94F5
:100CC0008A03D0CF883909F48CC038F5883729F0E9
:100CD00050F4883611F0803729F683E08093BA010A
:100CE0001092B80157C0883809F47BC0803919F0D8
:100CF000803809F0B7CF8091B801803208F071C018
:100D0000E091B80181E08E0F8093B8018091BB0023
:100D1000F0E0E856FE4F80833DC0803B39F0E0F4C0
:100D2000803A09F479C0883A09F09CCF84E0809336
:100D3000BA011092970110929601E091E201F091B0
:100D4000E30109958091960181110FC081E08093A4
:100D500096011092760109C0803C09F4A6CF883C28
:100D600009F4A3CF883B09F07DCFE091970181E0A2
:100D70008E0F80939701F0E0EA58FE4F80818093B8
:100D8000BB00909197018091960129C08091DF016D
:100D90008093BB0085EC8093BC0064CF9091DE0112
:100DA0008091DD01981758F5E091DE0181E08E0F0A
:100DB0008093DE01F0E0E354FE4F8081E9CFE091C3
:100DC000DE0181E08E0F8093DE018091BB00F0E0B8
:100DD000E354FE4F80839091DE018091DD019817EE
:100DE000C8F285E8D8CFE091DE0181E08E0F8093D4
:100DF000DE018091BB00F0E0E354FE4F80838091E0
:100E0000BC0181115CCF81E08093BB0184EA8093B7
:100E1000BC001092BA0126CF85EC8093BC001092E2
:100E2000BA018091B801803230F4E091B801F0E06D
:100E3000E856FE4F10826091B80170E0E091E00149
:100E4000F091E10188E991E009951092B8010ACF8B
:100E50001092B90134CFE1EFF1E01382128288EEF3
:100E600093E0A0E0B0E084839583A683B7832AE073
:100E700031E03183208325EC30E03587248724EC72
:100E800030E03787268720EC30E0318B208B21EC57
:100E900030E0338B228B22EC30E0358B248B26EC38
:100EA00030E0378B268B118E128E138E148EEEE867
:100EB000F2E01382128284839583A683B7838CE148
:100EC00091E0918380830895CF93DF93CDB7DEB710
:100ED0006A970FB6F894DEBF0FBECDBF789484B585
:100EE000826084BD84B5816084BD85B5826085BD26
:100EF00085B5816085BD80916E00816080936E00B4
:100F000010928100809181008260809381008091A5
:100F10008100816080938100809180008160809356
:100F200080008091B10084608093B1008091B00016
:100F300081608093B00080917A00846080937A0011
:100F400080917A00826080937A0080917A0081603B
:100F500080937A0080917A00806880937A00109262
:100F6000C100CE0143960E946103CE010D960E94FE
:100F70006103CE0107960E946103E0910102F091A6
:100F8000020282E08083E091FD01F091FE01108277
:100F9000E091FF01F09100028FEC80831092090232
:100FA000E0910502F091060286E08083E091030261
:100FB000F0910402808180618083E0910302F091CE
:100FC0000402808188608083E0910302F091040232
:100FD000808180688083E0910302F0910402808127
:100FE0008F7D80831092E7011092E6011092E50157
:100FF0001092E4010E94690283EF90E09093E30174
:101000008093E20184EF90E09093E1018093E0010E
:10101000CE0101960E94610381EF94E10E94C20318
:1010200092EFC92E94E1D92E082F10E00E501B4EDE
:10103000C016D10624F5C6010E94C2038132D8F041
:10104000898F1A8EED80FE808FEFE81AF80AB701BB
:10105000CE0101960E943903882369F029813A81E3
:101060008D819E81BE01675E7F4F820F931F0E941C
:10107000250BFE82ED82EFEFCE1ADE0AD9CF4D812D
:101080005E8169817A8181EF91E00E94F50042E002
:1010900050E06AE271E081EF91E00E94F500CE013C
:1010A00001960E943103CE0107960E943103CE01C2
:1010B0000D960E943103CE0143960E94310380E0D9
:1010C000A82E80E0B82E81EF91E00E9493011816BF
:1010D00019060CF043C0CE0101960E9461030E94E4
:1010E00045010D811E8197FD1CC08A309105C9F014
:1010F0008F8318860F5F1F4FB801CE0101960E94A3
:101100003903882361F329813A818D819E81BE0153
:10111000695F7F4F820F931F0E94250B1E830D83F3
:10112000DECFC980DA80C114D10421F07601011527
:10113000110509F54D815E8169817A8181EF91E028
:101140000E94F50042E050E06AE271E081EF91E038
:101150000E94F500CE0101960E943103A114B10452
:1011600009F4B1CF0E949F01882309F4ACCF0E94FB
:101170000000A9CF74014701FFEF8F1A9F0AF70102
:101180008081082E000C990B0E94F108892B91F7A1
:10119000015011090C0D1D1DF8018081082E000C55
:1011A000990B0E94F108892B31F00E151F0518F0DC
:1011B00001501109F1CFA8014F5F5F4F4E195F0930
:1011C0005E834D83CE14DF0420F4B701C6010E9474
:1011D0001C0BE981FA818D819E81E80FF91F108235
:1011E000A9CF91110C94FA08803219F089508550DA
:1011F000C8F708959927882708952F923F924F9214
:101200005F926F927F928F929F92AF92BF92CF9296
:10121000DF92EF92FF920F931F93CF93DF93CDB79F
:10122000DEB7CA1BDB0B0FB6F894DEBF0FBECDBF17
:1012300009942A88398848885F846E847D848C84E8
:101240009B84AA84B984C884DF80EE80FD800C81F1
:101250001B81AA81B981CE0FD11D0FB6F894DEBFD4
:101260000FBECDBFED010895EE0FFF1F0590F49165
:10127000E02D09940F931F93CF93DF938230910554
:1012800010F482E090E0E0919C02F0919D0230E049
:1012900020E0B0E0A0E0309799F42115310509F481
:1012A0004AC0281B390B24303105D8F58A819B812F
:1012B0006115710589F1FB0193838283FE0111C0E1
:1012C000408151810281138148175907E0F0481786
:1012D000590799F4109761F012960C931297139690
:1012E0001C933296CF01DF91CF911F910F910895FA
:1012F00000939C0210939D02F4CF2115310551F00B
:101300004217530738F0A901DB019A01BD01DF0143
:10131000F801C1CFEF01F9CF90939D0280939C0219
:10132000CDCFFE01E20FF31F81939193225031093B
:1013300039832883D7CF20919A0230919B02232BA7
:1013400041F4209102013091030130939B022093DC
:101350009A0220910001309101012115310541F4DB
:101360002DB73EB74091040150910501241B350B68
:10137000E0919A02F0919B02E217F307A0F42E1B72
:101380003F0B2817390778F0AC014E5F5F4F2417E9
:10139000350748F04E0F5F1F50939B0240939A020F
:1013A000819391939FCFF0E0E0E09CCFCF93DF93C8
:1013B0000097E9F0FC01329713821282A0919C02FF
:1013C000B0919D02ED0130E020E01097A1F4208162
:1013D0003181820F931F20919A0230919B0228172E
:1013E000390709F061C0F0939B02E0939A02DF9104
:1013F000CF910895EA01CE17DF07E8F54A815B81B6
:101400009E0141155105B1F7E901FB83EA8349913A
:101410005991C40FD51FEC17FD0761F480819181AC
:101420000296840F951FE9019983888382819381B5
:101430009B838A83F0E0E0E012968D919C91139754
:101440000097B9F52D913C911197CD010296820F2D
:10145000931F20919A0230919B022817390739F681
:10146000309751F510929D0210929C02B0939B020E
:10147000A0939A02BCCFD383C28340815181840F51
:10148000951FC817D90761F44E5F5F4F8881998116
:10149000480F591F518340838A819B8193838283A4
:1014A0002115310509F0B0CFF0939D02E0939C0225
:1014B0009ECFFD01DC01C0CF13821282D7CFB0E0F6
:1014C000A0E0E5E6FAE00C94FF088C01009751F4E7
:1014D000CB010E943A098C01C801CDB7DEB7E0E12B
:1014E0000C941B09FC01E60FF71F9C0122503109E7
:1014F000E217F30708F49DC0D901CD91DC91119753
:10150000C617D70798F0C530D10530F3CE01049740
:101510008617970708F3C61BD70B2297C193D19361
:101520006D937C93CF010E94D609D6CF5B01AC1A94
:10153000BD0A4C018C0E9D1EA0919C02B0919D0293
:10154000512C412CF12CE12C109731F580919A020D
:1015500090919B028815990509F05CC046165706C4
:1015600008F058C08091000190910101009741F46A
:101570008DB79EB74091040150910501841B950BD6
:10158000E817F90708F055C0F0939B02E0939A0220
:10159000F90171836083A0CF8D919C911197129670
:1015A0006C90129713967C901397A815B90559F56E
:1015B0006C0142E0C40ED11CCA14DB0420F1AC0162
:1015C0004A195B09DA011296159780F062827382DC
:1015D00051834083D9016D937C93E114F10471F040
:1015E000D7011396FC93EE93129776CF22968C0F29
:1015F0009D1FF90191838083F301EFCFF0939D024A
:10160000E0939C0269CF4816590608F42C017D012D
:10161000D3019ACFCB010E943A097C01009749F08F
:10162000AE01B8010E941C0BC8010E94D6098701B7
:1016300053CF10E000E050CFFB01DC0102C001906D
:101640000D9241505040D8F70895FB01DC01019004
:0C1650000D920020E1F70895F894FFCF00
:10165C0000009E02800000000000D501F500220170
:10166C00220293013101850100000000FF02D20229
:0E167C002E03A802CB02B802A9020D0A00003C
:00000001FF
