:100000000C9458000C9480000C9480000C94800098
:100010000C9480000C9480000C9480000C94800060
:100020000C9480000C9480000C9480000C94800050
:100030000C9480000C9480000C9480000C94800040
:100040000C94F4050C9480000C9464060C943E0609
:100050000C9480000C9480000C9480000C94800020
:100060000C9496060C9480000000000025002800E7
:100070002B00040404040404040402020202020229
:10008000030303030303010204081020408001025C
:1000900004081020010204081020000000080002DB
:1000A0000100000304070000000000000000B50785
:1000B00011241FBECFEFD8E0DEBFCDBF22E0ACE3FE
:1000C000B1E001C01D92AC3AB207E1F711E0A0E047
:1000D000B1E0ECE6F8E102C005900D92AC33B10757
:1000E000D9F710E0C8E5D0E004C02197FE010E94D6
:1000F000310AC735D107C9F70E94EE070C94340CBA
:100100000C94000090E0FC01E656FF4F2491FC01A6
:10011000EA57FF4F3491FC01EE58FF4FE491EE2374
:10012000C9F0222339F0233001F1A8F4213019F16C
:10013000223029F1F0E0EE0FFF1FE859FF4FA591A3
:10014000B4918FB7F894EC91611126C030953E239D
:100150003C938FBF08952730A9F02830C9F0243090
:1001600049F7809180008F7D03C0809180008F7758
:1001700080938000DFCF84B58F7784BDDBCF84B5DB
:100180008F7DFBCF8091B0008F778093B000D2CF6E
:100190008091B0008F7DF9CF3E2BDACF3FB7F89436
:1001A0008091F7019091F801A091F901B091FA01C5
:1001B00026B5A89B05C02F3F19F00196A11DB11DC2
:1001C0003FBFBA2FA92F982F8827BC01CD01620FFE
:1001D000711D811D911D42E0660F771F881F991FB9
:1001E0004A95D1F7089508950895AF92BF92CF929E
:1001F000DF92EF92FF920F931F93CF93DF936C01E7
:100200007B018B01040F151FEB015E01AE18BF08C7
:10021000C017D10759F06991D601ED91FC91019079
:10022000F081E02DC6010995892B79F7C501DF9191
:10023000CF911F910F91FF90EF90DF90CF90BF90E3
:10024000AF900895CF93DF93FC0144815581608185
:1002500071818FEF91E00E94F500EC0142E050E0E7
:100260006AE271E08FEF91E00E94F5008C0F9D1F14
:10027000DF91CF910895FC01538D448D252F30E0FF
:10028000842F90E0821B930B541710F0CF960895A3
:1002900001970895FC01918D828D981761F0A28DD0
:1002A000AE0FBF2FB11D5D968C91928D9F5F9F7396
:1002B000928F90E008958FEF9FEF08952FB7F894F5
:1002C0008091FB019091FC01A091FD01B091FE0194
:1002D0002FBF8093070290930802A0930902B09366
:1002E0000A028FEF91E00E944A0197FF26C02FB7C4
:1002F000F8948091FB019091FC01A091FD01B091D7
:10030000FE012FBF4091070250910802609109023F
:1003100070910A02841B950BA60BB70B4091030248
:1003200050910402609105027091060284179507AE
:10033000A607B707B0F28FEF9FEF0895FC01918DEC
:10034000828D981731F0828DE80FF11D858D90E038
:1003500008958FEF9FEF0895FC01918D228D892FD5
:1003600090E0805C9F4F821B91098F7399270895BD
:100370008FEF91E00E94AC0121E0892B09F420E08D
:10038000822F089580E090E0892B29F00E94B80127
:1003900081110C9400000895FC01A48DA80FB92FC1
:1003A000B11DA35ABF4F2C91848D90E001968F739D
:1003B0009927848FA689B7892C93A089B1898C91BC
:1003C000837080648C93938D848D981306C002880B
:1003D000F389E02D80818F7D80830895EF92FF92D5
:1003E0000F931F93CF93DF93EC0181E0888F9B8D58
:1003F0008C8D98131AC0E889F989808185FF15C012
:100400009FB7F894EE89FF896083E889F989808134
:100410008370806480839FBF81E090E0DF91CF9103
:100420001F910F91FF90EF900895F62E0B8D10E025
:100430000F5F1F4F0F731127E02E8C8D8E110CC094
:100440000FB607FCFACFE889F989808185FFF5CFDF
:10045000CE010E94CC01F1CFEB8DEC0FFD2FF11DF1
:10046000E35AFF4FF0829FB7F8940B8FEA89FB891C
:1004700080818062CFCFCF93DF93EC01888D88237A
:10048000B9F0AA89BB89E889F9898C9185FD03C0F7
:10049000808186FD0DC00FB607FCF7CF8C9185FFDC
:1004A000F2CF808185FFEDCFCE010E94CC01E9CF54
:1004B000DF91CF9108952091A401260F3327331F98
:1004C00021323105ECF42091C801FC0190E080E07C
:1004D000243069F082E00895A091A4012191AC013B
:1004E0004C575E4FA40FB52FB11D2C930196861764
:1004F00098F38091A401680F6093A40180E00895AF
:1005000081E008951092C80181E08093CA011092A1
:10051000C90161E082E10E94820061E083E10E9402
:100520008200E9EBF0E080818E7F808380818D7F87
:10053000808388E48093B80085E48093BC000895AC
:10054000CF93DF9391E0909383018823B9F0C0911A
:10055000B800D091BA008091BC008A7B8093BC0027
:1005600060E082E10E94820060E083E10E948200FC
:100570000E948202D093BA00C093B800DF91CF915D
:1005800008950895E091F5018091F401E81730F4A1
:10059000F0E0E25AFE4F808190E008958FEF9FEFE8
:1005A00008959091F5018091F4012FEF3FEF981796
:1005B00048F4E92FF0E0E25AFE4F208130E09F5FDF
:1005C0009093F501C90108958091F4019091F5018E
:1005D000891B990B0895CF92DF92EF92FF920F93B0
:1005E0001F93CF93DF937C01CB018A0120915D01A2
:1005F000222389F0EB016B01C40ED51ECC15DD055D
:1006000069F06991D701ED91FC910190F081E02DA5
:10061000C7010995F3CF642F0E945B02C801DF91E7
:10062000CF911F910F91FF90EF90DF90CF900895A1
:10063000CF93DF931F92CDB7DEB7698320915D0121
:100640002223F9F02091F201203258F021E030E02D
:10065000FC013383228390E080E00F90DF91CF9103
:1006600008958091F301E82FF0E0E35CFE4F99815B
:1006700090838F5F8093F3018093F20181E090E09B
:10068000ECCF61E0CE0101960E945B02F7CF90E0D3
:1006900080E008950F931F93CF93DF93EC0188813F
:1006A0009981009759F02A813B812617370730F04E
:1006B00081E0DF91CF911F910F9108958B016F5FC2
:1006C0007F4F0E945C0B009759F0998388831B83AE
:1006D0000A832C813D81232B59F7FC011082E8CF3E
:1006E00080E0E7CFEF92FF920F931F93CF93DF93BA
:1006F0006115710541F480E0DF91CF911F910F9159
:10070000FF90EF90089541155105B1F07B01EC0188
:100710000C811D81040F151FB8010E944A03882314
:1007200051F3288139818C819D81B701820F931FFC
:100730000E942D0C1D830C8381E0DECFCF93DF93CD
:10074000EC0188819981009711F00E94D30A1982E7
:1007500018821D821C821B821A82DF91CF9108951C
:10076000EF92FF920F931F93CF93DF938C017B0146
:100770006115710561F0EB0109900020E9F72197FF
:10078000C61BD70BBE010E944A0381110BC0C801D2
:100790000E949E03C801DF91CF911F910F91FF909E
:1007A000EF900895F801D583C483B70180819181CA
:1007B0000E942D0CEFCFEF92FF920F931F93CF93D8
:1007C000DF93EC017B01198218821B821A821D8241
:1007D0001C82FB0101900020E9F731978F01061B75
:1007E000170BB8010E944A03811109C0CE01DF91A5
:1007F000CF911F910F91FF90EF900C949E031D835A
:100800000C83B70188819981DF91CF911F910F915E
:10081000FF90EF900C942D0CFC018081918100974A
:1008200011F00C94D30A089585ED8093BC0080915B
:100830007F0190918001A0918101B0918201079682
:10084000A11DB11D23E0B695A795979587952A958B
:10085000D1F72091BC0024FD03C01092C801089577
:1008600040917F01509180016091810170918201DE
:10087000452B462B472B69F30097A105B10541F0A5
:100880002AE22A95F1F700C00197A109B109E1CF49
:1008900080917E010C94A002CF92DF92EF92FF92A2
:1008A0000F931F93CF93C82F81E080935D0180E564
:1008B00080933C011092F3011092F201692F8CE9B0
:1008C00092E00E9418036C2F8CE992E00E941803BA
:1008D000C091F201C13208F091C00E94CE006B01BC
:1008E0007C018091C801811164C082E08093C801BD
:1008F00081E08093CA018FEF8093C7011092EC01D1
:10090000C093EB01ADE3B1E0EBECF1E080E0C813A4
:10091000E7C01092ED018091ED01806A8093ED01B6
:100920008091C901813009F0DFC01092C9010E9495
:10093000CE006B017C018091ED018093BB00809122
:100940007F0190918001A0918101B0918201892B5A
:100950008A2B8B2B99F00E94CE0000917F01109181
:10096000800120918101309182016C197D098E09ED
:100970009F090617170728073907E0F18091BC0087
:1009800083FDD9CF85EC8093BC000E94CE006B0123
:100990007C018091C801823009F4A8C08091C70110
:1009A0008F3F61F18091C701803241F18091C70191
:1009B00025C080917F0190918001A0918101B0912B
:1009C0008201892B8A2B8B2B09F48BCF0E94CE00BE
:1009D00000917F011091800120918101309182016D
:1009E0006C197D098E099F09061717072807390713
:1009F00008F077CF80917E010E94A0021092F3014F
:100A00001092F20110925D010E94CE006B017C01F8
:100A10008091C80181118CC081E08093C8018093CE
:100A2000CA019FEF9093C7011092EC011092EB0165
:100A30008093ED018091ED01806A8093ED018091BA
:100A4000C901813009F0AAC01092C9010E94CE00EC
:100A50006B017C018091ED018093BB0080917F014F
:100A600090918001A0918101B0918201892B8A2B04
:100A70008B2BA1F00E94CE0000917F01109180018C
:100A800020918101309182016C197D098E099F09A5
:100A9000061717072807390708F46BC08091BC00B8
:100AA00083FDD8CF85EC8093BC000E94CE006B0103
:100AB0007C018091C801813009F472C08091EC0101
:100AC000811190C08091EC01ABECB1E0EEE5F1E07A
:100AD00090E0981709F452C02D9121939F5FF9CFB0
:100AE0009D9191938F5F13CF85EE4DCF80917F01C4
:100AF00090918001A0918101B0918201892B8A2B74
:100B00008B2B09F446CF0E94CE0000917F011091FB
:100B1000800120918101309182016C197D098E093B
:100B20009F09061717072807390708F032CF62CF49
:100B300080917F0190918001A0918101B09182010B
:100B4000892B8A2B8B2B09F463CF0E94CE00009156
:100B50007F011091800120918101309182016C19F7
:100B60007D098E099F09061717072807390708F01E
:100B70004FCF80917E010E94A00280E01092F5018B
:100B80008093F4018CE992E00E94D102CF911F91F1
:100B90000F91FF90EF90DF90CF90089585EE83CF77
:100BA00080917F0190918001A0918101B09182019B
:100BB000892B8A2B8B2B09F47CCF0E94CE000091CD
:100BC0007F011091800120918101309182016C1987
:100BD0007D098E099F09061717072807390708F0AE
:100BE00068CFC7CF81E070CF1F920F920FB60F92E0
:100BF00011242F933F938F939F93AF93BF93809133
:100C0000FB019091FC01A091FD01B091FE0130919A
:100C1000F60123E0230F2D3758F50196A11DB11DD4
:100C20002093F6018093FB019093FC01A093FD01BA
:100C3000B093FE018091F7019091F801A091F90124
:100C4000B091FA010196A11DB11D8093F701909317
:100C5000F801A093F901B093FA01BF91AF919F9170
:100C60008F913F912F910F900FBE0F901F9018956D
:100C700026E8230F0296A11DB11DD2CF1F920F921D
:100C80000FB60F9211242F933F934F935F936F935F
:100C90007F938F939F93AF93BF93EF93FF938FEFC8
:100CA00091E00E94CC01FF91EF91BF91AF919F9194
:100CB0008F917F916F915F914F913F912F910F9005
:100CC0000FBE0F901F9018951F920F920FB60F92A4
:100CD00011242F938F939F93EF93FF93E0910F0233
:100CE000F09110028081E0911502F091160282FDD0
:100CF0001BC09081809118028F5F8F732091190221
:100D0000821741F0E0911802F0E0E150FE4F958F1C
:100D100080931802FF91EF919F918F912F910F90E7
:100D20000FBE0F901F9018958081F4CF1F920F92E5
:100D30000FB60F9211242F933F934F935F936F93AE
:100D40007F938F939F93AF93BF93EF93FF93809184
:100D5000B900887F803609F44AC0F0F5883209F47A
:100D6000A7C018F5803109F49BC0B8F4882309F4B2
:100D7000F9C0883009F494C0FF91EF91BF91AF9111
:100D80009F918F917F916F915F914F913F912F91A3
:100D90000F900FBE0F901F901895883109F488C0EE
:100DA000803251F78093C70114C0803409F49DC08C
:100DB00040F48033B9F38833F9F68093C70185ECAA
:100DC000B0C0803509F485C0883509F496C08834F0
:100DD00099F60E941404D0CF883909F48CC038F5F4
:100DE000883729F050F4883611F0803729F683E0EF
:100DF0008093C8011092C60157C0883809F47BC09F
:100E0000803919F0803809F0B7CF8091C60180325F
:100E100008F071C0E091C60181E08E0F8093C60199
:100E20008091BB00F0E0EA55FE4F80833DC0803BDF
:100E300039F0E0F4803A09F479C0883A09F09CCF9F
:100E400084E08093C8011092A5011092A401E09162
:100E5000F001F091F10109958091A40181110FC079
:100E600081E08093A4011092840109C0803C09F4C0
:100E7000A6CF883C09F4A3CF883B09F07DCFE09151
:100E8000A50181E08E0F8093A501F0E0EC57FE4FA5
:100E900080818093BB009091A5018091A40129C01D
:100EA0008091ED018093BB0085EC8093BC0064CF02
:100EB0009091EC018091EB01981758F5E091EC01CD
:100EC00081E08E0F8093EC01F0E0E553FE4F8081CE
:100ED000E9CFE091EC0181E08E0F8093EC018091ED
:100EE000BB00F0E0E553FE4F80839091EC018091D0
:100EF000EB019817C8F285E8D8CFE091EC0181E0CA
:100F00008E0F8093EC018091BB00F0E0E553FE4F23
:100F100080838091CA0181115CCF81E08093C901F7
:100F200084EA8093BC001092C80126CF85EC8093A0
:100F3000BC001092C8018091C601803230F4E0916B
:100F4000C601F0E0EA55FE4F10826091C60170E0E4
:100F5000E091EE01F091EF0186EA91E0099510929F
:100F6000C6010ACF1092C70134CFEFEFF1E0138230
:100F7000128288EE93E0A0E0B0E084839583A6839C
:100F8000B7832AE031E03183208325EC30E03587D8
:100F9000248724EC30E03787268720EC30E0318B43
:100FA000208B21EC30E0338B228B22EC30E0358B30
:100FB000248B26EC30E0378B268B118E128E138E0D
:100FC000148EECE9F2E01382128284839583A68367
:100FD000B7838CE191E0918380830895CF93DF9371
:100FE000CDB7DEB76A970FB6F894DEBF0FBECDBFA0
:100FF000789484B5826084BD84B5816084BD85B5F4
:10100000826085BD85B5816085BD80916E008160FF
:1010100080936E00109281008091810082608093A5
:1010200081008091810081608093810080918000A7
:101030008160809380008091B10084608093B100D2
:101040008091B00081608093B00080917A008460CC
:1010500080937A0080917A00826080937A008091F8
:101060007A00816080937A0080917A008068809312
:101070007A001092C1006CE271E0CE0143960E94AA
:10108000DB036CE271E0CE010D960E94DB036CE2A3
:1010900071E0CE0107960E94DB03E0910F02F09110
:1010A000100282E08083E0910B02F0910C0210822A
:1010B000E0910D02F0910E028FEC808310921702E6
:1010C000E0911302F091140286E08083E091110216
:1010D000F0911202808180618083E0911102F09191
:1010E0001202808188608083E0911102F0911202E7
:1010F000808180688083E0911102F09112028081EA
:101100008F7D80831092F5011092F4011092F3010B
:101110001092F2010E94820283EF90E09093F1011D
:101120008093F00184EF90E09093EF018093EE01C3
:101130006CE271E0CE0101960E94DB0381EF94E145
:101140000E944C0492EFE92E94E1F92E082F10E052
:101150000E501B4EE016F106A4F4C7010E944C0489
:10116000813258F0898F1A8E41E050E0BE01675EEF
:101170007F4FCE0101960E9472038FEFE81AF80AA2
:10118000E9CFCE0101960E942201CE0101960E9474
:101190000C04CE0107960E940C04CE010D960E940D
:1011A0000C04CE0143960E940C0480E0A82E80E03F
:1011B000B82E8FEF91E00E94AC01181619060CF0C2
:1011C000CAC06CE271E0CE0143960E94DB030E942C
:1011D0005E0197FD0FC08A30910561F089831A8204
:1011E00041E050E0BE016F5F7F4FCE0143960E9409
:1011F0007203EDCFCB88DC88C114D10439F00F899C
:10120000188D76010115110509F0B2C08F89988DEE
:10121000892B61F0EB88FC886CE270E0C7010E94CA
:10122000220C8C010E191F09892B11F40FEF1FEFEF
:101230006CE271E0CE010D960E94DB038F89988DE0
:101240000097B1F078018017910708F47C01EB89D1
:10125000FC89EE0DFF1DD08010826B897C89CE0148
:101260000D960E94B003EB89FC89EE0DFF1DD08224
:101270000F5F1F4FCF88D88CC016D10628F09C2D49
:101280008D2D6801092F182F6CE271E0CE010796B1
:101290000E94DB03EF88F88CCE14DF04C0F40E1537
:1012A0001F0508F47801EB89FC89EE0DFF1D108104
:1012B00010826B897C896C0D7D1DCE0107960E9482
:1012C000B0038B899C89E80EF91EF70110836DE24B
:1012D00071E0CE0101960E94DB0349895A896D8530
:1012E0007E85CE0101960E947203811104C0CE0159
:1012F00001960E949E03CE0101960E942201CE011A
:1013000001960E940C0464E371E0CE0101960E94F4
:10131000DB034B855C856F817885CE0101960E9449
:101320007203811104C0CE0101960E949E03CE017A
:1013300001960E942201CE0101960E940C04CE016A
:1013400007960E940C04CE010D960E940C04CE015B
:1013500043960E940C04A114B10409F42ACF0E9400
:10136000B801882309F425CF0E94000022CF740120
:101370004701EFEF8E1A9E0AF7018081082E000CBC
:10138000990B0E94EE09892B91F7015011090C0D60
:101390001D1DF8018081082E000C990B0E94EE099A
:1013A000892B31F00E151F0518F001501109F1CFEE
:1013B000A8014F5F5F4F4E195F09588F4F8BCE14B6
:1013C000DF0420F4B701C6010E94190CEB89FC89E7
:1013D0008F89988DE80FF91F108218CF91110C9406
:1013E000F709803219F089508550C8F70895992778
:1013F000882708952F923F924F925F926F927F922B
:101400008F929F92AF92BF92CF92DF92EF92FF9214
:101410000F931F93CF93DF93CDB7DEB7CA1BDB0BC0
:101420000FB6F894DEBF0FBECDBF09942A88398865
:1014300048885F846E847D848C849B84AA84B9846C
:10144000C884DF80EE80FD800C811B81AA81B98178
:10145000CE0FD11D0FB6F894DEBF0FBECDBFED018C
:101460000895EE0FFF1F0590F491E02D09940F935E
:101470001F93CF93DF938230910510F482E090E0C8
:10148000E091AA02F091AB0230E020E0B0E0A0E0F1
:10149000309799F42115310509F44AC0281B390BFE
:1014A00024303105D8F58A819B816115710589F158
:1014B000FB0193838283FE0111C04081518102812F
:1014C000138148175907E0F04817590799F4109706
:1014D00061F012960C93129713961C933296CF01DB
:1014E000DF91CF911F910F9108950093AA0210935D
:1014F000AB02F4CF2115310551F04217530738F0F4
:10150000A901DB019A01BD01DF01F801C1CFEF01A3
:10151000F9CF9093AB028093AA02CDCFFE01E20FE8
:10152000F31F819391932250310939832883D7CFB8
:101530002091A8023091A902232B41F420910201AD
:10154000309103013093A9022093A8022091000159
:10155000309101012115310541F42DB73EB740917D
:10156000040150910501241B350BE091A802F09174
:10157000A902E217F307A0F42E1B3F0B2817390727
:1015800078F0AC014E5F5F4F2417350748F04E0FDF
:101590005F1F5093A9024093A802819391939FCF1C
:1015A000F0E0E0E09CCFCF93DF930097E9F0FC01FF
:1015B000329713821282A091AA02B091AB02ED0180
:1015C00030E020E01097A1F420813181820F931F39
:1015D0002091A8023091A9022817390709F061C0AB
:1015E000F093A902E093A802DF91CF910895EA0158
:1015F000CE17DF07E8F54A815B819E014115510551
:10160000B1F7E901FB83EA8349915991C40FD51FD2
:10161000EC17FD0761F4808191810296840F951F7C
:10162000E90199838883828193819B838A83F0E097
:10163000E0E012968D919C9113970097B9F52D914A
:101640003C911197CD010296820F931F2091A80221
:101650003091A9022817390739F6309751F51092C1
:10166000AB021092AA02B093A902A093A802BCCF29
:10167000D383C28340815181840F951FC817D90736
:1016800061F44E5F5F4F88819981480F591F5183E4
:1016900040838A819B81938382832115310509F0E0
:1016A000B0CFF093AB02E093AA029ECFFD01DC0124
:1016B000C0CF13821282D7CFB0E0A0E0E2E6FBE019
:1016C0000C94FC098C01009751F4CB010E94370A5D
:1016D0008C01C801CDB7DEB7E0E10C94180AFC011B
:1016E000E60FF71F9C0122503109E217F30708F4B7
:1016F0009DC0D901CD91DC911197C617D70798F0FD
:10170000C530D10530F3CE0104978617970708F34B
:10171000C61BD70B2297C193D1936D937C93CF01B6
:101720000E94D30AD6CF5B01AC1ABD0A4C018C0EC5
:101730009D1EA091AA02B091AB02512C412CF12C1C
:10174000E12C109731F58091A8029091A90288159B
:10175000990509F05CC04616570608F058C08091FC
:10176000000190910101009741F48DB79EB740911F
:10177000040150910501841B950BE817F90708F047
:1017800055C0F093A902E093A802F9017183608328
:10179000A0CF8D919C91119712966C9012971396F1
:1017A0007C901397A815B90559F56C0142E0C40E59
:1017B000D11CCA14DB0420F1AC014A195B09DA011F
:1017C0001296159780F06282738251834083D9010B
:1017D0006D937C93E114F10471F0D7011396FC939F
:1017E000EE93129776CF22968C0F9D1FF90191836D
:1017F0008083F301EFCFF093AB02E093AA0269CFAD
:101800004816590608F42C017D01D3019ACFCB016B
:101810000E94370A7C01009749F0AE01B8010E948E
:10182000190CC8010E94D30A870153CF10E000E0D1
:1018300050CFFB01DC0102C001900D92415050409D
:10184000D8F70895FC018191861721F08823D9F7F4
:10185000992708953197CF010895FB01DC0101908C
:0C1860000D920020E1F70895F894FFCFEE
:10186C000000AC02800000000000EE01F5003B011E
:10187C003B02AC014A019E01000000001803EB0280
:10188C004703C102E402D102C2020D0A004E616D8F
:0C189C00653A20004C6F67696E3A20002E
:00000001FF
