:100000000C9458000C9480000C9480000C94800098
:100010000C9480000C9480000C9480000C94800060
:100020000C9480000C9480000C9480000C94800050
:100030000C9480000C9480000C9480000C94800040
:100040000C944C070C9480000C94BC070C949607FD
:100050000C9480000C9480000C9480000C94800020
:100060000C94EE070C94800000000000250028008E
:100070002B00040404040404040402020202020229
:10008000030303030303010204081020408001025C
:1000900004081020010204081020000000080002DB
:1000A00001000003040700000000000000000D092B
:1000B00011241FBECFEFD8E0DEBFCDBF25E0ACE5F9
:1000C000B1E001C01D92A932B207E1F711E0A0E052
:1000D000B1E0ECEDFDE102C005900D92AC35B10749
:1000E000D9F710E0C8E5D0E004C02197FE010E94D6
:1000F000E00CC735D107C9F70E9446090C94EC0EF5
:100100000C9400000895089590E0FC01E656FF4F1E
:100110002491FC01EA57FF4F3491FC01EE58FF4F48
:10012000E491EE23C9F0222339F0233001F1A8F441
:10013000213019F1223029F1F0E0EE0FFF1FE859CC
:10014000FF4FA591B4918FB7F894EC91611126C03F
:1001500030953E233C938FBF08952730A9F0283077
:10016000C9F0243049F7809180008F7D03C08091D1
:1001700080008F7780938000DFCF84B58F7784BD38
:10018000DBCF84B58F7DFBCF8091B0008F778093DC
:10019000B000D2CF8091B0008F7DF9CF3E2BDACF67
:1001A0003FB7F89480911E0490911F04A091200401
:1001B000B091210426B5A89B05C02F3F19F00196E8
:1001C000A11DB11D3FBFBA2FA92F982F8827BC01B1
:1001D000CD01620F711D811D911D42E0660F771FD9
:1001E000881F991F4A95D1F708958F929F92AF92D9
:1001F000BF92CF92DF92EF92FF924B015C010E947F
:10020000D0006B017C010E94D0006C197D098E0921
:100210009F09683E734081059105A8F321E0821A89
:100220009108A108B10888EEC80E83E0D81EE11C31
:10023000F11C81149104A104B10429F7FF90EF90FF
:10024000DF90CF90BF90AF909F908F900895AF9226
:10025000BF92CF92DF92EF92FF920F931F93CF93B3
:10026000DF936C017B018B01040F151FEB015E0115
:10027000AE18BF08C017D10759F06991D601ED91AA
:10028000FC910190F081E02DC6010995892B79F749
:10029000C501DF91CF911F910F91FF90EF90DF90FB
:1002A000CF90BF90AF900895FC01538D448D252FC2
:1002B00030E0842F90E0821B930B541710F0CF9600
:1002C000089501970895FC01918D828D981761F032
:1002D000A28DAE0FBF2FB11D5D968C91928D9F5F49
:1002E0009F73928F90E008958FEF9FEF08952FB73F
:1002F000F8948091220490912304A0912404B09159
:1003000025042FBF8093840490938504A0938604D2
:10031000B09387048CE794E00E94630197FF26C0A6
:100320002FB7F8948091220490912304A091240483
:10033000B09125042FBF40918404509185046091B1
:10034000860470918704841B950BA60BB70B409114
:100350008004509181046091820470918304841719
:100360009507A607B707B0F28FEF9FEF0895FC013E
:10037000918D828D981731F0828DE80FF11D858D5A
:1003800090E008958FEF9FEF0895FC01918D228DED
:10039000892F90E0805C9F4F821B91098F73992772
:1003A00008958CE794E00E94C50121E0892B09F4AF
:1003B00020E0822F089580E090E0892B29F00E94B0
:1003C000D10181110C9400000895FC01A48DA80FA7
:1003D000B92FB11DA35ABF4F2C91848D90E0019687
:1003E0008F739927848FA689B7892C93A089B189A7
:1003F0008C91837080648C93938D848D981306C048
:100400000288F389E02D80818F7D80830895EF92AB
:10041000FF920F931F93CF93DF93EC0181E0888FBE
:100420009B8D8C8D98131AC0E889F989808185FF8E
:1004300015C09FB7F894EE89FF896083E889F98930
:1004400080818370806480839FBF81E090E0DF9132
:10045000CF911F910F91FF90EF900895F62E0B8D85
:1004600010E00F5F1F4F0F731127E02E8C8D8E1140
:100470000CC00FB607FCFACFE889F989808185FFA7
:10048000F5CFCE010E94E501F1CFEB8DEC0FFD2FF2
:10049000F11DE35AFF4FF0829FB7F8940B8FEA8962
:1004A000FB8980818062CFCFCF93DF93EC01888D71
:1004B0008823B9F0AA89BB89E889F9898C9185FDDF
:1004C00003C0808186FD0DC00FB607FCF7CF8C916D
:1004D00085FFF2CF808185FFEDCFCE010E94E5013F
:1004E000E9CFDF91CF91089520919D01260F332709
:1004F000331F21323105ECF420915204FC0190E0CD
:1005000080E0243069F082E00895A0919D0121915E
:10051000AC0143585E4FA40FB52FB11D2C9301962B
:10052000861798F380919D01680F60939D0180E08C
:10053000089581E008951092520481E0809351045F
:1005400010922C0461E082E10E94840061E083E16A
:100550000E948400E9EBF0E080818E7F80838081BF
:100560008D7F808388E48093B80085E48093BC000D
:10057000089510922B0410922A041092590410929C
:100580007B040E949B0282E890E090932904809370
:10059000280483E890E0909327048093260408952C
:1005A000CF93DF9391E090937C018823B9F0C091C1
:1005B000B800D091BA008091BC008A7B8093BC00C7
:1005C00060E082E10E94840060E083E10E94840098
:1005D0000E949B02D093BA00C093B800DF91CF91E4
:1005E00008958F929F92AF92BF92CF92DF92EF9237
:1005F000FF920F931F93CF93DF93D0917B04D1325F
:1006000008F0D7C0182FC0917A040E94D0006B0167
:100610007C018091520481116BC082E0809352046E
:10062000109351048FEF8093500410924F04D09395
:100630004E04AAE5B4E0EEE2F4E080E0D81391C005
:1006400010922D0480912D04CC0FC82BC0932D0443
:1006500080912C04813009F088C010922C040E94F3
:10066000D0006B017C0180912D048093BB008091B0
:10067000540490915504A0915604B0915704892BCD
:100680008A2B8B2BA1F00E94D00000915404109172
:10069000550420915604309157046C197D098E0938
:1006A0009F09061717072807390708F442C08091E9
:1006B000BC0083FDD8CF85EC8093BC000E94D000A5
:1006C0006B017C0180915204823009F450C080910A
:1006D00050048F3F09F46FC080915004803209F4B8
:1006E0006CC080915004803309F469C084E026C056
:1006F0008091540490915504A0915604B0915704F0
:10070000892B8A2B8B2B09F484CF0E94D0008090F8
:10071000540490905504A0905604B09057046C195E
:100720007D098E099F0986169706A806B90608F066
:1007300070CF809153040E94D00285E0109259043A
:1007400010927B0410925804DF91CF911F910F916A
:10075000FF90EF90DF90CF90BF90AF909F908F90E1
:1007600008959D9191938F5F69CF85EEA5CF80917C
:10077000540490915504A0915604B0915704892BCC
:100780008A2B8B2B09F49ECF0E94D0000091540439
:100790001091550420915604309157046C197D092D
:1007A0008E099F09061717072807390708F08ACF0F
:1007B000C0CF81E0C3CF80E0C1CF82E0BFCF83E074
:1007C000BDCF0895E0912B0480912A04E81730F4FE
:1007D000F0E0E45AFE4F808190E008958FEF9FEFA4
:1007E000089590912B0480912A042FEF3FEF9817E2
:1007F00048F4E92FF0E0E45AFE4F208130E09F5F9B
:1008000090932B04C901089580912A0490912B04A0
:10081000891B990B0895CF92DF92EF92FF920F936D
:100820001F93CF93DF937C01CB018A012091580461
:10083000222389F0EB016B01C40ED51ECC15DD051A
:1008400069F06991D701ED91FC910190F081E02D63
:10085000C7010995F3CF642F0E947402C801DF918C
:10086000CF911F910F91FF90EF90DF90CF9008955F
:10087000CF93DF931F92CDB7DEB7698320915804E1
:100880002223F9F020917B04203258F021E030E05F
:10089000FC013383228390E080E00F90DF91CF91C1
:1008A000089580915904E82FF0E0E65AFB4F9981B2
:1008B00090838F5F8093590480937B0481E090E064
:1008C000ECCF61E0CE0101960E947402F7CF682F51
:1008D00089E195E00C9438041F93CF93DF93EC01EA
:1008E000162F81E08093580480E580937A0410925B
:1008F000590410927B048D2F90E00E946704CE0172
:1009000099270E946704612F89E195E00E943804CD
:1009100081E00E94F10265E070E080E090E0DF910C
:10092000CF911F910C94F50090E080E0089542E093
:1009300050E06AE271E08CE794E00C942701CF93D9
:10094000DF93FC0144815581608171818CE794E0E3
:100950000E942701EC010E9497048C0F9D1FDF91DC
:10096000CF910895CF92DF92EF92FF920F931F9352
:10097000CF93DF93EC0181E08093580480E580936E
:100980007A041092590410927B048D2F90E00E94FB
:100990006704CE0199270E94670481E00E94F1025A
:1009A0000E94D0006B017C0180915204811163C0D0
:1009B00081E080935204809351049FEF9093500400
:1009C00010924F0410924E0480932D0480912D04B8
:1009D000806A80932D0480912C04813009F082C0BC
:1009E00010922C040E94D0006B017C0180912D0498
:1009F0008093BB008091540490915504A0915604BB
:100A0000B0915704892B8A2B8B2BA1F00E94D00028
:100A100000915404109155042091560430915704CC
:100A20006C197D098E099F090617170728073907D2
:100A300008F442C08091BC0083FDD8CF85EC809340
:100A4000BC000E94D0006B017C0180915204813077
:100A500009F44AC080914F04811168C080914F040D
:100A6000AEE2B4E0ECE5F1E090E0981751F12D91A1
:100A700021939F5FFACF8091540490915504A091E7
:100A80005604B0915704892B8A2B8B2B09F48CCFF9
:100A90000E94D000009154041091550420915604F6
:100AA000309157046C197D098E099F0906171707A5
:100AB0002807390708F078CF809153040E94D002AC
:100AC00080E010922B0480932A0489E195E00E9433
:100AD000F103DF91CF911F910F91FF90EF90DF9085
:100AE000CF90089585EEABCF80915404909155043A
:100AF000A0915604B0915704892B8A2B8B2B09F4B3
:100B0000A4CF0E94D000009154041091550420916C
:100B10005604309157046C197D098E099F090617F8
:100B200017072807390708F090CFC6CF81E098CF84
:100B30000F931F93CF93DF93EC01888199810097E6
:100B400059F02A813B812617370730F081E0DF9189
:100B5000CF911F910F9108958B016F5F7F4F0E947E
:100B60000B0E009759F0998388831B830A832C818D
:100B70003D81232B59F7FC011082E8CF80E0E7CFBD
:100B8000EF92FF920F931F93CF93DF9300D0CDB7D7
:100B9000DEB78C0169831A82FC01E480F580FFEFE7
:100BA000EF1AFF0AB7010E949805882381F0F80127
:100BB0002081318184819581BE016F5F7F4F820FDB
:100BC000931F0E94E50EF801F582E48281E00F9008
:100BD0000F90DF91CF911F910F91FF90EF900895AB
:100BE000CF93DF93EC0188819981009711F00E94E7
:100BF000820D198218821D821C821B821A82DF914B
:100C0000CF910895EF92FF920F931F93CF93DF93AD
:100C1000EC017B018A01BA010E94980581110BC089
:100C2000CE010E94F005CE01DF91CF911F910F916F
:100C3000FF90EF9008951D830C83B70188819981FF
:100C40000E94E50EF0CFFC01118210821382128205
:100C50001582148250E040E06CE271E00C940206D0
:100C6000EF92FF920F931F93CF93DF938C01EB01D1
:100C70000E94B902C8010E942306D695DC2FCC271A
:100C8000D795C795CE018F509C4E0E94B204CE508E
:100C9000DC4E7E01E80EF11CCE15DF055CF4CE01C2
:100CA0000E94B204813220F0682FC8010E94C00562
:100CB0002196F2CFC801DF91CF911F910F91FF9044
:100CC000EF900895CF93DF93EC01FB018617970710
:100CD00049F0608171816115710541F04481558150
:100CE0000E940206CE01DF91CF9108950E94F00587
:100CF000F9CFFC0180819181009711F00C94820D55
:100D0000089585ED8093BC00809154049091550422
:100D1000A0915604B09157040796A11DB11D23E080
:100D2000B695A795979587952A95D1F72091BC0000
:100D300024FD03C010925204089540915404509130
:100D400055046091560470915704452B462B472B50
:100D500069F30097A105B10541F02AE22A95F1F760
:100D600000C00197A109B109E1CF809153040C940F
:100D7000D0029F92AF92BF92CF92DF92EF92FF92FA
:100D80000F931F93CF93DF9300D000D000D0CDB747
:100D9000DEB75C010E94B902CE0101960E942306D3
:100DA00007E510E0680187E1C81AD10850E040E08B
:100DB0006CE271E0CE0101960E9402067801E6E144
:100DC000EE1AF1080E151F058CF1C7010E94B2043E
:100DD000982EF0E2F81730F5082E000C990B0E94BF
:100DE000CB0E892B29F0692DCE0101960E94C005FA
:100DF0002D813E81F501848195812817390791F471
:100E000089819A81608171810097D1F061157105A6
:100E100031F4232B11F1FC01808190E01CC00E9471
:100E2000DC0E19C0FFEFEF1AFF0ACCCF085E1F4F90
:100E3000073D83E1180709F0B5CF10E000E015C0C9
:100E40006115710551F0232B41F0FB01808190E089
:100E5000919581959109892B29F7C60180549109B3
:100E600068E170E00E94B80C8B01CE0101960E94EF
:100E70007906C80126960FB6F894DEBF0FBECDBF27
:100E8000DF91CF911F910F91FF90EF90DF90CF9066
:100E9000BF90AF909F9008951F920F920FB60F9240
:100EA00011242F933F938F939F93AF93BF93809180
:100EB000220490912304A0912404B0912504309140
:100EC0001D0423E0230F2D3758F50196A11DB11DF8
:100ED00020931D048093220490932304A093240460
:100EE000B093250480911E0490911F04A0912004CA
:100EF000B09121040196A11DB11D80931E04909311
:100F00001F04A0932004B0932104BF91AF919F913F
:100F10008F913F912F910F900FBE0F901F901895BA
:100F200026E8230F0296A11DB11DD2CF1F920F926A
:100F30000FB60F9211242F933F934F935F936F93AC
:100F40007F938F939F93AF93BF93EF93FF938CE720
:100F500094E00E94E501FF91EF91BF91AF919F91C5
:100F60008F917F916F915F914F913F912F910F9052
:100F70000FBE0F901F9018951F920F920FB60F92F1
:100F800011242F938F939F93EF93FF93E0918C0401
:100F9000F0918D048081E0919204F091930482FDA0
:100FA0001BC09081809195048F5F8F732091960470
:100FB000821741F0E0919504F0E0E458FB4F958FE3
:100FC00080939504FF91EF919F918F912F910F90B6
:100FD0000FBE0F901F9018958081F4CF1F920F9233
:100FE0000FB60F9211242F933F934F935F936F93FC
:100FF0007F938F939F93AF93BF93EF93FF938091D2
:10100000B900887F803609F44AC0F0F5883209F4C7
:10101000A7C018F5803109F49BC0B8F4882309F4FF
:10102000F9C0883009F494C0FF91EF91BF91AF915E
:101030009F918F917F916F915F914F913F912F91F0
:101040000F900FBE0F901F901895883109F488C03B
:10105000803251F78093500414C0803409F49DC04D
:1010600040F48033B9F38833F9F68093500485EC6B
:10107000B0C0803509F485C0883509F496C088343D
:1010800099F60E948106D0CF883909F48CC038F5D2
:10109000883729F050F4883611F0803729F683E03C
:1010A000809352041092BF0157C0883809F47BC066
:1010B000803919F0803809F0B7CF8091BF018032B4
:1010C00008F071C0E091BF0181E08E0F8093BF01F5
:1010D0008091BB00F0E0E156FE4F80833DC0803B35
:1010E00039F0E0F4803A09F479C0883A09F09CCFED
:1010F00084E08093520410929E0110929D01E09131
:101100002804F0912904099580919D0181110FC057
:1011100081E080939D0110927D0109C0803C09F41B
:10112000A6CF883C09F4A3CF883B09F07DCFE0919E
:101130009E0181E08E0F80939E01F0E0E358FE4F08
:1011400080818093BB0090919E0180919D0129C078
:1011500080912D048093BB0085EC8093BC0064CF0C
:1011600090914F0480914E04981758F5E0914F04E8
:1011700081E08E0F80934F04F0E0E25DFB4F8081B1
:10118000E9CFE0914F0481E08E0F80934F0480916E
:10119000BB00F0E0E25DFB4F808390914F048091B3
:1011A0004E049817C8F285E8D8CFE0914F0481E04B
:1011B0008E0F80934F048091BB00F0E0E25DFB4F07
:1011C00080838091510481115CCF81E080932C0455
:1011D00084EA8093BC001092520426CF85EC809361
:1011E000BC00109252048091BF01803230F4E09133
:1011F000BF01F0E0E156FE4F10826091BF0170E048
:10120000E0912604F09127048FE991E0099510926E
:10121000BF010ACF1092500434CFECE7F4E0138200
:10122000128288EE93E0A0E0B0E084839583A683E9
:10123000B7832AE031E03183208325EC30E0358725
:10124000248724EC30E03787268720EC30E0318B90
:10125000208B21EC30E0338B228B22EC30E0358B7D
:10126000248B26EC30E0378B268B118E128E138E5A
:10127000148EE9E1F5E01382128284839583A683BC
:10128000B7838CE191E0918380830895CF93DF93BE
:10129000CDB7DEB7E0970FB6F894DEBF0FBECDBF77
:1012A000789484B5826084BD84B5816084BD85B541
:1012B000826085BD85B5816085BD80916E0081604D
:1012C00080936E00109281008091810082608093F3
:1012D00081008091810081608093810080918000F5
:1012E0008160809380008091B10084608093B10020
:1012F0008091B00081608093B00080917A0084601A
:1013000080937A0080917A00826080937A00809145
:101310007A00816080937A0080917A00806880935F
:101320007A001092C100CE0185960E942306CE015C
:101330004F960E942306CE0149960E942306E09113
:101340008C04F0918D0482E08083E0918804F09118
:1013500089041082E0918A04F0918B048FEC8083E1
:1013600010929404E0919004F091910486E08083BF
:10137000E0918E04F0918F04808180618083E09100
:101380008E04F0918F04808188608083E0918E04C8
:10139000F0918F04808180688083E0918E04F091C9
:1013A0008F0480818F7D808363E070E0CE010196A1
:1013B0000E943006CE0101960E949F04CE01019644
:1013C0000E947906CE0149960E947906CE014F9679
:1013D0000E947906CE0185960E947906B6E02B2EF2
:1013E000A0E04A2EA0E05A2EE8E13E2EF4E6BF2E01
:1013F0008CE794E00E94C501181619060CF040C253
:10140000CE018B960E9423060E94770197FD09C0AA
:101410008A30910531F0682FCE018B960E94C0056D
:10142000F3CF8BA49CA48114910439F00FA518A9C3
:1014300074010115110509F050C0CE0101960E94FA
:101440002306CE0107960E942306CE010D960E9428
:101450002306CE0143960E942306CE018B960E945E
:101460009F04CE0185960E94230610E000E0F12C37
:10147000E12C8FA598A90817190708F08DC08BA536
:101480009CA5FC01E00FF11F009721F410921C04B1
:10149000ECE1F4E020812C3709F055C02E9CC0010E
:1014A0002F9C900D1124BE016B5D7F4F21E030E039
:1014B0002C0F3D1F820F931F0E94620650E040E0F8
:1014C0006CE271E0CE0185960E9402063FEFE31ABE
:1014D000F30A0F5F1F4FCDCF760167012FEFC21ABE
:1014E000D20AF7018081082E000C990B0E94750C1E
:1014F000892B91F701501109080D191DF801808100
:10150000082E000C990B0E94750C892B31F00E15DA
:101510001F0518F001501109F1CF0F5F1F4FA801EF
:101520004E195F0958AB4FA78E149F0420F4B701E2
:10153000C4010E94D30EEBA5FCA58FA598A9E80FC6
:10154000F91F10827ACF892B11F410921C04D080DD
:101550001A8E198E1C8E1B8E1E8E1D8EBE016B5D0B
:101560007F4FCE0149960E9462066D2DCE014996AD
:101570000E94C005811104C0CE0149960E94F00569
:10158000BE01675E7F4FCE0185960E946206CE0146
:1015900049960E9479069DCF8D819E81892B09F401
:1015A00057C109811A816DE271E0C8010E94DC0E09
:1015B000892B09F071C10B891C89ED84FE84CF80D1
:1015C000D8840E94B90281E090E00E94B204982E73
:1015D00080931B0410921A0410921904109218049C
:1015E000839DA001112480E8989E90011124F601AA
:1015F00001900020E9F7BF01E0E5F3E090E080E032
:101600006C197D094F5B5F4F882E8617970708F08E
:1016100071C08436910509F066C0B0921A0474E670
:10162000872EF70101900020E9F7AF0168E8C62E88
:1016300062E0D62EF60190E080E04E195F09B90114
:101640006F507C4EE82E8417950708F05DC08436F5
:10165000910509F052C0B092190444E6E42EF80155
:1016600001900020E9F7AF01E0ECF1E090E080E0CC
:10167000401B510B2F5C3B4EA82E8417950708F09A
:101680004DC08436910509F042C0B092180434E68A
:10169000A32E61E0690D81E090E00E946C040F814F
:1016A00018850E94B902692D8091500390915103D1
:1016B0000E946C04F12C912C8F2D90E0F801E80F22
:1016C000F91F6081662369F10196881599054CF52B
:1016D000880F991FFC01E05BFC4F808191810E9483
:1016E0006C04F394E9CFDA01A80FB91FA193B19369
:1016F00001968ACF80931A0494CFDB01A80FB91FFB
:10170000A193B19301969ECF80931904A8CFB901FC
:10171000680F791F619371930196AECF809318047F
:10172000B8CF64EF71E080E090E00E94F5001A8E7F
:10173000198E1C8E1B8E1E8E1D8EBE01635F7F4F09
:10174000CE0149960E9462068B889C888114910480
:1017500009F450C00F89188D01151105B9F08D8D50
:101760009E8D080F191FB801CE0149960E94980559
:10177000882309F43FC0298D3A8D8D8D9E8DB4014B
:10178000820F931F0E94E50E1E8F0D8F18A21F8ED1
:101790001AA219A21CA21BA2BE01675E7F4FCE0136
:1017A0004F960E946206CE0149960E9479069F8C50
:1017B000F8A06FEF6E0D80918802909189020E94CF
:1017C0006C04092D1F2D480166246394712CF12CA3
:1017D000F2E0CF0ED11C6E147F048CF4F401619101
:1017E0004F01F601808191810E946C04FFEF6F1A16
:1017F0007F0AEECFCE0149960E94F005C7CF6FEF6A
:101800006A0D8091C0019091C1010E946C0482EC2C
:10181000E82E81E0F82EDD24D394DA1458F4F80190
:1018200061918F01F701819191917F010E946C0478
:10183000D394F3CF44E250E061E371E08CE794E0AD
:101840000E9427010E949704CE014F960E947906BC
:10185000CE0185960E947906CE0143960E947906B4
:10186000CE010D960E947906CE0107960E94790658
:10187000CE0101960E947906CE018B960E947906D0
:101880004114510409F4B4CD0E94D101882309F414
:10189000ABCD0E940000A4CD66E571E0C8010E94B6
:1018A000DC0E892BA9F61A8E198E1C8E1B8E1E8EAD
:1018B0001D8EBE01695F7F4FCE0149960E94620670
:1018C000CE0149960E94B9068C01CE0149960E942C
:1018D0007906B801CE0149960E943006CE0149969C
:1018E0000E949F04CE014996B1CF91110C947E0CB9
:1018F000803219F089508550C8F7089599278827B4
:1019000008952F923F924F925F926F927F928F92A3
:101910009F92AF92BF92CF92DF92EF92FF920F937E
:101920001F93CF93DF93CDB7DEB7CA1BDB0B0FB688
:10193000F894DEBF0FBECDBF09942A883988488845
:101940005F846E847D848C849B84AA84B984C884DB
:10195000DF80EE80FD800C811B81AA81B981CE0FD2
:10196000D11D0FB6F894DEBF0FBECDBFED010895B7
:1019700097FB072E16F4009407D077FD09D00E943C
:10198000CC0C07FC05D03EF4909581959F4F0895AF
:10199000709561957F4F0895AA1BBB1B51E107C04D
:1019A000AA1FBB1FA617B70710F0A61BB70B881FEF
:1019B000991F5A95A9F780959095BC01CD0108957E
:1019C000EE0FFF1F0590F491E02D09940F931F93E4
:1019D000CF93DF938230910510F482E090E0E091A4
:1019E0002705F091280530E020E0B0E0A0E0309736
:1019F00099F42115310509F44AC0281B390B24300C
:101A00003105D8F58A819B816115710589F1FB014A
:101A100093838283FE0111C0408151810281138131
:101A200048175907E0F04817590799F4109761F0E3
:101A300012960C93129713961C933296CF01DF9156
:101A4000CF911F910F9108950093270510932805BA
:101A5000F4CF2115310551F04217530738F0A90191
:101A6000DB019A01BD01DF01F801C1CFEF01F9CF20
:101A70009093280580932705CDCFFE01E20FF31F39
:101A8000819391932250310939832883D7CF2091B4
:101A9000250530912605232B41F420910201309138
:101AA00003013093260520932505209100013091F4
:101AB00001012115310541F42DB73EB740910401D4
:101AC00050910501241B350BE0912505F091260569
:101AD000E217F307A0F42E1B3F0B2817390778F005
:101AE000AC014E5F5F4F2417350748F04E0F5F1F64
:101AF0005093260540932505819391939FCFF0E065
:101B0000E0E09CCFCF93DF930097E9F0FC013297A0
:101B100013821282A0912705B0912805ED0130E0D3
:101B200020E01097A1F420813181820F931F209132
:101B30002505309126052817390709F061C0F09373
:101B40002605E0932505DF91CF910895EA01CE1790
:101B5000DF07E8F54A815B819E0141155105B1F728
:101B6000E901FB83EA8349915991C40FD51FEC1712
:101B7000FD0761F4808191810296840F951FE90130
:101B800099838883828193819B838A83F0E0E0E05C
:101B900012968D919C9113970097B9F52D913C91D8
:101BA0001197CD010296820F931F20912505309148
:101BB00026052817390739F6309751F51092280570
:101BC00010922705B0932605A0932505BCCFD3839B
:101BD000C28340815181840F951FC817D90761F4D2
:101BE0004E5F5F4F88819981480F591F5183408311
:101BF0008A819B81938382832115310509F0B0CFBF
:101C0000F0932805E09327059ECFFD01DC01C0CFAE
:101C100013821282D7CFB0E0A0E0E1E1FEE00C94A5
:101C2000830C8C01009751F4CB010E94E60C8C01CF
:101C3000C801CDB7DEB7E0E10C949F0CFC01E60FC4
:101C4000F71F9C0122503109E217F30708F49DC0E9
:101C5000D901CD91DC911197C617D70798F0C530FF
:101C6000D10530F3CE0104978617970708F3C61BFA
:101C7000D70B2297C193D1936D937C93CF010E9490
:101C8000820DD6CF5B01AC1ABD0A4C018C0E9D1E95
:101C9000A0912705B0912805512C412CF12CE12C65
:101CA000109731F5809125059091260588159905A5
:101CB00009F05CC04616570608F058C08091000134
:101CC00090910101009741F48DB79EB740910401B6
:101CD00050910501841B950BE817F90708F055C0D2
:101CE000F0932605E0932505F90171836083A0CF69
:101CF0008D919C91119712966C90129713967C90EF
:101D00001397A815B90559F56C0142E0C40ED11C12
:101D1000CA14DB0420F1AC014A195B09DA011296FE
:101D2000159780F06282738251834083D9016D934D
:101D30007C93E114F10471F0D7011396FC93EE93B8
:101D4000129776CF22968C0F9D1FF9019183808385
:101D5000F301EFCFF0932805E093270569CF4816EC
:101D6000590608F42C017D01D3019ACFCB010E94C2
:101D7000E60C7C01009749F0AE01B8010E94D30E39
:101D8000C8010E94820D870153CF10E000E050CFC0
:101D900085FD0C947E0C806291110C947E0C815612
:101DA0008A51D8F70895FB01DC0102C001900D9221
:101DB00041505040D8F70895FB01DC018D9101900E
:101DC00080190110D9F3990B0895FB01DC010190F2
:0C1DD0000D920020E1F70895F894FFCF79
:101DDC0000002905800000000000070227015401C3
:101DEC005402C5016301B7010000000038040B0464
:101DFC009404E1030404F103E2030D0A006164643A
:101E0C000044617461207772697474656E20746F1C
:101E1C0020454550524F4D2073756363657373664F
:0C1E2C00756C6C792E007265616400001A
:00000001FF
