:100000000C9458000C9480000C9480000C94800098
:100010000C9480000C9480000C9480000C94800060
:100020000C9480000C9480000C9480000C94800050
:100030000C9480000C9480000C9480000C94800040
:100040000C944E040C9480000C94BE040C94980400
:100050000C9480000C9480000C9480000C94800020
:100060000C94F0040C94800000000000250028008F
:100070002B00040404040404040402020202020229
:10008000030303030303010204081020408001025C
:1000900004081020010204081020000000080002DB
:1000A00001000003040700000000000000000F062C
:1000B00011241FBECFEFD8E0DEBFCDBF11E0A0E01E
:1000C000B1E0E0E8FFE002C005900D92A036B10774
:1000D000D9F725E0A0E6B1E001C01D92A732B20732
:1000E000E1F710E0C8E5D0E004C02197FE010E94CE
:1000F000B807C735D107C9F70E9448060C94BE0758
:100100000C94000090E0FC01E656FF4F2491FC01A6
:10011000EA57FF4F3491FC01EE58FF4FE491EE2374
:10012000C9F0222339F0233001F1A8F4213019F16C
:10013000223029F1F0E0EE0FFF1FE859FF4FA591A3
:10014000B4918FB7F894EC91611126C030953E239D
:100150003C938FBF08952730A9F02830C9F0243090
:1001600049F7809180008F7D03C0809180008F7758
:1001700080938000DFCF84B58F7784BDDBCF84B5DB
:100180008F7DFBCF8091B0008F778093B000D2CF6E
:100190008091B0008F7DF9CF3E2BDACF3FB7F89436
:1001A00080912A0490912B04A0912C04B0912D04ED
:1001B00026B5A89B05C02F3F19F00196A11DB11DC2
:1001C0003FBFBA2FA92F982F8827BC01CD01620FFE
:1001D000711D811D911D42E0660F771F881F991FB9
:1001E0004A95D1F708958F929F92AF92BF92CF9286
:1001F000DF92EF92FF924B015C010E94CE006B01F7
:100200007C010E94CE006C197D098E099F09683E11
:10021000734081059105A8F321E0821A9108A10895
:10022000B10888EEC80E83E0D81EE11CF11C8114D1
:100230009104A104B10429F7FF90EF90DF90CF90D3
:10024000BF90AF909F908F90089508950895AF92BA
:10025000BF92CF92DF92EF92FF920F931F93CF93B3
:10026000DF936C017B018B01040F151FEB015E0115
:10027000AE18BF08C017D10759F06991D601ED91AA
:10028000FC910190F081E02DC6010995892B79F749
:10029000C501DF91CF911F910F91FF90EF90DF90FB
:1002A000CF90BF90AF900895FC01538D448D252FC2
:1002B00030E0842F90E0821B930B541710F0CF9600
:1002C000089501970895FC01918D828D981761F032
:1002D000A28DAE0FBF2FB11D5D968C91928D9F5F49
:1002E0009F73928F90E008958FEF9FEF0895FC0128
:1002F000918D828D981731F0828DE80FF11D858DDB
:1003000090E008958FEF9FEF0895FC01918D228D6D
:10031000892F90E0805C9F4F821B91098F739927F2
:1003200008958EE794E00E94850121E0892B09F46D
:1003300020E0822F089580E090E0892B29F00E9430
:10034000910181110C9400000895FC01A48DA80F67
:10035000B92FB11DA35ABF4F2C91848D90E0019607
:100360008F739927848FA689B7892C93A089B18927
:100370008C91837080648C93938D848D981306C0C8
:100380000288F389E02D80818F7D80830895EF922C
:10039000FF920F931F93CF93DF93EC0181E0888F3F
:1003A0009B8D8C8D98131AC0E889F989808185FF0F
:1003B00015C09FB7F894EE89FF896083E889F989B1
:1003C00080818370806480839FBF81E090E0DF91B3
:1003D000CF911F910F91FF90EF900895F62E0B8D06
:1003E00010E00F5F1F4F0F731127E02E8C8D8E11C1
:1003F0000CC00FB607FCFACFE889F989808185FF28
:10040000F5CFCE010E94A501F1CFEB8DEC0FFD2FB2
:10041000F11DE35AFF4FF0829FB7F8940B8FEA89E2
:10042000FB8980818062CFCFCF93DF93EC01888DF1
:100430008823B9F0AA89BB89E889F9898C9185FD5F
:1004400003C0808186FD0DC00FB607FCF7CF8C91ED
:1004500085FFF2CF808185FFEDCFCE010E94A501FF
:10046000E9CFDF91CF9108952091A101260F332785
:10047000331F21323105ECF420915404FC0190E04B
:1004800080E0243069F082E00895A091A1012191DB
:10049000AC014F575E4FA40FB52FB11D2C930196A1
:1004A000861798F38091A101680F6093A10180E005
:1004B000089581E008951092540481E080935304DC
:1004C00010922E0461E082E10E94820061E083E1EB
:1004D0000E948200E9EBF0E080818E7F8083808142
:1004E0008D7F808388E48093B80085E48093BC008E
:1004F0000895CF93DF9391E0909380018823B9F022
:10050000C091B800D091BA008091BC008A7B8093E2
:10051000BC0060E082E10E94820060E083E10E9412
:1005200082000E945B02D093BA00C093B800DF91B2
:10053000CF9108950895E091230480912204E81753
:1005400030F4F0E0E05AFE4F808190E008958FEFA4
:100550009FEF089590912304809122042FEF3FEFA5
:10056000981748F4E92FF0E0E05AFE4F208130E080
:100570009F5F90932304C901089580912204909174
:100580002304891B990B0895CF92DF92EF92FF927B
:100590000F931F93CF93DF937C01CB018A012091AE
:1005A0007D04222389F0EB016B01C40ED51ECC150E
:1005B000DD0569F06991D701ED91FC910190F08121
:1005C000E02DC7010995F3CF642F0E943402C801C2
:1005D000DF91CF911F910F91FF90EF90DF90CF901F
:1005E0000895CF93DF931F92CDB7DEB76983209133
:1005F0007D042223F9F020917A04203258F021E082
:1006000030E0FC013383228390E080E00F90DF91A3
:10061000CF91089580917B04E82FF0E0E65AFB4FDC
:10062000998190838F5F80937B0480937A0481E02B
:1006300090E0ECCF61E0CE0101960E943402F7CF4A
:10064000CF92DF92EF92FF920F931F93CF93182FC9
:10065000C62F81E080937D0480E580937C04109216
:100660007B0410927A04692F8BE195E00E94F102DD
:10067000612F8BE195E00E94F1026C2F8BE195E0F8
:100680000E94F102C0917A04C13208F091C00E9428
:10069000CE006B017C0180915404811164C082E022
:1006A0008093540481E0809353048FEF809352042D
:1006B00010925104C0935004AAE5B4E0E0E3F4E0E2
:1006C00080E0C81388C010922F0480912F04806AA4
:1006D00080932F0480912E04813009F080C0109205
:1006E0002E040E94CE006B017C0180912F04809328
:1006F000BB008091560490915704A0915804B0918A
:100700005904892B8A2B8B2B99F00E94CE000091E3
:1007100056041091570420915804309159046C19D3
:100720007D098E099F090617170728073907E0F189
:100730008091BC0083FDD9CF85EC8093BC000E94E2
:10074000CE006B017C0180915404823009F449C0D1
:10075000809152048F3F61F180915204803241F1C7
:100760008091520425C08091560490915704A09125
:100770005804B0915904892B8A2B8B2B09F48BCF09
:100780000E94CE0000915604109157042091580405
:10079000309159046C197D098E099F0906171707B6
:1007A0002807390708F077CF809155040E94790215
:1007B00010927B0410927A0410927D0465E070E040
:1007C00080E090E0CF911F910F91FF90EF90DF902C
:1007D000CF900C94F3009D9191938F5F72CF85EE33
:1007E000ACCF8091560490915704A0915804B091D9
:1007F0005904892B8A2B8B2B09F4A5CF0E94CE009C
:1008000000915604109157042091580430915904D6
:100810006C197D098E099F090617170728073907E4
:1008200008F091CFC1CF90E080E0089585ED8093EE
:10083000BC008091560490915704A0915804B09147
:1008400059040796A11DB11D23E0B695A79597956C
:1008500087952A95D1F72091BC0024FD03C0109202
:1008600054040895409156045091570460915804DF
:1008700070915904452B462B472B69F30097A1052E
:10088000B10541F02AE22A95F1F700C00197A109CC
:10089000B109E1CF809155040C9479021F920F9217
:1008A0000FB60F9211242F933F938F939F93AF9383
:1008B000BF938091260490912704A0912804B091C1
:1008C00029043091250423E0230F2D3758F5019694
:1008D000A11DB11D20932504809326049093270425
:1008E000A0932804B093290480912A0490912B04AA
:1008F000A0912C04B0912D040196A11DB11D8093EF
:100900002A0490932B04A0932C04B0932D04BF9140
:10091000AF919F918F913F912F910F900FBE0F90AC
:100920001F90189526E8230F0296A11DB11DD2CF66
:100930001F920F920FB60F9211242F933F934F9354
:100940005F936F937F938F939F93AF93BF93EF9337
:10095000FF938EE794E00E94A501FF91EF91BF9174
:10096000AF919F918F917F916F915F914F913F9147
:100970002F910F900FBE0F901F9018951F920F92FE
:100980000FB60F9211242F938F939F93EF93FF93A2
:10099000E0918E04F0918F048081E0919404F091B5
:1009A000950482FD1BC09081809197048F5F8F73A7
:1009B00020919804821741F0E0919704F0E0E2580A
:1009C000FB4F958F80939704FF91EF919F918F91AB
:1009D0002F910F900FBE0F901F9018958081F4CF2C
:1009E0001F920F920FB60F9211242F933F934F93A4
:1009F0005F936F937F938F939F93AF93BF93EF9387
:100A0000FF938091B900887F803609F44AC0F0F5E1
:100A1000883209F4A7C018F5803109F49BC0B8F4F6
:100A2000882309F4F9C0883009F494C0FF91EF914C
:100A3000BF91AF919F918F917F916F915F914F91F6
:100A40003F912F910F900FBE0F901F9018958831F6
:100A500009F488C0803251F78093520414C0803466
:100A600009F49DC040F48033B9F38833F9F68093DC
:100A7000520485ECB0C0803509F485C0883509F48E
:100A800096C0883499F60E941604D0CF883909F4AC
:100A90008CC038F5883729F050F4883611F080374B
:100AA00029F683E0809354041092C30157C088381C
:100AB00009F47BC0803919F0803809F0B7CF8091F4
:100AC000C301803208F071C0E091C30181E08E0F54
:100AD0008093C3018091BB00F0E0ED55FE4F808311
:100AE0003DC0803B39F0E0F4803A09F479C0883A9F
:100AF00009F09CCF84E0809354041092A2011092DC
:100B0000A101E0912004F091210409958091A101B7
:100B100081110FC081E08093A1011092810109C071
:100B2000803C09F4A6CF883C09F4A3CF883B09F0A8
:100B30007DCFE091A20181E08E0F8093A201F0E0D1
:100B4000EF57FE4F80818093BB009091A20180916E
:100B5000A10129C080912F048093BB0085EC809374
:100B6000BC0064CF9091510480915004981758F5BF
:100B7000E091510481E08E0F80935104F0E0E05D3C
:100B8000FB4F8081E9CFE091510481E08E0F80938B
:100B900051048091BB00F0E0E05DFB4F80839091B9
:100BA0005104809150049817C8F285E8D8CFE0919D
:100BB000510481E08E0F809351048091BB00F0E0DE
:100BC000E05DFB4F80838091530481115CCF81E015
:100BD00080932E0484EA8093BC001092540426CFA4
:100BE00085EC8093BC00109254048091C301803244
:100BF00030F4E091C301F0E0ED55FE4F10826091BA
:100C0000C30170E0E0911E04F0911F0483EA91E0BB
:100C100009951092C3010ACF1092520434CFEEE727
:100C2000F4E01382128288EE93E0A0E0B0E08483C7
:100C30009583A683B78324E031E03183208325ECBC
:100C400030E03587248724EC30E03787268720EC96
:100C500030E0318B208B21EC30E0338B228B22EC87
:100C600030E0358B248B26EC30E0378B268B118ED1
:100C7000128E138E148EEBE1F5E0138212828483C0
:100C80009583A683B78386E191E09183808308955D
:100C9000789484B5826084BD84B5816084BD85B557
:100CA000826085BD85B5816085BD80916E00816063
:100CB00080936E0010928100809181008260809309
:100CC000810080918100816080938100809180000B
:100CD0008160809380008091B10084608093B10036
:100CE0008091B00081608093B00080917A00846030
:100CF00080937A0080917A00826080937A0080915C
:100D00007A00816080937A0080917A008068809375
:100D10007A001092C100E0918E04F0918F0482E07D
:100D20008083E0918A04F0918B041082E0918C041E
:100D3000F0918D048FEC808310929604E0919204E0
:100D4000F091930486E08083E0919004F091910407
:100D5000808180618083E0919004F0919104808192
:100D600088608083E0919004F09191048081806894
:100D70008083E0919004F091910480818F7D808345
:100D8000109255031092540381E490E0909357031E
:100D90008093560382E490E0909359038093580324
:100DA00083E490E090935B0380935A0384E490E0A3
:100DB00090935D0380935C0385E490E090935F03E0
:100DC00080935E0386E490E09093610380936003D8
:100DD00087E490E0909363038093620388E08093BC
:100DE000240481EF93E190938D0280938C0282EF33
:100DF00093E190938F0280938E0283EF93E190931F
:100E000091028093900284EF93E1909393028093F8
:100E1000920285EF93E1909395028093940286EF7E
:100E200093E1909397028093960287EF93E19093DA
:100E300099028093980287E080931D0481E394E1F6
:100E40009093C5018093C40182E394E19093C7011C
:100E50008093C60183E394E19093C9018093C80114
:100E600083E080931C0410922304109222041092B9
:100E70007B0410927A040E945B0285E291E09093D9
:100E800021048093200486E291E090931F048093D4
:100E90001E0461E080915403909155030E94200349
:100EA000C0E08C2F90E0FC01E15DFE4F6081662385
:100EB00091F00196209124042817190661F05CF046
:100EC000880F991FFC01EC5AFC4F808191810E9490
:100ED0002003CF5FE6CF64EF71E080E090E00E94F6
:100EE000F30084E2E82E81E0F82E0CE812E06701BE
:100EF000C0E0C73081F404EC11E0C0E0C330B1F0D1
:100F0000F70161917F01F801819191918F010E9418
:100F10002003CF5FF3CFF60161916F01F80181915A
:100F200091918F010E942003CF5FE3CF68EE73E0C1
:100F300080E090E00E94F30044E250E067E371E05B
:100F40008EE794E00E94270142E050E06CE571E0FA
:100F50008EE794E00E94270100E010E001151105E2
:100F6000E9F30E9491018823C9F30E940000F6CFA3
:100F7000EE0FFF1F0590F491E02D0994F894FFCF38
:100F800000000000C701270154011402850163011C
:100F9000770100000000F102C40213049A02BD02AE
:100FA000AA029B024D6F68616D656445766F00799A
:100FB0006F7574756265004461746120777269743D
:100FC00074656E20746F20454550524F4D207375E7
:100FD000636365737366756C6C792E000D0A00008F
:00000001FF
