:100000000C9458000C9480000C9480000C94800098
:100010000C9480000C9480000C9480000C94800060
:100020000C9480000C9480000C9480000C94800050
:100030000C9480000C9480000C9480000C94800040
:100040000C944F070C9480000C94BF070C949907F4
:100050000C9480000C9480000C9480000C94800020
:100060000C94F1070C94800000000000250028008B
:100070002B00040404040404040402020202020229
:10008000030303030303010204081020408001025C
:1000900004081020010204081020000000080002DB
:1000A0000100000304070000000000000000100928
:1000B00011241FBECFEFD8E0DEBFCDBF25E0A2EAFE
:1000C000B1E001C01D92AF36B207E1F711E0A0E048
:1000D000B1E0E4EAFEE102C005900D92A23AB10758
:1000E000D9F710E0C8E5D0E004C02197FE010E94D6
:1000F000440DC735D107C9F70E9449090C94500F28
:100100000C9400000895089590E0FC01E656FF4F1E
:100110002491FC01EA57FF4F3491FC01EE58FF4F48
:10012000E491EE23C9F0222339F0233001F1A8F441
:10013000213019F1223029F1F0E0EE0FFF1FE859CC
:10014000FF4FA591B4918FB7F894EC91611126C03F
:1001500030953E233C938FBF08952730A9F0283077
:10016000C9F0243049F7809180008F7D03C08091D1
:1001700080008F7780938000DFCF84B58F7784BD38
:10018000DBCF84B58F7DFBCF8091B0008F778093DC
:10019000B000D2CF8091B0008F7DF9CF3E2BDACF67
:1001A0003FB7F8948091640490916504A09166042F
:1001B000B091670426B5A89B05C02F3F19F00196A2
:1001C000A11DB11D3FBFBA2FA92F982F8827BC01B1
:1001D000CD01620F711D811D911D42E0660F771FD9
:1001E000881F991F4A95D1F708958F929F92AF92D9
:1001F000BF92CF92DF92EF92FF924B015C010E947F
:10020000D0006B017C010E94D0006C197D098E0921
:100210009F09683E734081059105A8F321E0821A89
:100220009108A108B10888EEC80E83E0D81EE11C31
:10023000F11C81149104A104B10429F7FF90EF90FF
:10024000DF90CF90BF90AF909F908F900895AF9226
:10025000BF92CF92DF92EF92FF920F931F93CF93B3
:10026000DF936C017B018B01040F151FEB015E0115
:10027000AE18BF08C017D10759F06991D601ED91AA
:10028000FC910190F081E02DC6010995892B79F749
:10029000C501DF91CF911F910F91FF90EF90DF90FB
:1002A000CF90BF90AF900895FC01538D448D252FC2
:1002B00030E0842F90E0821B930B541710F0CF9600
:1002C000089501970895FC01918D828D981761F032
:1002D000A28DAE0FBF2FB11D5D968C91928D9F5F49
:1002E0009F73928F90E008958FEF9FEF08952FB73F
:1002F000F8948091680490916904A0916A04B09187
:100300006B042FBF8093CA049093CB04A093CC04BA
:10031000B093CD0482EC94E00E94630197FF26C065
:100320002FB7F8948091680490916904A0916A04B1
:10033000B0916B042FBF4091CA045091CB046091DF
:10034000CC047091CD04841B950BA60BB70B409188
:10035000C6045091C7046091C8047091C904841701
:100360009507A607B707B0F28FEF9FEF0895FC013E
:10037000918D828D981731F0828DE80FF11D858D5A
:1003800090E008958FEF9FEF0895FC01918D228DED
:10039000892F90E0805C9F4F821B91098F73992772
:1003A000089582EC94E00E94C50121E0892B09F4B4
:1003B00020E0822F089580E090E0892B29F00E94B0
:1003C000D10181110C9400000895FC01A48DA80FA7
:1003D000B92FB11DA35ABF4F2C91848D90E0019687
:1003E0008F739927848FA689B7892C93A089B189A7
:1003F0008C91837080648C93938D848D981306C048
:100400000288F389E02D80818F7D80830895EF92AB
:10041000FF920F931F93CF93DF93EC0181E0888FBE
:100420009B8D8C8D98131AC0E889F989808185FF8E
:1004300015C09FB7F894EE89FF896083E889F98930
:1004400080818370806480839FBF81E090E0DF9132
:10045000CF911F910F91FF90EF900895F62E0B8D85
:1004600010E00F5F1F4F0F731127E02E8C8D8E1140
:100470000CC00FB607FCFACFE889F989808185FFA7
:10048000F5CFCE010E94E501F1CFEB8DEC0FFD2FF2
:10049000F11DE35AFF4FF0829FB7F8940B8FEA8962
:1004A000FB8980818062CFCFCF93DF93EC01888D71
:1004B0008823B9F0AA89BB89E889F9898C9185FDDF
:1004C00003C0808186FD0DC00FB607FCF7CF8C916D
:1004D00085FFF2CF808185FFEDCFCE010E94E5013F
:1004E000E9CFDF91CF9108952091E301260F3327C3
:1004F000331F21323105ECF420919804FC0190E087
:1005000080E0243069F082E00895A091E301219118
:10051000AC014D535E4FA40FB52FB11D2C93019626
:10052000861798F38091E301680F6093E30180E000
:10053000089581E008951092980481E080939704D3
:100540001092720461E082E10E94840061E083E124
:100550000E948400E9EBF0E080818E7F80838081BF
:100560008D7F808388E48093B80085E48093BC000D
:100570000895109271041092700410929F041092CA
:10058000C1040E949B0282E890E090936F048093E4
:100590006E0483E890E090936D0480936C0408955A
:1005A000CF93DF9391E09093C2018823B9F0C0917B
:1005B000B800D091BA008091BC008A7B8093BC00C7
:1005C00060E082E10E94840060E083E10E94840098
:1005D0000E949B02D093BA00C093B800DF91CF91E4
:1005E00008958F929F92AF92BF92CF92DF92EF9237
:1005F000FF920F931F93CF93DF93D091C104D13219
:1006000008F0D7C0182FC091C0040E94D0006B0121
:100610007C018091980481116BC082E080939804E2
:10062000109397048FEF8093960410929504D093C3
:100630009404A0EAB4E0E4E7F4E080E0D81391C0C9
:100640001092730480917304CC0FC82BC093730471
:1006500080917204813009F088C0109272040E9467
:10066000D0006B017C01809173048093BB0080916A
:100670009A0490919B04A0919C04B0919D04892BB5
:100680008A2B8B2BA1F00E94D00000919A0410912C
:100690009B0420919C0430919D046C197D098E0966
:1006A0009F09061717072807390708F442C08091E9
:1006B000BC0083FDD8CF85EC8093BC000E94D000A5
:1006C0006B017C0180919804823009F450C08091C4
:1006D00096048F3F09F46FC080919604803209F42C
:1006E0006CC080919604803309F469C084E026C010
:1006F00080919A0490919B04A0919C04B0919D04D8
:10070000892B8A2B8B2B09F484CF0E94D0008090F8
:100710009A0490909B04A0909C04B0909D046C1946
:100720007D098E099F0986169706A806B90608F066
:1007300070CF809199040E94D00285E010929F04AE
:100740001092C10410929E04DF91CF911F910F91DE
:10075000FF90EF90DF90CF90BF90AF909F908F90E1
:1007600008959D9191938F5F69CF85EEA5CF80917C
:100770009A0490919B04A0919C04B0919D04892BB4
:100780008A2B8B2B09F49ECF0E94D00000919A04F3
:1007900010919B0420919C0430919D046C197D095B
:1007A0008E099F09061717072807390708F08ACF0F
:1007B000C0CF81E0C3CF80E0C1CF82E0BFCF83E074
:1007C000BDCF0895E091710480917004E81730F472
:1007D000F0E0EE55FE4F808190E008958FEF9FEF9F
:1007E000089590917104809170042FEF3FEF981756
:1007F00048F4E92FF0E0EE55FE4F208130E09F5F96
:1008000090937104C90108958091700490917104CE
:10081000891B990B0895CF92DF92EF92FF920F936D
:100820001F93CF93DF937C01CB018A0120919E041B
:10083000222389F0EB016B01C40ED51ECC15DD051A
:1008400069F06991D701ED91FC910190F081E02D63
:10085000C7010995F3CF642F0E947402C801DF918C
:10086000CF911F910F91FF90EF90DF90CF9008955F
:10087000CF93DF931F92CDB7DEB7698320919E049B
:100880002223F9F02091C104203258F021E030E019
:10089000FC013383228390E080E00F90DF91CF91C1
:1008A000089580919F04E82FF0E0E056FB4F998176
:1008B00090838F5F80939F048093C10481E090E0D8
:1008C000ECCF61E0CE0101960E947402F7CF682F51
:1008D0008FE595E00C9438041F93CF93DF93EC01E0
:1008E000162F81E080939E0480E58093C0041092CF
:1008F0009F041092C1048D2F90E00E946704CE01E6
:1009000099270E946704612F8FE595E00E943804C3
:1009100081E00E94F10265E070E080E090E0DF910C
:10092000CF911F910C94F50090E080E0089542E093
:1009300050E06AE271E082EC94E00C942701CF93DE
:10094000DF93FC01448155816081718182EC94E0E8
:100950000E942701EC010E9497048C0F9D1FDF91DC
:10096000CF910895CF93DF93FC0101900020E9F728
:100970003197AF01481B590BBC0182EC94E00E94F7
:100980002701EC010E9497048C0F9D1FDF91CF91EE
:100990000895CF92DF92EF92FF920F931F93CF9320
:1009A000DF93EC0181E080939E0480E58093C00496
:1009B00010929F041092C1048D2F90E00E94670452
:1009C000CE0199270E94670481E00E94F1020E94F3
:1009D000D0006B017C0180919804811163C081E09B
:1009E00080939804809397049FEF909396041092BD
:1009F0009504109294048093730480917304806A28
:100A00008093730480917204813009F082C0109247
:100A100072040E94D0006B017C018091730480936A
:100A2000BB0080919A0490919B04A0919C04B0918A
:100A30009D04892B8A2B8B2BA1F00E94D000009162
:100A40009A0410919B0420919C0430919D046C1990
:100A50007D098E099F09061717072807390708F42B
:100A600042C08091BC0083FDD8CF85EC8093BC0050
:100A70000E94D0006B017C0180919804813009F4C0
:100A80004AC080919504811168C080919504A4E7C3
:100A9000B4E0E2EAF1E090E0981751F12D91219352
:100AA0009F5FFACF80919A0490919B04A0919C043F
:100AB000B0919D04892B8A2B8B2B09F48CCF0E943B
:100AC000D00000919A0410919B0420919C043091D5
:100AD0009D046C197D098E099F09061717072807C1
:100AE000390708F078CF809199040E94D00280E005
:100AF00010927104809370048FE595E00E94F103D9
:100B0000DF91CF911F910F91FF90EF90DF90CF90E9
:100B1000089585EEABCF80919A0490919B04A091AB
:100B20009C04B0919D04892B8A2B8B2B09F4A4CFB4
:100B30000E94D00000919A0410919B0420919C0483
:100B400030919D046C197D098E099F0906171707BE
:100B50002807390708F090CFC6CF81E098CFFC0175
:100B600024813581232B39F421E0FB018081882306
:100B700049F020E007C0808191810E94400F21E070
:100B8000892BB9F7822F08950F931F93CF93DF938B
:100B9000EC0188819981009759F02A813B812617C1
:100BA000370730F081E0DF91CF911F910F910895C9
:100BB0008B016F5F7F4F0E946F0E009759F09983F2
:100BC00088831B830A832C813D81232B59F7FC01E9
:100BD0001082E8CF80E0E7CFEF92FF920F931F9350
:100BE000CF93DF9300D0CDB7DEB78C0169831A8233
:100BF000FC01E480F580FFEFEF1AFF0AB7010E94C5
:100C0000C405882381F0F801208131818481958198
:100C1000BE016F5F7F4F820F931F0E94490FF80143
:100C2000F582E48281E00F900F90DF91CF911F91C8
:100C30000F91FF90EF900895CF93DF93EC0188819F
:100C40009981009711F00E94E60D198218821D8289
:100C50001C821B821A82DF91CF910895EF92FF923E
:100C60000F931F93CF93DF93EC017B018A01BA01AD
:100C70000E94C40581110BC0CE010E941C06CE014A
:100C8000DF91CF911F910F91FF90EF9008951D83F9
:100C90000C83B701888199810E94490FF0CFFC0134
:100CA00011821082138212821582148250E040E079
:100CB0006CE271E00C942E06CF93DF93EC01FB0104
:100CC0008617970749F0608171816115710541F0C0
:100CD000448155810E942E06CE01DF91CF91089567
:100CE0000E941C06F9CFFC0111821082138212822D
:100CF000158214820C945C06FC018081918100971E
:100D000011F00C94E60D089585ED8093BC00809160
:100D10009A0490919B04A0919C04B0919D04079625
:100D2000A11DB11D23E0B695A795979587952A95A6
:100D3000D1F72091BC0024FD03C0109298040895BF
:100D400040919A0450919B0460919C0470919D0481
:100D5000452B462B472B69F30097A105B10541F0C0
:100D60002AE22A95F1F700C00197A109B109E1CF64
:100D7000809199040C94D0029F92AF92BF92CF922F
:100D8000DF92EF92FF920F931F93CF93DF9300D0E8
:100D900000D000D0CDB7DEB75C010E94B902CE0111
:100DA00001960E944F0607E510E0680187E1C81A26
:100DB000D10850E040E06CE271E0CE0101960E9463
:100DC0002E067801E6E1EE1AF1080E151F058CF1EA
:100DD000C7010E94C904982EF0E2F81730F5082EDA
:100DE000000C990B0E942F0F892B29F0692DCE0141
:100DF00001960E94EC052D813E81F501848195814B
:100E00002817390791F489819A816081718100974F
:100E1000D1F06115710531F4232B11F1FC018081B2
:100E200090E01CC00E94400F19C0FFEFEF1AFF0AAC
:100E3000CCCF085E1F4F073D83E1180709F0B5CFFF
:100E40000FEF1FEF15C06115710551F0232B41F015
:100E5000FB01808190E0919581959109892B29F77B
:100E6000C6018054910968E170E00E941C0D8B015D
:100E7000CE0101960E947C06C80126960FB6F89412
:100E8000DEBF0FBECDBFDF91CF911F910F91FF90BD
:100E9000EF90DF90CF90BF90AF909F9008951F92FA
:100EA0000F920FB60F9211242F933F938F939F931E
:100EB000AF93BF938091680490916904A0916A04F4
:100EC000B0916B043091630423E0230F2D3758F564
:100ED0000196A11DB11D2093630480936804909333
:100EE0006904A0936A04B0936B04809164049091A8
:100EF0006504A0916604B09167040196A11DB11D1F
:100F00008093640490936504A0936604B09367048F
:100F1000BF91AF919F918F913F912F910F900FBEF5
:100F20000F901F90189526E8230F0296A11DB11D62
:100F3000D2CF1F920F920FB60F9211242F933F938F
:100F40004F935F936F937F938F939F93AF93BF93D1
:100F5000EF93FF9382EC94E00E94E501FF91EF9103
:100F6000BF91AF919F918F917F916F915F914F91C1
:100F70003F912F910F900FBE0F901F9018951F92C9
:100F80000F920FB60F9211242F938F939F93EF938D
:100F9000FF93E091D204F091D3048081E091D804D2
:100FA000F091D90482FD1BC090818091DB048F5F9A
:100FB0008F732091DC04821741F0E091DB04F0E0B4
:100FC000EE53FB4F958F8093DB04FF91EF919F9140
:100FD0008F912F910F900FBE0F901F9018958081C9
:100FE000F4CF1F920F920FB60F9211242F933F93BD
:100FF0004F935F936F937F938F939F93AF93BF9321
:10100000EF93FF938091B900887F803609F44AC03E
:10101000F0F5883209F4A7C018F5803109F49BC0B7
:10102000B8F4882309F4F9C0883009F494C0FF911A
:10103000EF91BF91AF919F918F917F916F915F9150
:101040004F913F912F910F900FBE0F901F901895C9
:10105000883109F488C0803251F78093960414C017
:10106000803409F49DC040F48033B9F38833F9F635
:101070008093960485ECB0C0803509F485C088352E
:1010800009F496C0883499F60E948406D0CF883936
:1010900009F48CC038F5883729F050F4883611F0FF
:1010A000803729F683E0809398041092050257C098
:1010B000883809F47BC0803919F0803809F0B7CF3F
:1010C00080910502803208F071C0E091050281E054
:1010D0008E0F809305028091BB00F0E0EB51FE4F34
:1010E00080833DC0803B39F0E0F4803A09F479C058
:1010F000883A09F09CCF84E0809398041092E40130
:101100001092E301E0916E04F0916F0409958091D3
:10111000E30181110FC081E08093E3011092C301CC
:1011200009C0803C09F4A6CF883C09F4A3CF883BD2
:1011300009F07DCFE091E40181E08E0F8093E4011E
:10114000F0E0ED53FE4F80818093BB009091E4016D
:101150008091E30129C0809173048093BB0085ECEA
:101160008093BC0064CF909195048091940498176B
:1011700058F5E091950481E08E0F80939504F0E09E
:10118000EC58FB4F8081E9CFE091950481E08E0F10
:10119000809395048091BB00F0E0EC58FB4F808376
:1011A00090919504809194049817C8F285E8D8CF5F
:1011B000E091950481E08E0F809395048091BB00AF
:1011C000F0E0EC58FB4F80838091970481115CCF55
:1011D00081E08093720484EA8093BC0010929804AA
:1011E00026CF85EC8093BC00109298048091050274
:1011F000803230F4E0910502F0E0EB51FE4F1082B6
:101200006091050270E0E0916C04F0916D0485EE50
:1012100091E00995109205020ACF1092960434CFFE
:10122000E2ECF4E01382128288EE93E0A0E0B0E0FA
:1012300084839583A683B7832AE031E031832083BA
:1012400025EC30E03587248724EC30E0378726878B
:1012500020EC30E0318B208B21EC30E0338B228B83
:1012600022EC30E0358B248B26EC30E0378B268B5C
:10127000118E128E138E148EEFE5F5E0138212821A
:1012800084839583A683B7838CE191E091838083E7
:101290000895CF93DF93CDB7DEB7E0970FB6F894FC
:1012A000DEBF0FBECDBF789484B5826084BD84B5A7
:1012B000816084BD85B5826085BD85B5816085BD51
:1012C00080916E00816080936E0010928100809109
:1012D0008100826080938100809181008160809391
:1012E0008100809180008160809380008091B100B6
:1012F00084608093B1008091B00081608093B000E1
:1013000080917A00846080937A0080917A00826074
:1013100080937A0080917A00816080937A00809136
:101320007A00806880937A001092C100E091D20424
:10133000F091D30482E08083E091CE04F091CF0459
:101340001082E091D004F091D1048FEC8083109250
:10135000DA04E091D604F091D70486E08083E0912E
:10136000D404F091D504808180618083E091D4041D
:10137000F091D504808188608083E091D404F0915D
:10138000D504808180688083E091D404F091D504F5
:1013900080818F7D8083F6E04F2EA0E06A2EA0E052
:1013A0007A2E82EC94E00E94C501181619060CF002
:1013B00029C2CE018B960E944F060E94770197FDAD
:1013C00009C08A30910531F0682FCE018B960E94BA
:1013D000EC05F3CFCBA4DCA4C114D10439F00FA5E4
:1013E00018A976010115110509F050C0CE0101962A
:1013F0000E944F06CE0107960E944F06CE010D9621
:101400000E944F06CE0143960E944F06CE018B9656
:101410000E949F04CE0185960E944F0610E000E0D6
:10142000F12CE12C8FA598A90817190708F087C09F
:101430008BA59CA5FC01E00FF11F009721F41092F1
:101440006204E2E6F4E020812C3709F055C04E9C9E
:10145000C0014F9C900D1124BE016B5D7F4F21E0B8
:1014600030E02C0F3D1F820F931F0E945C0650E05E
:1014700040E06CE271E0CE0185960E942E063FEFBF
:10148000E31AF30A0F5F1F4FCDCF750157012FEFFE
:10149000A21AB20AF7018081082E000C990B0E9453
:1014A000D90C892B91F7015011090C0D1D1DF80164
:1014B0008081082E000C990B0E94D90C892B31F0E9
:1014C0000E151F0518F001501109F1CFA8014F5F4B
:1014D0005F4F4E195F0958AB4FA7CE14DF0420F4BD
:1014E000B701C6010E94370FEBA5FCA58FA598A9EF
:1014F000E80FF91F10827ACF892B11F41092620441
:10150000D080BE016B5D7F4FCE0149960E9473066D
:101510006D2DCE0149960E94EC05811104C0CE01CB
:1015200049960E941C06BE01675E7F4FCE018596DC
:101530000E945C06CE0149960E947C06A3CF6DE214
:1015400071E0CE0101960E94AF05882309F466C1BF
:101550000B891C89ED84FE84AF80B8840E94B90297
:1015600081E090E00E94C904D82E8093610410921B
:10157000600410925F0410925E0488E1D89EA0017E
:101580001124E0E8DE9E90011124F5010190002075
:10159000E9F7BF01E6E9F3E090E080E06A197B0932
:1015A0004F5B5F4FC82E8617970708F074C08436CC
:1015B000910509F069C084E680936004E4E6CE2ECC
:1015C000F70101900020E9F7AF017EECA72E72E051
:1015D000B72EF50190E080E04E195F09B9016F5018
:1015E0007C4EE82E8417950708F05FC0843691057D
:1015F00009F054C084E680935F0464E6E62EF801A7
:1016000001900020E9F7AF01E6E0F2E090E080E031
:10161000401B510B2F5C3B4E582E8417950708F04A
:101620004EC08436910509F043C084E680935E0481
:1016300054E6552E61E06D0D81E090E00E946C044F
:101640000F8118850E94B9026D2D809196039091AB
:1016500097030E946C04F12CD12C8F2D90E0F8019F
:10166000E80FF91F6081662369F101968C159D05CD
:101670004CF5880F991FFC01EA56FC4F808191813F
:101680000E946C04F394E9CFDA01A80FB91FA1936B
:10169000B193019687CF8093600492CFDB01A80FAE
:1016A000B91FA193B19301969CCF80935F04A7CFFC
:1016B000B901680F791F619371930196ADCF809343
:1016C0005E04B8CF64EF71E080E090E00E94F50026
:1016D000BE01635F7F4FCE0149960E947306CB889F
:1016E000DC88C114D10409F449C00F89188D011593
:1016F0001105B1F08D8D9E8D080F191FB801CE0117
:1017000049960E94C4058823C9F1298D3A8D8D8D93
:101710009E8DB601820F931F0E94490F1E8F0D8F61
:10172000BE01675E7F4FCE014F960E947306CE01C9
:1017300049960E947C06DF8CF8A06FEF6E0D8091B9
:10174000CE029091CF020E946C040D2D1F2D4801F6
:10175000CC24C394D12CF12CF2E0AF0EB11CCE14EA
:10176000DF048CF4F40161914F01F50180819181D6
:101770000E946C04FFEFCF1ADF0AEECFCE0149962C
:101780000E941C06CDCF6FEF650D809106029091EF
:1017900007020E946C0428E0C22E22E0D22EFF2411
:1017A000F394F51458F4F80161918F01F6018191D9
:1017B00091916F010E946C04F394F3CF81E391E067
:1017C0000E94B20486E591E00E94B204CE014F96D9
:1017D0000E947C06CE0185960E947C06CE0143962F
:1017E0000E947C06CE010D960E947C06CE010796D3
:1017F0000E947C06CE0101960E947C06CE018B964B
:101800000E947C066114710409F4CBCD0E94D101C1
:10181000882309F4C0CD0E940000BDCD6BE571E0C6
:10182000CE0101960E94AF05882309F446C0BE018F
:10183000695F7F4FCE0149960E947306CE0149969B
:101840000E94BC068C01CE0149960E947C0680E66F
:1018500091E00F3F100709F48BC00E94B902CE013E
:1018600049960E944F061695102F00271795079549
:10187000C8018F509C4E0E94C9040E501C4E780126
:10188000E80EF11C0E151F056CF4C8010E94C90476
:10189000813228F0682FCE0149960E94EC050F5F37
:1018A0001F4FF0CFCE0149960E949F0486E591E03C
:1018B0000E94B204CE0149968BCF61E771E0CE0160
:1018C00001960E94AF05882309F459C0BE01695FE3
:1018D0007F4FCE0149960E947306CE0149960E9421
:1018E000BC067C01CE0149960E947C060E94B9028A
:1018F00081E090E00E94C9046FEF680F81E090E002
:101900000E946C046701D694DC2CCC24D794C79435
:1019100086010F501C4E2FE8C21A2BEED20A0C156E
:101920001D0539F060E0C8010E946C040F5F1F4F75
:10193000F6CF88E18E9D80018F9D100D11246FEFF1
:10194000C801805C9F4F0E946C04780131E4E30E73
:10195000F11C075A1F4FE016F10641F060E0C70185
:101960000E946C048FEFE81AF80AF5CF88E791E03F
:101970000E94B20486E591E00E94B2042BCF60E899
:1019800071E0CE0101960E94AF05882309F422CFB1
:101990000E94B90210E000E060E0C8010E946C04FF
:1019A0000F5F1F4F0F3FECE71E07B1F786E891E08E
:1019B000DFCF91110C94E20C803219F089508550E0
:1019C000C8F708959927882708952F923F924F923C
:1019D0005F926F927F928F929F92AF92BF92CF92BF
:1019E000DF92EF92FF920F931F93CF93DF93CDB7C8
:1019F000DEB7CA1BDB0B0FB6F894DEBF0FBECDBF40
:101A000009942A88398848885F846E847D848C8410
:101A10009B84AA84B984C884DF80EE80FD800C8119
:101A20001B81AA81B981CE0FD11D0FB6F894DEBFFC
:101A30000FBECDBFED01089597FB072E16F400945D
:101A400007D077FD09D00E94300D07FC05D03EF489
:101A5000909581959F4F0895709561957F4F08955A
:101A6000AA1BBB1B51E107C0AA1FBB1FA617B707C4
:101A700010F0A61BB70B881F991F5A95A9F78095E0
:101A80009095BC01CD010895EE0FFF1F0590F491D4
:101A9000E02D09940F931F93CF93DF93823091052C
:101AA00010F482E090E0E0916D05F0916E0530E079
:101AB00020E0B0E0A0E0309799F42115310509F459
:101AC0004AC0281B390B24303105D8F58A819B8107
:101AD0006115710589F1FB0193838283FE0111C0B9
:101AE000408151810281138148175907E0F048175E
:101AF000590799F4109761F012960C931297139668
:101B00001C933296CF01DF91CF911F910F910895D1
:101B100000936D0510936E05F4CF2115310551F03A
:101B20004217530738F0A901DB019A01BD01DF011B
:101B3000F801C1CFEF01F9CF90936E0580936D0549
:101B4000CDCFFE01E20FF31F819391932250310913
:101B500039832883D7CF20916B0530916C05232BD7
:101B600041F4209102013091030130936C052093E0
:101B70006B0520910001309101012115310541F4DF
:101B80002DB73EB74091040150910501241B350B40
:101B9000E0916B05F0916C05E217F307A0F42E1BA2
:101BA0003F0B2817390778F0AC014E5F5F4F2417C1
:101BB000350748F04E0F5F1F50936C0540936B053F
:101BC000819391939FCFF0E0E0E09CCFCF93DF93A0
:101BD0000097E9F0FC01329713821282A0916D0503
:101BE000B0916E05ED0130E020E01097A1F4208166
:101BF0003181820F931F20916B0530916C0528175E
:101C0000390709F061C0F0936C05E0936B05DF9133
:101C1000CF910895EA01CE17DF07E8F54A815B818D
:101C20009E0141155105B1F7E901FB83EA83499112
:101C30005991C40FD51FEC17FD0761F48081918184
:101C40000296840F951FE90199838883828193818D
:101C50009B838A83F0E0E0E012968D919C9113972C
:101C60000097B9F52D913C911197CD010296820F05
:101C7000931F20916B0530916C052817390739F6B1
:101C8000309751F510926E0510926D05B0936C056A
:101C9000A0936B05BCCFD383C28340815181840F55
:101CA000951FC817D90761F44E5F5F4F88819981EE
:101CB000480F591F518340838A819B81938382837C
:101CC0002115310509F0B0CFF0936E05E0936D0555
:101CD0009ECFFD01DC01C0CF13821282D7CFB0E0CE
:101CE000A0E0E5E7FEE00C94E70C8C01009751F4CE
:101CF000CB010E944A0D8C01C801CDB7DEB7E0E1EF
:101D00000C94030DFC01E60FF71F9C0122503109D2
:101D1000E217F30708F49DC0D901CD91DC9111972A
:101D2000C617D70798F0C530D10530F3CE01049718
:101D30008617970708F3C61BD70B2297C193D19339
:101D40006D937C93CF010E94E60DD6CF5B01AC1A58
:101D5000BD0A4C018C0E9D1EA0916D05B0916E05C3
:101D6000512C412CF12CE12C109731F580916B0511
:101D700090916C058815990509F05CC046165706C8
:101D800008F058C08091000190910101009741F442
:101D90008DB79EB74091040150910501841B950BAE
:101DA000E817F90708F055C0F0936C05E0936B0550
:101DB000F90171836083A0CF8D919C911197129648
:101DC0006C90129713967C901397A815B90559F546
:101DD0006C0142E0C40ED11CCA14DB0420F1AC013A
:101DE0004A195B09DA011296159780F062827382B4
:101DF00051834083D9016D937C93E114F10471F018
:101E0000D7011396FC93EE93129776CF22968C0F00
:101E10009D1FF90191838083F301EFCFF0936E054D
:101E2000E0936D0569CF4816590608F42C017D0131
:101E3000D3019ACFCB010E944A0D7C01009749F053
:101E4000AE01B8010E94370FC8010E94E60D87015C
:101E500053CF10E000E050CF85FD0C94E20C80627F
:101E600091110C94E20C81568A51D8F70895FB0128
:101E7000DC0102C001900D9241505040D8F7089506
:101E8000FB01DC018D91019080190110D9F3990BB0
:101E90000895FB01DC0101900D920020E1F7089507
:041EA000F894FFCFE4
:101EA40000006F05800000000000070227015401B4
:101EB4005402C5016301B7010000000038040B049B
:101EC4009404E1030404F103E2030D0A0061646471
:101ED4000044617461207772697474656E20746F54
:101EE40020454550524F4D20737563636573736687
:101EF400756C6C792E00646F6E65007265616400A8
:101F04005265636F7264206E6F7420666F756E64C1
:101F14000064656C6574650064656C657465640073
:101F2400726573657400454550524F4D2072657358
:101F34006574207375636365737366756C6C792E51
:021F440000009B
:00000001FF
