:100000000C9458000C9480000C9480000C94800098
:100010000C9480000C9480000C9480000C94800060
:100020000C9480000C9480000C9480000C94800050
:100030000C9480000C9480000C9480000C94800040
:100040000C94BC050C9480000C942C060C940606B1
:100050000C9480000C9480000C9480000C94800020
:100060000C945E060C94800000000000250028001F
:100070002B00040404040404040402020202020229
:10008000030303030303010204081020408001025C
:1000900004081020010204081020000000080002DB
:1000A00001000003040700000000000000007D07BD
:1000B00011241FBECFEFD8E0DEBFCDBF22E0A6E304
:1000C000B1E001C01D92A63AB207E1F711E0A0E04D
:1000D000B1E0EAE5F5E102C005900D92A633B10763
:1000E000D9F710E0C8E5D0E004C02197FE010E94D6
:1000F000A808C735D107C9F70E94B6070C94AB0A08
:100100000C9400000895089590E0FC01E656FF4F1E
:100110002491FC01EA57FF4F3491FC01EE58FF4F48
:10012000E491EE23C9F0222339F0233001F1A8F441
:10013000213019F1223029F1F0E0EE0FFF1FE859CC
:10014000FF4FA591B4918FB7F894EC91611126C03F
:1001500030953E233C938FBF08952730A9F0283077
:10016000C9F0243049F7809180008F7D03C08091D1
:1001700080008F7780938000DFCF84B58F7784BD38
:10018000DBCF84B58F7DFBCF8091B0008F778093DC
:10019000B000D2CF8091B0008F7DF9CF3E2BDACF67
:1001A0003FB7F89480917F0190918001A0918101E7
:1001B000B091820126B5A89B05C02F3F19F001968A
:1001C000A11DB11D3FBFBA2FA92F982F8827BC01B1
:1001D000CD01620F711D811D911D42E0660F771FD9
:1001E000881F991F4A95D1F70895AF92BF92CF9279
:1001F000DF92EF92FF920F931F93CF93DF936C01E7
:100200007B018B01040F151FEB015E01AE18BF08C7
:10021000C017D10759F06991D601ED91FC91019079
:10022000F081E02DC6010995892B79F7C501DF9191
:10023000CF911F910F91FF90EF90DF90CF90BF90E3
:10024000AF900895FC01538D448D252F30E0842F0D
:1002500090E0821B930B541710F0CF9608950197EE
:100260000895FC01918D828D981761F0A28DAE0FDB
:10027000BF2FB11D5D968C91928D9F5F9F73928F62
:1002800090E008958FEF9FEF0895FC01918D828D8E
:10029000981731F0828DE80FF11D858D90E008955B
:1002A0008FEF9FEF0895FC01918D228D892F90E0B3
:1002B000805C9F4F821B91098F739927089589EF66
:1002C00091E00E94530121E0892B09F420E0822F64
:1002D000089580E090E0892B29F00E945F01811150
:1002E0000C9400000895FC01A48DA80FB92FB11D36
:1002F000A35ABF4F2C91848D90E001968F7399275C
:10030000848FA689B7892C93A089B1898C91837039
:1003100080648C93938D848D981306C00288F38932
:10032000E02D80818F7D80830895EF92FF920F935F
:100330001F93CF93DF93EC0181E0888F9B8D8C8D91
:1003400098131AC0E889F989808185FF15C09FB785
:10035000F894EE89FF896083E889F9898081837048
:10036000806480839FBF81E090E0DF91CF911F91F7
:100370000F91FF90EF900895F62E0B8D10E00F5F18
:100380001F4F0F731127E02E8C8D8E110CC00FB6EE
:1003900007FCFACFE889F989808185FFF5CFCE0186
:1003A0000E947301F1CFEB8DEC0FFD2FF11DE35A8D
:1003B000FF4FF0829FB7F8940B8FEA89FB89808109
:1003C0008062CFCFCF93DF93EC01888D8823B9F083
:1003D000AA89BB89E889F9898C9185FD03C0808150
:1003E00086FD0DC00FB607FCF7CF8C9185FFF2CFCD
:1003F000808185FFEDCFCE010E947301E9CFDF91AF
:10040000CF91089520915701260F3327331F2132B2
:100410003105ECF42091CB01FC0190E080E0243028
:1004200069F082E00895A09157012191AC01495CE7
:100430005E4FA40FB52FB11D2C930196861798F32C
:1004400080915701680F6093570180E0089581E023
:1004500008951092CB0181E08093CA011092C501EA
:1004600061E082E10E94840061E083E10E948400F7
:10047000E9EBF0E080818E7F808380818D7F8083B7
:1004800088E48093B80085E48093BC000895CF93FE
:10049000DF9391E0909336018823B9F0C091B800C2
:1004A000D091BA008091BC008A7B8093BC0060E050
:1004B00082E10E94840060E083E10E9484000E9447
:1004C0002902D093BA00C093B800DF91CF9108956C
:1004D0000895E091F8018091F701E81730F4F0E019
:1004E000EF52FE4F808190E008958FEF9FEF0895C7
:1004F0009091F8018091F7012FEF3FEF981748F4A2
:10050000E92FF0E0EF52FE4F208130E09F5F9093A3
:10051000F801C90108958091F7019091F801891BB4
:10052000990B0895CF92DF92EF92FF920F931F9352
:10053000CF93DF937C01CB018A0120918301222399
:1005400089F0EB016B01C40ED51ECC15DD0569F0F9
:100550006991D701ED91FC910190F081E02DC701E7
:100560000995F3CF642F0E940202C801DF91CF9159
:100570001F910F91FF90EF90DF90CF900895CF9350
:10058000DF931F92CDB7DEB76983209183012223C9
:10059000F9F02091F501203258F021E030E0FC0123
:1005A0003383228390E080E00F90DF91CF91089514
:1005B0008091F601E82FF0E0EC57FE4F998190838F
:1005C0008F5F8093F6018093F50181E090E0ECCF9E
:1005D00061E0CE0101960E940202F7CF90E080E038
:1005E0000895FC0180819181009711F00C944A09D3
:1005F00008950F931F93CF93DF93EC018881998126
:10060000009759F02A813B812617370730F081E0A7
:10061000DF91CF911F910F9108958B016F5F7F4FF5
:100620000E94D309009759F0998388831B830A831A
:100630002C813D81232B59F7FC011082E8CF80E00B
:10064000E7CFEF92FF920F931F93CF93DF93EC01CD
:100650007B018A01BA010E94F90228813981811146
:1006600014C02115310519F0C9010E944A091982E7
:1006700018821D821C821B821A82CE01DF91CF91CB
:100680001F910F91FF90EF9008951D830C83B70188
:10069000C9010E94A40AF1CF2F923F924F925F921C
:1006A0007F928F929F92AF92BF92CF92DF92EF9202
:1006B000FF920F931F93CF93DF93CDB7DEB72897A9
:1006C0000FB6F894DEBF0FBECDBF7C011092F801CB
:1006D0001092F7010E94290282E890E09093F401C1
:1006E0008093F30183E890E09093F2018093F1010D
:1006F0001A8219821C821B821E821D8250E040E0F9
:1007000064E371E0CE0101960E94210350E040E0D5
:1007100064E371E0CE0101960E94210301E411E03F
:1007200080E5882E92E0792EBB24BA9425EEA22E85
:1007300035EC932E109383018092A4011092F60160
:100740001092F50160E086E992E00E94BF02602FFE
:1007500086E992E00E94BF02D090F50180E28D15FB
:1007600008F48CC00E94D0001B012C018091CB01A9
:1007700081115FC07092CB011093CA01B092C90180
:100780001092C801D092C701E4E8F1E0A5EAB1E017
:10079000D812E3C01092C6018091C601806A80938E
:1007A000C6018091C501813009F0DBC01092C501FE
:1007B0000E94D0001B012C018091C6018093BB00D8
:1007C0008091CD019091CE01A091CF01B091D00147
:1007D000892B8A2B8B2B99F00E94D0002091CD0180
:1007E0003091CE014091CF015091D001621973092F
:1007F000840995092617370748075907D8F18091CA
:10080000BC0083FDD9CF9092BC000E94D0001B0198
:100810002C018091CB01823009F4A6C08091C901DE
:100820008F3F61F18091C901803241F18091C9010E
:1008300025C08091CD019091CE01A091CF01B091C2
:10084000D001892B8A2B8B2B09F490CF0E94D000EA
:100850002091CD013091CE014091CF015091D00136
:10086000621973098409950926173707480759073C
:1008700008F07CCF8091CC010E9447021092F601D3
:100880001092F501109283010E94D0001B012C01EF
:100890008091CB0181118AC01093CB011093CA01C2
:1008A000B092C9011092C8011092C7011093C601FD
:1008B0008091C601806A8093C6018091C501813014
:1008C00009F0FBC01092C5010E94D0001B012C0151
:1008D0008091C6018093BB008091CD019091CE01A3
:1008E000A091CF01B091D001892B8A2B8B2BA1F045
:1008F0000E94D0002091CD013091CE014091CF01D6
:100900005091D00162197309840995092617370798
:100910004807590708F46BC08091BC0083FDD8CF0D
:100920009092BC000E94D0001B012C018091CB0151
:10093000813009F4C5C08091C8018111E3C0809164
:10094000C801A5EAB1E0E1EDF1E090E0981709F403
:1009500053C02D9121939F5FF9CF91919D938F5F0C
:1009600017CFA092BC0051CF8091CD019091CE01C4
:10097000A091CF01B091D001892B8A2B8B2B09F448
:1009800048CF0E94D0002091CD013091CE014091FE
:10099000CF015091D0016219730984099509261776
:1009A00037074807590708F034CF64CF8091CD014D
:1009B0009091CE01A091CF01B091D001892B8A2BCB
:1009C0008B2B09F465CF0E94D0002091CD0130918E
:1009D000CE014091CF015091D00162197309840971
:1009E0009509261737074807590708F051CF809116
:1009F000CC010E94470280E01092F8018093F70139
:100A000086E992E00E947802D82E882311F1082E00
:100A1000000C990B0E94930A892BD9F0DF8218866B
:100A2000CD80DE80EFEFCE1ADE0AB601CE01019650
:100A30000E94F902882369F029813A818D819E8183
:100A4000BE01695F7F4F820F931F0E94A40ADE825E
:100A5000CD820F5F083509F06DCE89819A81F7014B
:100A6000918380838B819C81938382838D819E81FE
:100A7000958384831A8219821C821B821E821D82A6
:100A8000CE0101960E94F102C70128960FB6F89494
:100A9000DEBF0FBECDBFDF91CF911F910F91FF90B1
:100AA000EF90DF90CF90BF90AF909F908F907F900E
:100AB0005F904F903F902F900895A092BC0032CF4E
:100AC0008091CD019091CE01A091CF01B091D00144
:100AD000892B8A2B8B2B09F429CF0E94D0002091DF
:100AE000CD013091CE014091CF015091D0016219DA
:100AF000730984099509261737074807590708F02D
:100B000015CF75CF81E01DCF85ED8093BC0080911E
:100B1000CD019091CE01A091CF01B091D001079667
:100B2000A11DB11D23E0B695A795979587952A95A8
:100B3000D1F72091BC0024FD03C01092CB01089591
:100B40004091CD015091CE016091CF017091D001C3
:100B5000452B462B472B69F30097A105B10541F0C2
:100B60002AE22A95F1F700C00197A109B109E1CF66
:100B70008091CC010C9447021F920F920FB60F92F6
:100B800011242F933F938F939F93AF93BF938091A3
:100B90007B0190917C01A0917D01B0917E0130910B
:100BA0007A0123E0230F2D3758F50196A11DB11DC1
:100BB00020937A0180937B0190937C01A0937D0127
:100BC000B0937E0180917F0190918001A09181017D
:100BD000B09182010196A11DB11D80937F01909378
:100BE0008001A0938101B0938201BF91AF919F9149
:100BF0008F913F912F910F900FBE0F901F901895DE
:100C000026E8230F0296A11DB11DD2CF1F920F928D
:100C10000FB60F9211242F933F934F935F936F93CF
:100C20007F938F939F93AF93BF93EF93FF9389EF3E
:100C300091E00E947301FF91EF91BF91AF919F915D
:100C40008F917F916F915F914F913F912F910F9075
:100C50000FBE0F901F9018951F920F920FB60F9214
:100C600011242F938F939F93EF93FF93E0910902A9
:100C7000F0910A028081E0910F02F091100282FD52
:100C80001BC09081809112028F5F8F73209113029D
:100C9000821741F0E0911202F0E0E750FE4F958F8D
:100CA00080931202FF91EF919F918F912F910F905E
:100CB0000FBE0F901F9018958081F4CF1F920F9256
:100CC0000FB60F9211242F933F934F935F936F931F
:100CD0007F938F939F93AF93BF93EF93FF938091F5
:100CE000B900887F803609F44AC0F0F5883209F4EB
:100CF000A7C018F5803109F49BC0B8F4882309F423
:100D0000F9C0883009F494C0FF91EF91BF91AF9181
:100D10009F918F917F916F915F914F913F912F9113
:100D20000F900FBE0F901F901895883109F488C05E
:100D3000803251F78093C90114C0803409F49DC0FA
:100D400040F48033B9F38833F9F68093C90185EC18
:100D5000B0C0803509F485C0883509F496C0883460
:100D600099F60E948405D0CF883909F48CC038F5F3
:100D7000883729F050F4883611F0803729F683E05F
:100D80008093CB011092790157C0883809F47BC059
:100D9000803919F0803809F0B7CF8091790180321D
:100DA00008F071C0E091790181E08E0F80937901A4
:100DB0008091BB00F0E0E75AFE4F80833DC0803B4E
:100DC00039F0E0F4803A09F479C0883A09F09CCF10
:100DD00084E08093CB011092580110925701E0916A
:100DE000F301F091F40109958091570181110FC031
:100DF00081E0809357011092370109C0803C09F4CB
:100E0000A6CF883C09F4A3CF883B09F07DCFE091C1
:100E1000580181E08E0F80935801F0E0E95CFE4FAD
:100E200080818093BB00909158018091570129C027
:100E30008091C6018093BB0085EC8093BC0064CF99
:100E40009091C8018091C701981758F5E091C801A9
:100E500081E08E0F8093C801F0E0EB55FE4F80815A
:100E6000E9CFE091C80181E08E0F8093C8018091A5
:100E7000BB00F0E0EB55FE4F80839091C80180915C
:100E8000C7019817C8F285E8D8CFE091C80181E082
:100E90008E0F8093C8018091BB00F0E0EB55FE4FB0
:100EA00080838091CA0181115CCF81E08093C5016C
:100EB00084EA8093BC001092CB0126CF85EC80930E
:100EC000BC001092CB0180917901803230F4E09126
:100ED0007901F0E0E75AFE4F10826091790170E0ED
:100EE000E091F101F091F20189E591E0099510920C
:100EF00079010ACF1092C90134CFE9EFF1E01382F2
:100F0000128288EE93E0A0E0B0E084839583A6830C
:100F1000B7832AE031E03183208325EC30E0358748
:100F2000248724EC30E03787268720EC30E0318BB3
:100F3000208B21EC30E0338B228B22EC30E0358BA0
:100F4000248B26EC30E0378B268B118E128E138E7D
:100F5000148EE6E9F2E01382128284839583A683DD
:100F6000B7838CE191E0918380830895CF93DF93E1
:100F7000CDB7DEB72C970FB6F894DEBF0FBECDBF4E
:100F8000789484B5826084BD84B5816084BD85B564
:100F9000826085BD85B5816085BD80916E00816070
:100FA00080936E0010928100809181008260809316
:100FB0008100809181008160809381008091800018
:100FC0008160809380008091B10084608093B10043
:100FD0008091B00081608093B00080917A0084603D
:100FE00080937A0080917A00826080937A00809169
:100FF0007A00816080937A0080917A008068809383
:101000007A001092C100E0910902F0910A0282E098
:101010008083E0910502F09106021082E0910702C0
:10102000F09108028FEC808310921102E0910D0282
:10103000F0910E0286E08083E0910B02F0910C02A9
:10104000808180618083E0910B02F0910C028081AD
:1010500088608083E0910B02F0910C0280818068AF
:101060008083E0910B02F0910C0280818F7D808360
:1010700018861F821A8619861C861B8647E050E058
:101080006AE271E0CE0107960E942103CE0101962B
:101090000E944C034D815E8169817A8189EF91E0E4
:1010A0000E94F50042E050E062E371E089EF91E0D8
:1010B0000E94F500CE0101960E94F102CE01079632
:1010C0000E94F10200E010E001151105E9F30E9411
:1010D0005F018823C9F30E940000F6CF9927882773
:1010E00008952F923F924F925F926F927F928F92CC
:1010F0009F92AF92BF92CF92DF92EF92FF920F93A7
:101100001F93CF93DF93CDB7DEB7CA1BDB0B0FB6B0
:10111000F894DEBF0FBECDBF09942A88398848886D
:101120005F846E847D848C849B84AA84B984C88403
:10113000DF80EE80FD800C811B81AA81B981CE0FFA
:10114000D11D0FB6F894DEBF0FBECDBFED010895DF
:10115000EE0FFF1F0590F491E02D09940F931F935C
:10116000CF93DF938230910510F482E090E0E0911C
:10117000A402F091A50230E020E0B0E0A0E03097BA
:1011800099F42115310509F44AC0281B390B243084
:101190003105D8F58A819B816115710589F1FB01C3
:1011A00093838283FE0111C04081518102811381AA
:1011B00048175907E0F04817590799F4109761F05C
:1011C00012960C93129713961C933296CF01DF91CF
:1011D000CF911F910F9108950093A4021093A5023F
:1011E000F4CF2115310551F04217530738F0A9010A
:1011F000DB019A01BD01DF01F801C1CFEF01F9CF99
:101200009093A5028093A402CDCFFE01E20FF31FBD
:10121000819391932250310939832883D7CF20912C
:10122000A2023091A302232B41F4209102013091BC
:1012300003013093A3022093A20220910001309178
:1012400001012115310541F42DB73EB7409104014C
:1012500050910501241B350BE091A202F091A302ED
:10126000E217F307A0F42E1B3F0B2817390778F07D
:10127000AC014E5F5F4F2417350748F04E0F5F1FDC
:101280005093A3024093A202819391939FCFF0E0E9
:10129000E0E09CCFCF93DF930097E9F0FC01329719
:1012A00013821282A091A402B091A502ED0130E058
:1012B00020E01097A1F420813181820F931F2091AB
:1012C000A2023091A3022817390709F061C0F093F8
:1012D000A302E093A202DF91CF910895EA01CE1715
:1012E000DF07E8F54A815B819E0141155105B1F7A1
:1012F000E901FB83EA8349915991C40FD51FEC178B
:10130000FD0761F4808191810296840F951FE901A8
:1013100099838883828193819B838A83F0E0E0E0D4
:1013200012968D919C9113970097B9F52D913C9150
:101330001197CD010296820F931F2091A202309146
:10134000A3022817390739F6309751F51092A502F4
:101350001092A402B093A302A093A202BCCFD383A5
:10136000C28340815181840F951FC817D90761F44A
:101370004E5F5F4F88819981480F591F5183408389
:101380008A819B81938382832115310509F0B0CF37
:10139000F093A502E093A4029ECFFD01DC01C0CF33
:1013A00013821282D7CFB0E0A0E0E9EDF9E00C940F
:1013B00073088C01009751F4CB010E94AE088C0198
:1013C000C801CDB7DEB7E0E10C948F08FC01E60F51
:1013D000F71F9C0122503109E217F30708F49DC062
:1013E000D901CD91DC911197C617D70798F0C53078
:1013F000D10530F3CE0104978617970708F3C61B73
:10140000D70B2297C193D1936D937C93CF010E9408
:101410004A09D6CF5B01AC1ABD0A4C018C0E9D1E49
:10142000A091A402B091A502512C412CF12CE12CE9
:10143000109731F58091A2029091A3028815990529
:1014400009F05CC04616570608F058C080910001AC
:1014500090910101009741F48DB79EB7409104012E
:1014600050910501841B950BE817F90708F055C04A
:10147000F093A302E093A202F90171836083A0CFED
:101480008D919C91119712966C90129713967C9067
:101490001397A815B90559F56C0142E0C40ED11C8B
:1014A000CA14DB0420F1AC014A195B09DA01129677
:1014B000159780F06282738251834083D9016D93C6
:1014C0007C93E114F10471F0D7011396FC93EE9331
:1014D000129776CF22968C0F9D1FF90191838083FE
:1014E000F301EFCFF093A502E093A40269CF481671
:1014F000590608F42C017D01D3019ACFCB010E943B
:10150000AE087C01009749F0AE01B8010E949B0A29
:10151000C8010E944A09870153CF10E000E050CF74
:1015200085FD0C946E08806291110C946E088156B2
:101530008A51D8F70895FB01DC0102C001900D9299
:1015400041505040D8F70895FB01DC0101900D9205
:0A1550000020E1F70895F894FFCFA2
:10155A000000A6028000000000009501F5002201AB
:10156A00E20153013101450100000000BF0292026D
:10157A00EE0268028B027802690267697420687554
:06158A0062000D0A0000E2
:00000001FF
