:100000000C9458000C9480000C9480000C94800098
:100010000C9480000C9480000C9480000C94800060
:100020000C9480000C9480000C9480000C94800050
:100030000C9480000C9480000C9480000C94800040
:100040000C944E040C9480000C94BE040C94980400
:100050000C9480000C9480000C9480000C94800020
:100060000C94F0040C94800000000000250028008F
:100070002B00040404040404040402020202020229
:10008000030303030303010204081020408001025C
:1000900004081020010204081020000000080002DB
:1000A00001000003040700000000000000000F062C
:1000B00011241FBECFEFD8E0DEBFCDBF11E0A0E01E
:1000C000B1E0EAE9FEE002C005900D92A435B10767
:1000D000D9F723E0A4E5B1E001C01D92A938B20729
:1000E000E1F710E0C8E5D0E004C02197FE010E94CE
:1000F0004507C735D107C9F70E9448060C944B073E
:100100000C94000090E0FC01E656FF4F2491FC01A6
:10011000EA57FF4F3491FC01EE58FF4FE491EE2374
:10012000C9F0222339F0233001F1A8F4213019F16C
:10013000223029F1F0E0EE0FFF1FE859FF4FA591A3
:10014000B4918FB7F894EC91611126C030953E239D
:100150003C938FBF08952730A9F02830C9F0243090
:1001600049F7809180008F7D03C0809180008F7758
:1001700080938000DFCF84B58F7784BDDBCF84B5DB
:100180008F7DFBCF8091B0008F778093B000D2CF6E
:100190008091B0008F7DF9CF3E2BDACF3FB7F89436
:1001A00080918C0290918D02A0918E02B0918F026D
:1001B00026B5A89B05C02F3F19F00196A11DB11DC2
:1001C0003FBFBA2FA92F982F8827BC01CD01620FFE
:1001D000711D811D911D42E0660F771F881F991FB9
:1001E0004A95D1F708958F929F92AF92BF92CF9286
:1001F000DF92EF92FF924B015C010E94CE006B01F7
:100200007C010E94CE006C197D098E099F09683E11
:10021000734081059105A8F321E0821A9108A10895
:10022000B10888EEC80E83E0D81EE11CF11C8114D1
:100230009104A104B10429F7FF90EF90DF90CF90D3
:10024000BF90AF909F908F90089508950895AF92BA
:10025000BF92CF92DF92EF92FF920F931F93CF93B3
:10026000DF936C017B018B01040F151FEB015E0115
:10027000AE18BF08C017D10759F06991D601ED91AA
:10028000FC910190F081E02DC6010995892B79F749
:10029000C501DF91CF911F910F91FF90EF90DF90FB
:1002A000CF90BF90AF900895FC01538D448D252FC2
:1002B00030E0842F90E0821B930B541710F0CF9600
:1002C000089501970895FC01918D828D981761F032
:1002D000A28DAE0FBF2FB11D5D968C91928D9F5F49
:1002E0009F73928F90E008958FEF9FEF0895FC0128
:1002F000918D828D981731F0828DE80FF11D858DDB
:1003000090E008958FEF9FEF0895FC01918D228D6D
:10031000892F90E0805C9F4F821B91098F739927F2
:10032000089580EE92E00E94850121E0892B09F476
:1003300020E0822F089580E090E0892B29F00E9430
:10034000910181110C9400000895FC01A48DA80F67
:10035000B92FB11DA35ABF4F2C91848D90E0019607
:100360008F739927848FA689B7892C93A089B18927
:100370008C91837080648C93938D848D981306C0C8
:100380000288F389E02D80818F7D80830895EF922C
:10039000FF920F931F93CF93DF93EC0181E0888F3F
:1003A0009B8D8C8D98131AC0E889F989808185FF0F
:1003B00015C09FB7F894EE89FF896083E889F989B1
:1003C00080818370806480839FBF81E090E0DF91B3
:1003D000CF911F910F91FF90EF900895F62E0B8D06
:1003E00010E00F5F1F4F0F731127E02E8C8D8E11C1
:1003F0000CC00FB607FCFACFE889F989808185FF28
:10040000F5CFCE010E94A501F1CFEB8DEC0FFD2FB2
:10041000F11DE35AFF4FF0829FB7F8940B8FEA89E2
:10042000FB8980818062CFCFCF93DF93EC01888DF1
:100430008823B9F0AA89BB89E889F9898C9185FD5F
:1004400003C0808186FD0DC00FB607FCF7CF8C91ED
:1004500085FFF2CF808185FFEDCFCE010E94A501FF
:10046000E9CFDF91CF91089520919501260F332791
:10047000331F21323105ECF42091B602FC0190E0EB
:1004800080E0243069F082E00895A09195012191E7
:10049000AC014B585E4FA40FB52FB11D2C930196A4
:1004A000861798F380919501680F6093950180E01D
:1004B000089581E008951092B60281E08093B5021C
:1004C0001092900261E082E10E94820061E083E18B
:1004D0000E948200E9EBF0E080818E7F8083808142
:1004E0008D7F808388E48093B80085E48093BC008E
:1004F0000895CF93DF9391E0909374018823B9F02E
:10050000C091B800D091BA008091BC008A7B8093E2
:10051000BC0060E082E10E94820060E083E10E9412
:1005200082000E945B02D093BA00C093B800DF91B2
:10053000CF9108950895E091850280918402E81793
:1005400030F4F0E0EC5AFE4F808190E008958FEF98
:100550009FEF089590918502809184022FEF3FEFE5
:10056000981748F4E92FF0E0EC5AFE4F208130E074
:100570009F5F90938502C9010895809184029091B4
:100580008502891B990B0895CF92DF92EF92FF921B
:100590000F931F93CF93DF937C01CB018A012091AE
:1005A000DF02222389F0EB016B01C40ED51ECC15AE
:1005B000DD0569F06991D701ED91FC910190F08121
:1005C000E02DC7010995F3CF642F0E943402C801C2
:1005D000DF91CF911F910F91FF90EF90DF90CF901F
:1005E0000895CF93DF931F92CDB7DEB76983209133
:1005F000DF022223F9F02091DC02203258F021E0C2
:1006000030E0FC013383228390E080E00F90DF91A3
:10061000CF9108958091DD02E82FF0E0E454FD4F82
:10062000998190838F5F8093DD028093DC0281E06B
:1006300090E0ECCF61E0CE0101960E943402F7CF4A
:10064000CF92DF92EF92FF920F931F93CF93182FC9
:10065000C62F81E08093DF0280E58093DE02109256
:10066000DD021092DC02692F8DE793E00E94F10217
:10067000612F8DE793E00E94F1026C2F8DE793E0EC
:100680000E94F102C091DC02C13208F091C00E94C8
:10069000CE006B017C018091B602811164C082E0C2
:1006A0008093B60281E08093B5028FEF8093B4020D
:1006B0001092B302C093B202ACEBB2E0E2E9F2E016
:1006C00080E0C81388C01092910280919102806AE4
:1006D0008093910280919002813009F080C0109245
:1006E00090020E94CE006B017C0180919102809368
:1006F000BB008091B8029091B902A091BA02B0916A
:10070000BB02892B8A2B8B2B99F00E94CE00009183
:10071000B8021091B9022091BA023091BB026C1953
:100720007D098E099F090617170728073907E0F189
:100730008091BC0083FDD9CF85EC8093BC000E94E2
:10074000CE006B017C018091B602823009F449C071
:100750008091B4028F3F61F18091B402803241F107
:100760008091B40225C08091B8029091B902A09105
:10077000BA02B091BB02892B8A2B8B2B09F48BCF49
:100780000E94CE000091B8021091B9022091BA02E5
:100790003091BB026C197D098E099F090617170756
:1007A0002807390708F077CF8091B7020E947902B5
:1007B0001092DD021092DC021092DF0265E070E020
:1007C00080E090E0CF911F910F91FF90EF90DF902C
:1007D000CF900C94F3009D9191938F5F72CF85EE33
:1007E000ACCF8091B8029091B902A091BA02B091B9
:1007F000BB02892B8A2B8B2B09F4A5CF0E94CE003C
:100800000091B8021091B9022091BA023091BB0256
:100810006C197D098E099F090617170728073907E4
:1008200008F091CFC1CF90E080E0089585ED8093EE
:10083000BC008091B8029091B902A091BA02B09127
:10084000BB020796A11DB11D23E0B695A79597950C
:1008500087952A95D1F72091BC0024FD03C0109202
:10086000B60208954091B8025091B9026091BA025F
:100870007091BB02452B462B472B69F30097A105CE
:10088000B10541F02AE22A95F1F700C00197A109CC
:10089000B109E1CF8091B7020C9479021F920F92B7
:1008A0000FB60F9211242F933F938F939F93AF9383
:1008B000BF938091880290918902A0918A02B091A1
:1008C0008B023091870223E0230F2D3758F50196D4
:1008D000A11DB11D20938702809388029093890205
:1008E000A0938A02B0938B0280918C0290918D022A
:1008F000A0918E02B0918F020196A11DB11D80932F
:100900008C0290938D02A0938E02B0938F02BF91C0
:10091000AF919F918F913F912F910F900FBE0F90AC
:100920001F90189526E8230F0296A11DB11DD2CF66
:100930001F920F920FB60F9211242F933F934F9354
:100940005F936F937F938F939F93AF93BF93EF9337
:10095000FF9380EE92E00E94A501FF91EF91BF917D
:10096000AF919F918F917F916F915F914F913F9147
:100970002F910F900FBE0F901F9018951F920F92FE
:100980000FB60F9211242F938F939F93EF93FF93A2
:10099000E091F002F091F1028081E091F602F09195
:1009A000F70282FD1BC090818091F9028F5F8F73E7
:1009B0002091FA02821741F0E091F902F0E0E05252
:1009C000FD4F958F8093F902FF91EF919F918F9149
:1009D0002F910F900FBE0F901F9018958081F4CF2C
:1009E0001F920F920FB60F9211242F933F934F93A4
:1009F0005F936F937F938F939F93AF93BF93EF9387
:100A0000FF938091B900887F803609F44AC0F0F5E1
:100A1000883209F4A7C018F5803109F49BC0B8F4F6
:100A2000882309F4F9C0883009F494C0FF91EF914C
:100A3000BF91AF919F918F917F916F915F914F91F6
:100A40003F912F910F900FBE0F901F9018958831F6
:100A500009F488C0803251F78093B40214C0803406
:100A600009F49DC040F48033B9F38833F9F68093DC
:100A7000B40285ECB0C0803509F485C0883509F42E
:100A800096C0883499F60E941604D0CF883909F4AC
:100A90008CC038F5883729F050F4883611F080374B
:100AA00029F683E08093B6021092B70157C08838C8
:100AB00009F47BC0803919F0803809F0B7CF8091F4
:100AC000B701803208F071C0E091B70181E08E0F6C
:100AD0008093B7018091BB00F0E0E956FE4F808320
:100AE0003DC0803B39F0E0F4803A09F479C0883A9F
:100AF00009F09CCF84E08093B60210929601109288
:100B00009501E0918202F09183020995809195010F
:100B100081110FC081E0809395011092750109C089
:100B2000803C09F4A6CF883C09F4A3CF883B09F0A8
:100B30007DCFE091960181E08E0F80939601F0E0E9
:100B4000EB58FE4F80818093BB009091960180917D
:100B5000950129C0809191028093BB0085EC809320
:100B6000BC0064CF9091B3028091B202981758F5FF
:100B7000E091B30281E08E0F8093B302F0E0EE5675
:100B8000FD4F8081E9CFE091B30281E08E0F809329
:100B9000B3028091BB00F0E0EE56FD4F8083909150
:100BA000B3028091B2029817C8F285E8D8CFE091DD
:100BB000B30281E08E0F8093B3028091BB00F0E01E
:100BC000EE56FD4F80838091B50281115CCF81E0AC
:100BD0008093900284EA8093BC001092B60226CFE4
:100BE00085EC8093BC001092B6028091B7018032F0
:100BF00030F4E091B701F0E0E956FE4F10826091C9
:100C0000B70170E0E0918002F091810287E991E004
:100C100009951092B7010ACF1092B40234CFE0EEDA
:100C2000F2E01382128288EE93E0A0E0B0E08483C9
:100C30009583A683B78324E031E03183208325ECBC
:100C400030E03587248724EC30E03787268720EC96
:100C500030E0318B208B21EC30E0338B228B22EC87
:100C600030E0358B248B26EC30E0378B268B118ED1
:100C7000128E138E148EEDE7F3E0138212828483BA
:100C80009583A683B78386E191E09183808308955D
:100C9000789484B5826084BD84B5816084BD85B557
:100CA000826085BD85B5816085BD80916E00816063
:100CB00080936E0010928100809181008260809309
:100CC000810080918100816080938100809180000B
:100CD0008160809380008091B10084608093B10036
:100CE0008091B00081608093B00080917A00846030
:100CF00080937A0080917A00826080937A0080915C
:100D00007A00816080937A0080917A008068809375
:100D10007A001092C100E091F002F091F10282E0BD
:100D20008083E091EC02F091ED021082E091EE02FE
:100D3000F091EF028FEC80831092F802E091F402C0
:100D4000F091F50286E08083E091F202F091F302E7
:100D5000808180618083E091F202F091F3028081D2
:100D600088608083E091F202F091F30280818068D4
:100D70008083E091F202F091F30280818F7D808385
:100D80001092B9011092B80181E490E09093BB01F8
:100D90008093BA0182E490E09093BD018093BC01FE
:100DA00083E490E09093BF018093BE0184E490E0DF
:100DB0009093C1018093C00185E490E09093C301BA
:100DC0008093C20186E490E09093C5018093C401B2
:100DD00087E490E09093C7018093C60188E08093F8
:100DE000860210928502109284021092DD02109207
:100DF000DC020E945B0285E291E090938302809383
:100E0000820286E291E0909381028093800261E009
:100E10008091B8019091B9010E942003C0E08C2F0D
:100E200090E0FC01EC5DFE4F6081662369F0C73005
:100E300058F4880F991FFC01E654FE4F8081918180
:100E40000E942003CF5FEBCF68EE73E080E090E07C
:100E50000E94F30044E250E06CE271E080EE92E028
:100E60000E94270142E050E061E571E080EE92E0EF
:100E70000E942701C0E0D0E02097F1F30E94910189
:100E80008823D1F30E940000F7CFEE0FFF1F0590DB
:0A0E9000F491E02D0994F894FFCFCF
:100E9A0000000000C7012701540114028501630103
:100EAA00770100000000F102C40213049A02BD0295
:100EBA00AA029B02796F7574756265004461746158
:100ECA00207772697474656E20746F20454550529C
:100EDA004F4D207375636365737366756C6C792EF9
:040EEA00000D0A00ED
:00000001FF
